{"contracts/AvaxGods.sol":{"AVAXGods":{"abi":[{"inputs":[{"internalType":"string","name":"_metadataURI","type":"string"}],"stateMutability":"nonpayable","type":"constructor"},{"inputs":[{"internalType":"address","name":"sender","type":"address"},{"internalType":"uint256","name":"balance","type":"uint256"},{"internalType":"uint256","name":"needed","type":"uint256"},{"internalType":"uint256","name":"tokenId","type":"uint256"}],"name":"ERC1155InsufficientBalance","type":"error"},{"inputs":[{"internalType":"address","name":"approver","type":"address"}],"name":"ERC1155InvalidApprover","type":"error"},{"inputs":[{"internalType":"uint256","name":"idsLength","type":"uint256"},{"internalType":"uint256","name":"valuesLength","type":"uint256"}],"name":"ERC1155InvalidArrayLength","type":"error"},{"inputs":[{"internalType":"address","name":"operator","type":"address"}],"name":"ERC1155InvalidOperator","type":"error"},{"inputs":[{"internalType":"address","name":"receiver","type":"address"}],"name":"ERC1155InvalidReceiver","type":"error"},{"inputs":[{"internalType":"address","name":"sender","type":"address"}],"name":"ERC1155InvalidSender","type":"error"},{"inputs":[{"internalType":"address","name":"operator","type":"address"},{"internalType":"address","name":"owner","type":"address"}],"name":"ERC1155MissingApprovalForAll","type":"error"},{"inputs":[{"internalType":"address","name":"owner","type":"address"}],"name":"OwnableInvalidOwner","type":"error"},{"inputs":[{"internalType":"address","name":"account","type":"address"}],"name":"OwnableUnauthorizedAccount","type":"error"},{"anonymous":false,"inputs":[{"indexed":true,"internalType":"address","name":"account","type":"address"},{"indexed":true,"internalType":"address","name":"operator","type":"address"},{"indexed":false,"internalType":"bool","name":"approved","type":"bool"}],"name":"ApprovalForAll","type":"event"},{"anonymous":false,"inputs":[{"indexed":false,"internalType":"string","name":"battleName","type":"string"},{"indexed":true,"internalType":"address","name":"winner","type":"address"},{"indexed":true,"internalType":"address","name":"loser","type":"address"}],"name":"BattleEnded","type":"event"},{"anonymous":false,"inputs":[{"indexed":true,"internalType":"string","name":"battleName","type":"string"},{"indexed":true,"internalType":"bool","name":"isFirstMove","type":"bool"}],"name":"BattleMove","type":"event"},{"anonymous":false,"inputs":[{"indexed":false,"internalType":"string","name":"battleName","type":"string"},{"indexed":true,"internalType":"address","name":"player1","type":"address"},{"indexed":true,"internalType":"address","name":"player2","type":"address"}],"name":"NewBattle","type":"event"},{"anonymous":false,"inputs":[{"indexed":true,"internalType":"address","name":"owner","type":"address"},{"indexed":false,"internalType":"uint256","name":"id","type":"uint256"},{"indexed":false,"internalType":"uint256","name":"attackStrength","type":"uint256"},{"indexed":false,"internalType":"uint256","name":"defenseStrength","type":"uint256"}],"name":"NewGameToken","type":"event"},{"anonymous":false,"inputs":[{"indexed":true,"internalType":"address","name":"owner","type":"address"},{"indexed":false,"internalType":"string","name":"name","type":"string"}],"name":"NewPlayer","type":"event"},{"anonymous":false,"inputs":[{"indexed":true,"internalType":"address","name":"previousOwner","type":"address"},{"indexed":true,"internalType":"address","name":"newOwner","type":"address"}],"name":"OwnershipTransferred","type":"event"},{"anonymous":false,"inputs":[{"indexed":false,"internalType":"address[2]","name":"damagedPlayers","type":"address[2]"}],"name":"RoundEnded","type":"event"},{"anonymous":false,"inputs":[{"indexed":true,"internalType":"address","name":"operator","type":"address"},{"indexed":true,"internalType":"address","name":"from","type":"address"},{"indexed":true,"internalType":"address","name":"to","type":"address"},{"indexed":false,"internalType":"uint256[]","name":"ids","type":"uint256[]"},{"indexed":false,"internalType":"uint256[]","name":"values","type":"uint256[]"}],"name":"TransferBatch","type":"event"},{"anonymous":false,"inputs":[{"indexed":true,"internalType":"address","name":"operator","type":"address"},{"indexed":true,"internalType":"address","name":"from","type":"address"},{"indexed":true,"internalType":"address","name":"to","type":"address"},{"indexed":false,"internalType":"uint256","name":"id","type":"uint256"},{"indexed":false,"internalType":"uint256","name":"value","type":"uint256"}],"name":"TransferSingle","type":"event"},{"anonymous":false,"inputs":[{"indexed":false,"internalType":"string","name":"value","type":"string"},{"indexed":true,"internalType":"uint256","name":"id","type":"uint256"}],"name":"URI","type":"event"},{"inputs":[],"name":"CELESTION","outputs":[{"internalType":"uint256","name":"","type":"uint256"}],"stateMutability":"view","type":"function"},{"inputs":[],"name":"DEVIL","outputs":[{"internalType":"uint256","name":"","type":"uint256"}],"stateMutability":"view","type":"function"},{"inputs":[],"name":"FIREBIRD","outputs":[{"internalType":"uint256","name":"","type":"uint256"}],"stateMutability":"view","type":"function"},{"inputs":[],"name":"GRIFFIN","outputs":[{"internalType":"uint256","name":"","type":"uint256"}],"stateMutability":"view","type":"function"},{"inputs":[],"name":"KAMO","outputs":[{"internalType":"uint256","name":"","type":"uint256"}],"stateMutability":"view","type":"function"},{"inputs":[],"name":"KUKULKAN","outputs":[{"internalType":"uint256","name":"","type":"uint256"}],"stateMutability":"view","type":"function"},{"inputs":[],"name":"MAX_ATTACK_DEFEND_STRENGTH","outputs":[{"internalType":"uint256","name":"","type":"uint256"}],"stateMutability":"view","type":"function"},{"inputs":[{"internalType":"uint8","name":"_choice","type":"uint8"},{"internalType":"string","name":"_battleName","type":"string"}],"name":"attackOrDefendChoice","outputs":[],"stateMutability":"nonpayable","type":"function"},{"inputs":[{"internalType":"address","name":"account","type":"address"},{"internalType":"uint256","name":"id","type":"uint256"}],"name":"balanceOf","outputs":[{"internalType":"uint256","name":"","type":"uint256"}],"stateMutability":"view","type":"function"},{"inputs":[{"internalType":"address[]","name":"accounts","type":"address[]"},{"internalType":"uint256[]","name":"ids","type":"uint256[]"}],"name":"balanceOfBatch","outputs":[{"internalType":"uint256[]","name":"","type":"uint256[]"}],"stateMutability":"view","type":"function"},{"inputs":[],"name":"baseURI","outputs":[{"internalType":"string","name":"","type":"string"}],"stateMutability":"view","type":"function"},{"inputs":[{"internalType":"uint256","name":"","type":"uint256"}],"name":"battles","outputs":[{"internalType":"enum AVAXGods.BattleStatus","name":"battleStatus","type":"uint8"},{"internalType":"bytes32","name":"battleHash","type":"bytes32"},{"internalType":"string","name":"name","type":"string"},{"internalType":"address","name":"winner","type":"address"}],"stateMutability":"view","type":"function"},{"inputs":[{"internalType":"string","name":"_name","type":"string"}],"name":"createBattle","outputs":[{"components":[{"internalType":"enum AVAXGods.BattleStatus","name":"battleStatus","type":"uint8"},{"internalType":"bytes32","name":"battleHash","type":"bytes32"},{"internalType":"string","name":"name","type":"string"},{"internalType":"address[2]","name":"players","type":"address[2]"},{"internalType":"uint8[2]","name":"moves","type":"uint8[2]"},{"internalType":"address","name":"winner","type":"address"}],"internalType":"struct AVAXGods.Battle","name":"","type":"tuple"}],"stateMutability":"nonpayable","type":"function"},{"inputs":[{"internalType":"string","name":"_name","type":"string"}],"name":"createRandomGameToken","outputs":[],"stateMutability":"nonpayable","type":"function"},{"inputs":[{"internalType":"uint256","name":"id","type":"uint256"}],"name":"exists","outputs":[{"internalType":"bool","name":"","type":"bool"}],"stateMutability":"view","type":"function"},{"inputs":[{"internalType":"uint256","name":"","type":"uint256"}],"name":"gameTokens","outputs":[{"internalType":"string","name":"name","type":"string"},{"internalType":"uint256","name":"id","type":"uint256"},{"internalType":"uint256","name":"attackStrength","type":"uint256"},{"internalType":"uint256","name":"defenseStrength","type":"uint256"}],"stateMutability":"view","type":"function"},{"inputs":[],"name":"getAllBattles","outputs":[{"components":[{"internalType":"enum AVAXGods.BattleStatus","name":"battleStatus","type":"uint8"},{"internalType":"bytes32","name":"battleHash","type":"bytes32"},{"internalType":"string","name":"name","type":"string"},{"internalType":"address[2]","name":"players","type":"address[2]"},{"internalType":"uint8[2]","name":"moves","type":"uint8[2]"},{"internalType":"address","name":"winner","type":"address"}],"internalType":"struct AVAXGods.Battle[]","name":"","type":"tuple[]"}],"stateMutability":"view","type":"function"},{"inputs":[],"name":"getAllPlayerTokens","outputs":[{"components":[{"internalType":"string","name":"name","type":"string"},{"internalType":"uint256","name":"id","type":"uint256"},{"internalType":"uint256","name":"attackStrength","type":"uint256"},{"internalType":"uint256","name":"defenseStrength","type":"uint256"}],"internalType":"struct AVAXGods.GameToken[]","name":"","type":"tuple[]"}],"stateMutability":"view","type":"function"},{"inputs":[],"name":"getAllPlayers","outputs":[{"components":[{"internalType":"address","name":"playerAddress","type":"address"},{"internalType":"string","name":"playerName","type":"string"},{"internalType":"uint256","name":"playerMana","type":"uint256"},{"internalType":"uint256","name":"playerHealth","type":"uint256"},{"internalType":"bool","name":"inBattle","type":"bool"}],"internalType":"struct AVAXGods.Player[]","name":"","type":"tuple[]"}],"stateMutability":"view","type":"function"},{"inputs":[{"internalType":"string","name":"_name","type":"string"}],"name":"getBattle","outputs":[{"components":[{"internalType":"enum AVAXGods.BattleStatus","name":"battleStatus","type":"uint8"},{"internalType":"bytes32","name":"battleHash","type":"bytes32"},{"internalType":"string","name":"name","type":"string"},{"internalType":"address[2]","name":"players","type":"address[2]"},{"internalType":"uint8[2]","name":"moves","type":"uint8[2]"},{"internalType":"address","name":"winner","type":"address"}],"internalType":"struct AVAXGods.Battle","name":"","type":"tuple"}],"stateMutability":"view","type":"function"},{"inputs":[{"internalType":"string","name":"_battleName","type":"string"}],"name":"getBattleMoves","outputs":[{"internalType":"uint256","name":"P1Move","type":"uint256"},{"internalType":"uint256","name":"P2Move","type":"uint256"}],"stateMutability":"view","type":"function"},{"inputs":[{"internalType":"address","name":"addr","type":"address"}],"name":"getPlayer","outputs":[{"components":[{"internalType":"address","name":"playerAddress","type":"address"},{"internalType":"string","name":"playerName","type":"string"},{"internalType":"uint256","name":"playerMana","type":"uint256"},{"internalType":"uint256","name":"playerHealth","type":"uint256"},{"internalType":"bool","name":"inBattle","type":"bool"}],"internalType":"struct AVAXGods.Player","name":"","type":"tuple"}],"stateMutability":"view","type":"function"},{"inputs":[{"internalType":"address","name":"addr","type":"address"}],"name":"getPlayerToken","outputs":[{"components":[{"internalType":"string","name":"name","type":"string"},{"internalType":"uint256","name":"id","type":"uint256"},{"internalType":"uint256","name":"attackStrength","type":"uint256"},{"internalType":"uint256","name":"defenseStrength","type":"uint256"}],"internalType":"struct AVAXGods.GameToken","name":"","type":"tuple"}],"stateMutability":"view","type":"function"},{"inputs":[],"name":"getTotalSupply","outputs":[{"internalType":"uint256","name":"","type":"uint256"}],"stateMutability":"view","type":"function"},{"inputs":[{"internalType":"address","name":"account","type":"address"},{"internalType":"address","name":"operator","type":"address"}],"name":"isApprovedForAll","outputs":[{"internalType":"bool","name":"","type":"bool"}],"stateMutability":"view","type":"function"},{"inputs":[{"internalType":"string","name":"_name","type":"string"}],"name":"isBattle","outputs":[{"internalType":"bool","name":"","type":"bool"}],"stateMutability":"view","type":"function"},{"inputs":[{"internalType":"address","name":"addr","type":"address"}],"name":"isPlayer","outputs":[{"internalType":"bool","name":"","type":"bool"}],"stateMutability":"view","type":"function"},{"inputs":[{"internalType":"address","name":"addr","type":"address"}],"name":"isPlayerToken","outputs":[{"internalType":"bool","name":"","type":"bool"}],"stateMutability":"view","type":"function"},{"inputs":[{"internalType":"string","name":"_name","type":"string"}],"name":"joinBattle","outputs":[{"components":[{"internalType":"enum AVAXGods.BattleStatus","name":"battleStatus","type":"uint8"},{"internalType":"bytes32","name":"battleHash","type":"bytes32"},{"internalType":"string","name":"name","type":"string"},{"internalType":"address[2]","name":"players","type":"address[2]"},{"internalType":"uint8[2]","name":"moves","type":"uint8[2]"},{"internalType":"address","name":"winner","type":"address"}],"internalType":"struct AVAXGods.Battle","name":"","type":"tuple"}],"stateMutability":"nonpayable","type":"function"},{"inputs":[],"name":"owner","outputs":[{"internalType":"address","name":"","type":"address"}],"stateMutability":"view","type":"function"},{"inputs":[{"internalType":"uint256","name":"","type":"uint256"}],"name":"players","outputs":[{"internalType":"address","name":"playerAddress","type":"address"},{"internalType":"string","name":"playerName","type":"string"},{"internalType":"uint256","name":"playerMana","type":"uint256"},{"internalType":"uint256","name":"playerHealth","type":"uint256"},{"internalType":"bool","name":"inBattle","type":"bool"}],"stateMutability":"view","type":"function"},{"inputs":[{"internalType":"string","name":"_battleName","type":"string"}],"name":"quitBattle","outputs":[],"stateMutability":"nonpayable","type":"function"},{"inputs":[{"internalType":"string","name":"_name","type":"string"},{"internalType":"string","name":"_gameTokenName","type":"string"}],"name":"registerPlayer","outputs":[],"stateMutability":"nonpayable","type":"function"},{"inputs":[],"name":"renounceOwnership","outputs":[],"stateMutability":"nonpayable","type":"function"},{"inputs":[{"internalType":"address","name":"from","type":"address"},{"internalType":"address","name":"to","type":"address"},{"internalType":"uint256[]","name":"ids","type":"uint256[]"},{"internalType":"uint256[]","name":"values","type":"uint256[]"},{"internalType":"bytes","name":"data","type":"bytes"}],"name":"safeBatchTransferFrom","outputs":[],"stateMutability":"nonpayable","type":"function"},{"inputs":[{"internalType":"address","name":"from","type":"address"},{"internalType":"address","name":"to","type":"address"},{"internalType":"uint256","name":"id","type":"uint256"},{"internalType":"uint256","name":"value","type":"uint256"},{"internalType":"bytes","name":"data","type":"bytes"}],"name":"safeTransferFrom","outputs":[],"stateMutability":"nonpayable","type":"function"},{"inputs":[{"internalType":"address","name":"operator","type":"address"},{"internalType":"bool","name":"approved","type":"bool"}],"name":"setApprovalForAll","outputs":[],"stateMutability":"nonpayable","type":"function"},{"inputs":[{"internalType":"string","name":"newuri","type":"string"}],"name":"setURI","outputs":[],"stateMutability":"nonpayable","type":"function"},{"inputs":[{"internalType":"bytes4","name":"interfaceId","type":"bytes4"}],"name":"supportsInterface","outputs":[{"internalType":"bool","name":"","type":"bool"}],"stateMutability":"view","type":"function"},{"inputs":[{"internalType":"uint256","name":"tokenId","type":"uint256"}],"name":"tokenURI","outputs":[{"internalType":"string","name":"","type":"string"}],"stateMutability":"view","type":"function"},{"inputs":[],"name":"totalSupply","outputs":[{"internalType":"uint256","name":"","type":"uint256"}],"stateMutability":"view","type":"function"},{"inputs":[{"internalType":"uint256","name":"id","type":"uint256"}],"name":"totalSupply","outputs":[{"internalType":"uint256","name":"","type":"uint256"}],"stateMutability":"view","type":"function"},{"inputs":[],"name":"totalTokenMinted","outputs":[{"internalType":"uint256","name":"","type":"uint256"}],"stateMutability":"view","type":"function"},{"inputs":[{"internalType":"address","name":"newOwner","type":"address"}],"name":"transferOwnership","outputs":[],"stateMutability":"nonpayable","type":"function"},{"inputs":[{"internalType":"uint256","name":"","type":"uint256"}],"name":"uri","outputs":[{"internalType":"string","name":"","type":"string"}],"stateMutability":"view","type":"function"}],"evm":{"bytecode":{"linkReferences":{},"object":"60806040523462000ae75762004a55803803806200001d8162000b2c565b92833981019060208183031262000ae7578051906001600160401b03821162000ae7570181601f8201121562000ae7578051906001600160401b0382116200073a5762000074601f8301601f191660200162000b2c565b928284526020838301011162000ae75760005b82811062000ad157600083850160200152835184906001600160401b0381116200073a57600254600181811c9116801562000ac6575b60208210146200071957601f811162000a84575b50806020601f821160011462000a0c5760009162000a00575b508160011b916000199060031b1c1916176002555b3315620009e75760038054336001600160a01b0319821681179092556001600160a01b03167f8be0079c531659141344cd1fd0a4f28419497f9722a3daafe3b4186f6b6457e0600080a380516001600160401b0381116200073a57600654600181811c91168015620009dc575b60208210146200071957601f811162000989575b50602091601f82116001146200091f5791819260009262000913575b50508160011b916000199060031b1c1916176006555b604051608081016001600160401b038111828210176200073a57604052620001d962000b0c565b6000815281526020810190600082526040810160008152606082019060008252600954680100000000000000008110156200073a57600181018060095581101562000766576009600052925180519460029490941b7f6e1540171b6c0c960b71a7020d9f60077f6af931a8bbf590da0223dacf75c7af0193906001600160401b0386116200073a578454600181811c9116801562000908575b60208210146200071957601f8111620008d2575b50602090601f871160011462000863579580916003969760009262000857575b50508160011b9160001990871b1c19161785555b5160018501555160028401555191015560405160a081016001600160401b038111828210176200073a5760405260008152620002f562000b0c565b90600082526020810191825260006040820152600060608201526000608082015260085491680100000000000000008310156200073a576001830180600855831015620007665760086000528151600584027ff3f7a9fe364faab93b216da50a3214154f22a0a2b415b23a84c8169e8b636ee390810180546001600160a01b0319166001600160a01b039390931692909217909155905180519093906001600160401b0381116200073a5760016005830284010154600181811c911680156200084c575b60208210146200071957601f81116200080e575b506020601f82116001146200078857918160059260049594608097986000926200077c575b50508160011b916000199060031b1c1916176001838302850101555b60408601516002838302850101556060860151600383830285010155020101910151151560ff801983541691161790556200044862000aec565b60008152600060208201526200045d62000aec565b60008082526020820152604051916001600160401b0360c08401908111908411176200073a5760c0830160405260008352600060208401526200049f62000b0c565b60008152604084015260608301526080820152600060a0820152600a5490680100000000000000008210156200073a576001820180600a558210156200076657600a60005280517fc65a7bb8d6351c1cf70c95a316cc6a92839c986682d98bc35f958f4883f9d2a89060038110156200075057600784028201805460ff191660ff929092169190911781556020830151600182015560408301518051600290920191906001600160401b0382116200073a57825490600182811c921680156200072f575b6020831014620007195781601f849311620006d7575b50602090601f83116001146200066c5760009262000660575b50508160011b916000199060031b1c19161790555b606082015160005b600281106200063a57505060808201519260009360005b6002811062000615576007830284016005810187905560a086015160069190910180546001600160a01b0319166001600160a01b0392909216919091179055604051613ec9908162000b6c8239f35b9094602060019160ff8851169060ff8560031b92831b921b19161796019101620005c6565b81516001600160a01b0316600360078702850183010155602090910190600101620005af565b01519050868062000592565b6000858152602081209350601f198516905b818110620006be5750908460019594939210620006a4575b505050811b019055620005a7565b015160001960f88460031b161c1916905586808062000696565b929360206001819287860151815501950193016200067e565b6200070790856000526020600020601f850160051c810191602086106200070e575b601f0160051c019062000b52565b8762000579565b9091508190620006f9565b634e487b7160e01b600052602260045260246000fd5b91607f169162000563565b634e487b7160e01b600052604160045260246000fd5b634e487b7160e01b600052602160045260246000fd5b634e487b7160e01b600052603260045260246000fd5b015190508880620003f2565b60016005840285010160005260206000209560005b601f1984168110620007f5575082608096976004969593600193600596601f19811610620007db575b505050811b016001838302850101556200040e565b015160001960f88460031b161c19169055888080620007c6565b828201518855600190970196602092830192016200079d565b62000845906001600585028601016000526020600020601f840160051c810191602085106200070e57601f0160051c019062000b52565b85620003cd565b90607f1690620003b9565b015190508780620002a6565b90601f198716918660005260206000209260005b818110620008b957509160019391896003999a9410620008a0575b505050811b018555620002ba565b015160001983891b60f8161c1916905587808062000892565b9293602060018192878601518155019501930162000877565b6200090190866000526020600020601f890160051c81019160208a106200070e57601f0160051c019062000b52565b8662000286565b90607f169062000272565b0151905082806200019c565b601f19821692600660005260206000209160005b858110620009705750836001951062000956575b505050811b01600655620001b2565b015160001960f88460031b161c1916905582808062000947565b9192602060018192868501518155019401920162000933565b6006600052620009d5907ff652222313e28459528d920b65115c16c04f3efc82aaedc97be59f3f377c0d3f601f840160051c810191602085106200070e57601f0160051c019062000b52565b8262000180565b90607f16906200016c565b604051631e4fbdf760e01b815260006004820152602490fd5b905082015183620000ea565b6002600090815260008051602062004a358339815191529250601f198416905b81811062000a6b5750908360019493921062000a51575b5050811b01600255620000ff565b84015160001960f88460031b161c19169055838062000a43565b9192602060018192868901518155019401920162000a2c565b600260005262000abf9060008051602062004a35833981519152601f840160051c810191602085106200070e57601f0160051c019062000b52565b82620000d1565b90607f1690620000bd565b8060208092840101518282870101520162000087565b600080fd5b60408051919082016001600160401b038111838210176200073a57604052565b60405190602082016001600160401b038111838210176200073a57604052565b6040519190601f01601f191682016001600160401b038111838210176200073a57604052565b81811062000b5e575050565b6000815560010162000b5256fe6080604052600436101561001257600080fd5b60003560e01c8062fdd58e146102e1578063015a3792146102dc57806301ffc9a7146102d757806302fe5305146102d25780630677aa4e146102cd57806309c95e10146102c85780630daea2cd146102c35780630e89341c146102be57806310898e4c146102b95780631107ae3d146102b457806316801d17146102af57806318160ddd146102aa5780632ca04522146102a55780632eb2c2d6146102a05780634e1273f41461029b5780634f558e7914610296578063579b526d146102375780635c12cd4b146102915780635c93fc3d1461028c578063606d2e96146102875780636c0360eb14610282578063703730a51461027d578063715018a614610278578063845f433b146102735780638da5cb5b1461026e578063996d7bea146102695780639b09cc87146102645780639e4ecd111461025f5780639ec40aa31461025a578063a1b4f57c14610255578063a22cb46514610250578063ba2749561461024b578063bd85b03914610246578063bf034b6914610241578063bf103a4d1461023c578063c4e41b2214610237578063c87b56dd14610232578063d2198cc51461022d578063de96cefc14610228578063e985e9c514610223578063efa1c4821461021e578063f1da733914610219578063f242432a14610214578063f2fde38b1461020f5763f71d96cb1461020a57600080fd5b611e62565b611dbb565b611c9e565b611c82565b611b9a565b611b3d565b611b21565b611b05565b611a2e565b610e43565b611a0b565b61199d565b611952565b611749565b61168d565b611512565b6114fc565b6114e0565b6114a2565b6113e0565b6113b7565b6112a0565b611242565b611226565b611177565b6110e0565b610ee1565b610ea9565b610e15565b610d5b565b610bee565b610a9b565b610a7d565b610a50565b610937565b6108ff565b610841565b610814565b6107e7565b6107cb565b6106cc565b6104f1565b6103f4565b61032b565b600435906001600160a01b03821682036102fc57565b600080fd5b602435906001600160a01b03821682036102fc57565b35906001600160a01b03821682036102fc57565b346102fc5760403660031901126102fc57602061036f6103496102e6565b6024356000526000835260406000209060018060a01b0316600052602052604060002090565b54604051908152f35b60005b83811061038b5750506000910152565b818101518382015260200161037b565b906020916103b481518092818552858086019101610378565b601f01601f1916010190565b906060806103d7845160808552608085019061039b565b936020810151602085015260408101516040850152015191015290565b346102fc576000806003193601126104dc5760095461041281610b77565b9061042060405192836105e6565b8082526009835260209283830191817f6e1540171b6c0c960b71a7020d9f60077f6af931a8bbf590da0223dacf75c7af845b8383106104b75750505050604051928484019085855251809152604084019460408260051b8601019392955b82871061048b5785850386f35b9091929382806104a7600193603f198a820301865288516103c0565b960192019601959291909261047e565b6004886001926104ca859b9a989b611ee8565b81520192019201919096939596610452565b80fd5b6001600160e01b03198116036102fc57565b346102fc5760203660031901126102fc576020600435610510816104df565b63ffffffff60e01b16636cdb3d1360e11b811490811561054e575b811561053d575b506040519015158152f35b6301ffc9a760e01b14905038610532565b6303a24d0760e21b8114915061052b565b634e487b7160e01b600052604160045260246000fd5b608081019081106001600160401b0382111761059057604052565b61055f565b60c081019081106001600160401b0382111761059057604052565b60a081019081106001600160401b0382111761059057604052565b604081019081106001600160401b0382111761059057604052565b90601f801991011681019081106001600160401b0382111761059057604052565b6040519061061482610595565b565b60405190610614826105b0565b6040519061061482610575565b60405190610614826105cb565b6001600160401b03811161059057601f01601f191660200190565b81601f820112156102fc5780359061066f8261063d565b9261067d60405194856105e6565b828452602083830101116102fc57816000926020809301838601378301015290565b60206003198201126102fc57600435906001600160401b0382116102fc576106c991600401610658565b90565b346102fc576106da3661069f565b6106e2612cae565b80516001600160401b0381116105905761070681610701600254611003565b6122a2565b602080601f8311600114610748575081906107389360009261073d575b50508160011b916000199060031b1c19161790565b600255005b015190503880610723565b6002600052601f198316939091907f405787fa12a823e0f2b7631cc41b3ba8828b3321ca811111fa75cd3aa3bb5ace926000905b8682106107b3575050836001951061079a575b505050811b01600255005b015160001960f88460031b161c1916905538808061078f565b8060018596829496860151815501950193019061077c565b346102fc5760003660031901126102fc57602060405160038152f35b346102fc5760203660031901126102fc57602061080a6108056102e6565b611f21565b6040519015158152f35b346102fc5760003660031901126102fc576020604051600a8152f35b9060206106c992818152019061039b565b346102fc576020806003193601126102fc5760405160009160025461086581611003565b808452906001908181169081156108df575060011461089f575b61089b8461088f818803826105e6565b60405191829182610830565b0390f35b919350600260005283600020916000925b8284106108cc575050508161089b9361088f928201019361087f565b80548585018701529285019281016108b0565b60ff1916858501525050151560051b820101915061088f8161089b61087f565b346102fc5760203660031901126102fc5761089b61092361091e6102e6565b611f6c565b6040519182916020835260208301906103c0565b346102fc57602061080a61094a3661069f565b612028565b6003111561095957565b634e487b7160e01b600052602160045260246000fd5b9060038210156109595752565b6000915b6002831061098d57505050565b60019060ff83511681526020809101920192019190610980565b90610100916109b782825161096f565b6109db6020936020830151602085015260408301519080604086015284019061039b565b92606082015190606084016000905b60028210610a2057505050509060e060a083610a1060806106c99601518386019061097c565b01516001600160a01b0316910152565b83516001600160a01b03168152928201926001919091019082016109ea565b9060206106c99281815201906109a7565b346102fc5761089b610a69610a643661069f565b612173565b6040519182916020835260208301906109a7565b346102fc5760003660031901126102fc576020600554604051908152f35b346102fc5761089b610aac3661069f565b610ab461203b565b50610ac6610ac133611f21565b6121e2565b610ade610ad9610ad583612028565b1590565b61222e565b6040516020810190610b0281610af48585610830565b03601f1981018352826105e6565b51902090610b0e610630565b33815260006020820152610b20610630565b906000825260006020830152610b34610607565b9360008552602085015282604085015260608401526080830152600060a0830152610b61600a5491612002565b55610b6b8161248a565b60405191829182610a3f565b6001600160401b0381116105905760051b60200190565b9080601f830112156102fc576020908235610ba881610b77565b93610bb660405195866105e6565b81855260208086019260051b8201019283116102fc57602001905b828210610bdf575050505090565b81358152908301908301610bd1565b346102fc5760a03660031901126102fc57610c076102e6565b610c0f610301565b90604435916001600160401b03908184116102fc57610c3360049436908601610b8e565b906064358381116102fc57610c4b9036908701610b8e565b926084359081116102fc57610c639036908701610658565b936001600160a01b03808216903382141580610cf2575b610cc557831615610cad5715610c9657610c94955061342d565b005b604051626a0d4560e21b8152600081880152602490fd5b604051632bfa23e760e11b8152600081890152602490fd5b6040805163711bec9160e11b815233818b019081526001600160a01b038616602082015290918291010390fd5b50600082815260016020908152604080832033845290915290205460ff1615610c7a565b90815180825260208080930193019160005b828110610d36575050505090565b835185529381019392810192600101610d28565b9060206106c9928181520190610d16565b346102fc5760403660031901126102fc576004356001600160401b038082116102fc57366023830112156102fc578160040135610d9781610b77565b92610da560405194856105e6565b8184526020916024602086019160051b830101913683116102fc57602401905b828210610dfe57856024358681116102fc5761089b91610dec610df2923690600401610b8e565b90612549565b60405191829182610d4a565b838091610e0a84610317565b815201910190610dc5565b346102fc5760203660031901126102fc57600435600052600460205260206040600020541515604051908152f35b346102fc5760003660031901126102fc576020600754604051908152f35b9060018060a01b038251168152608080610e8a602085015160a0602086015260a085019061039b565b9360408101516040850152606081015160608501520151151591015290565b346102fc5760203660031901126102fc5761089b610ecd610ec86102e6565b612658565b604051918291602083526020830190610e61565b346102fc576000806003193601126104dc57600a54610eff81610b77565b90610f0d60405192836105e6565b808252600a835260209283830191817fc65a7bb8d6351c1cf70c95a316cc6a92839c986682d98bc35f958f4883f9d2a8845b838310610fa45750505050604051928484019085855251809152604084019460408260051b8601019392955b828710610f785785850386f35b909192938280610f94600193603f198a820301865288516109a7565b9601920196019592919092610f6b565b600788600192610fb7859b9a989b6120b5565b81520192019201919096939596610f3f565b634e487b7160e01b600052603260045260246000fd5b600a54811015610ffe57600a6000526007602060002091020190600090565b610fc9565b90600182811c92168015611033575b602083101461101d57565b634e487b7160e01b600052602260045260246000fd5b91607f1691611012565b9060405191826000825461105081611003565b908184526020946001916001811690816000146110be575060011461107f575b505050610614925003836105e6565b600090815285812095935091905b8183106110a65750506106149350820101388080611070565b8554888401850152948501948794509183019161108d565b9250505061061494925060ff191682840152151560051b820101388080611070565b346102fc5760203660031901126102fc57600435600a548110156102fc5761110a61114191610fdf565b5060ff815416906111576001820154916111266002820161103d565b90600660018060a01b0391015416926040519586809661096f565b602085015260806040850152608084019061039b565b9060608301520390f35b634e487b7160e01b600052600060045260246000fd5b346102fc576000806003193601126104dc576040518160065461119981611003565b9081845260209260019160018116908160001461120457506001146111c9575b61089b8561088f818903826105e6565b929450600683528483205b8284106111f1575050508161089b9361088f9282010193386111b9565b80548585018701529285019281016111d4565b60ff191686860152505050151560051b820101915061088f8161089b386111b9565b346102fc5760003660031901126102fc57602060405160028152f35b346102fc576000806003193601126104dc5761125c612cae565b600380546001600160a01b0319811690915581906001600160a01b03167f8be0079c531659141344cd1fd0a4f28419497f9722a3daafe3b4186f6b6457e08280a380f35b346102fc5760403660031901126102fc576001600160401b036004358181116102fc576112d1903690600401610658565b906024359081116102fc576112ea903690600401610658565b6112f333611f21565b611376576113419060085461132c611309610616565b338152856020820152600a604082015260196060820152600060808201526126f5565b336000908152600b6020526040902055612871565b7f81ef79d1cda814a60c0fc60792e648a06d9c6bae67176346d1cc8b63030bfccd60405180611371339482610830565b0390a2005b60405162461bcd60e51b8152602060048201526019602482015278141b185e595c88185b1c9958591e481c9959da5cdd195c9959603a1b6044820152606490fd5b346102fc5760003660031901126102fc576003546040516001600160a01b039091168152602090f35b346102fc576113f1610a643661069f565b6060810190815160018060a01b0390818151163314908115611492575b501561144d5782515116338103611443575061143e611431610c94935160200190565b516001600160a01b031690565b612d1d565b610c949250612d1d565b60405162461bcd60e51b815260206004820152601b60248201527f596f7520617265206e6f7420696e207468697320626174746c652100000000006044820152606490fd5b602001518216331490503861140e565b346102fc5760806114b5610a643661069f565b015160ff602081835116920151169061089b6040519283928360209093929193604081019481520152565b346102fc5760003660031901126102fc57602060405160058152f35b346102fc57610c9461150d3661069f565b612871565b346102fc5761089b6115233661069f565b61152b61203b565b5061153581612173565b9061155382516115448161094f565b61154d8161094f565b15612a11565b6060820180515190916115c891849190611581906001600160a01b03166001600160a01b0316331415612a57565b6115a161159c610ad5608061159533612658565b0151151590565b612aad565b600182526115c3336115b4865160200190565b6001600160a01b039091169052565b612fe6565b80515161161390600490611604906115fe906001600160a01b03165b6001600160a01b03166000908152600b6020526040902090565b54611e43565b5001805460ff19166001179055565b61162c60046116046115fe6115e4611431865160200190565b604082015190515161164e906001600160a01b03165b6001600160a01b031690565b7f024187b16c217a79f8d8e6252b542ec6e278fa91304acd9cfd866f2bbf00bd086040518061167e339582610830565b0390a360405191829182610a3f565b346102fc5760403660031901126102fc576116a66102e6565b60243590811515908183036102fc576001600160a01b038116928315611731576116f26117039233600052600160205260406000209060018060a01b0316600052602052604060002090565b9060ff801983541691151516179055565b6040519081527f17307eab39ab6107e8899845ad3d59bd9653f200f220920489ca2b5937696c3160203392a3005b60405162ced3e160e81b815260006004820152602490fd5b346102fc5760403660031901126102fc5760043560ff811681036102fc576024356001600160401b0381116102fc57611786903690600401610658565b906118708261179481612173565b928351936117a18561094f565b6117aa8561094f565b6117b76001809614612aed565b6117d7600282516117c78161094f565b6117d08161094f565b1415612b69565b6060810180518051919261184a9260ff926118439261183c92608092611813916001600160a01b039081163314918215611939575b5050612bb0565b0151855151339061182c906001600160a01b0316611642565b03611932578360005b1690612860565b5160ff1690565b1615612bfc565b51513390611860906001600160a01b0316611642565b0361192a5760ff60005b1661313c565b6118be61188d608061188185612173565b018051516118939060ff165b60ff1690565b611918576118b261188d61183c6118aa6000612c48565b935160200190565b61191157600090612c59565b90808203611909575b6118d083612c6d565b901515907f54b82b77e7ae55a8e6c9e89deba70c7191dea2a3b08ae647b380e9f981d6a0f8600080a31561190057005b610c949061325e565b5060006118c7565b8390612c59565b6118b261188d61183c6118aa87612c48565b60ff8461186a565b838a611835565b60200151166001600160a01b031690503314388061180c565b346102fc5760203660031901126102fc5760043560005260046020526020604060002054604051908152f35b600954811015610ffe57600960005260206000209060021b0190600090565b346102fc5760203660031901126102fc576004356009548110156102fc576119c76119f79161197e565b506119d18161103d565b90600181015490600360028201549101549060405194859460808652608086019061039b565b926020850152604084015260608301520390f35b346102fc5760203660031901126102fc57602061080a611a296102e6565b612c8d565b346102fc576020806003193601126102fc57611a4b60043561337e565b60405190600092600654611a5e81611003565b90600190818116908115611ae65750600114611aa5575b602f60f81b865261089b8561088f81610af4611a9460018c018a611feb565b64173539b7b760d91b815260050190565b90919450600660005284600020906000915b838310611ad35750505082019092019181610af4611a94611a75565b8054868401880152918601918101611ab7565b60ff191684870152505080151502830101925081610af4611a94611a75565b346102fc5760003660031901126102fc57602060405160008152f35b346102fc5760003660031901126102fc57602060405160018152f35b346102fc5760403660031901126102fc57602060ff611b8e611b5d6102e6565b611b65610301565b6001600160a01b0391821660009081526001865260408082209290931681526020919091522090565b54166040519015158152f35b346102fc576000806003193601126104dc57600854611bb881610b77565b90611bc660405192836105e6565b8082526008835260209283830191817ff3f7a9fe364faab93b216da50a3214154f22a0a2b415b23a84c8169e8b636ee3845b838310611c5d5750505050604051928484019085855251809152604084019460408260051b8601019392955b828710611c315785850386f35b909192938280611c4d600193603f198a82030186528851610e61565b9601920196019592919092611c24565b600588600192611c70859b9a989b612608565b81520192019201919096939596611bf8565b346102fc5760003660031901126102fc57602060405160048152f35b346102fc5760a03660031901126102fc57611cb76102e6565b611cbf610301565b6084356001600160401b0381116102fc57611cde903690600401610658565b906001600160a01b03838116903382141580611d97575b611d7057821615611d575715611d3f57610c9492611d376064356044359160405192600184526020840152604083019160018352606084015260808301604052565b92909161342d565b604051626a0d4560e21b815260006004820152602490fd5b604051632bfa23e760e11b815260006004820152602490fd5b60405163711bec9160e11b81523360048201526001600160a01b0386166024820152604490fd5b50600082815260016020908152604080832033845290915290205460ff1615611cf5565b346102fc5760203660031901126102fc57611dd46102e6565b611ddc612cae565b6001600160a01b03908116908115611e2a57600380546001600160a01b031981168417909155167f8be0079c531659141344cd1fd0a4f28419497f9722a3daafe3b4186f6b6457e0600080a3005b604051631e4fbdf760e01b815260006004820152602490fd5b600854811015610ffe5760086000526005602060002091020190600090565b346102fc5760203660031901126102fc576004356008548110156102fc57611e8990611e43565b5080546001600160a01b0316611ea16001830161103d565b9160028101549060ff600460038301549201541690611ed2604051958695865260a0602087015260a086019061039b565b9260408501526060840152151560808301520390f35b90604051611ef581610575565b606060038294611f048161103d565b845260018101546020850152600281015460408501520154910152565b6001600160a01b03166000908152600b6020526040902054611f4257600090565b600190565b60405190611f5482610575565b60006060838181528260208201528260408201520152565b611f74611f47565b50611f7e81612c8d565b15611faa5760018060a01b0316600052600c6020526106c9611fa460406000205461197e565b50611ee8565b60405162461bcd60e51b815260206004820152601960248201527847616d6520746f6b656e20646f65736e27742065786973742160381b6044820152606490fd5b90611ffe60209282815194859201610378565b0190565b602061201b918160405193828580945193849201610378565b8101600d81520301902090565b61203190612002565b54611f4257600090565b604090600060a0835161204d81610595565b80948382528360208301526060818301528051612069816105cb565b81368237606083015280519061207e826105cb565b36823760808201520152565b60038210156109595752565b9060ff6040519254818116845260081c166020830152610614826105cb565b906040516120c281610595565b80926120d260ff8254168361208a565b60018082015490602091602085015260026120ef6002850161103d565b6040860152604051928390600386016000925b84841061215757505050505050612149600661061494938361212560a0956105cb565b606086015261213660058201612096565b608086015201546001600160a01b031690565b6001600160a01b0316910152565b81546001600160a01b0316815292850192908501908201612102565b61217b61203b565b5061218581612028565b156121a55761219f6121996106c992612002565b54610fdf565b506120b5565b60405162461bcd60e51b8152602060048201526015602482015274426174746c6520646f65736e27742065786973742160581b6044820152606490fd5b156121e957565b60405162461bcd60e51b815260206004820152601c60248201527f506c6561736520526567697374657220506c61796572204669727374000000006044820152606490fd5b1561223557565b60405162461bcd60e51b8152602060048201526016602482015275426174746c6520616c7265616479206578697374732160501b6044820152606490fd5b9060038110156109595760ff80198354169116179055565b818110612296575050565b6000815560010161228b565b90601f82116122af575050565b6106149160026000526020600020906020601f840160051c830193106122dd575b601f0160051c019061228b565b90915081906122d0565b9190601f81116122f657505050565b610614926000526020600020906020601f840160051c830193106122dd57601f0160051c019061228b565b91909182516001600160401b03811161059057612348816123428454611003565b846122e7565b602080601f831160011461237f5750819061237b93949560009261073d5750508160011b916000199060031b1c19161790565b9055565b90601f1983169561239585600052602060002090565b926000905b8882106123d2575050836001959697106123b9575b505050811b019055565b015160001960f88460031b161c191690553880806123af565b8060018596829496860151815501950193019061239a565b634e487b7160e01b600052601160045260246000fd5b90600a820291808304600a149015171561241657565b6123ea565b9060005b6002811061242c57505050565b81516001600160a01b03168184015560209091019060010161241f565b60009160005b6002811061245c57505055565b909260206124816001928460ff885116919060ff809160031b9316831b921b19161790565b9401910161244f565b600a54600160401b811015610590576001810180600a55811015610ffe57600a600052600760206000209102018151600381101561095957610614926124d260069284612273565b602081015160018401556124ed604082015160028501612321565b6124fe60608201516003850161241b565b61250f608082015160058501612449565b60a00151910180546001600160a01b0319166001600160a01b0392909216919091179055565b8051821015610ffe5760209160051b010190565b919091805183518082036125e657505080519061257e61256883610b77565b9261257660405194856105e6565b808452610b77565b60209190601f1901368484013760005b81518110156125de57600581901b8281018401519087018401516000908152602081815260408083206001600160a01b0390941683529290522054600191906125d78287612535565b520161258e565b509193505050565b604051635b05999160e01b815260048101919091526024810191909152604490fd5b90604051612615816105b0565b608060ff6004839560018060a01b0381541685526126356001820161103d565b602086015260028101546040860152600381015460608601520154161515910152565b60006080604051612668816105b0565b82815260606020820152826040820152826060820152015261268981611f21565b156126b8576001600160a01b03166000908152600b602052604090206106c9906126b2906115fe565b50612608565b60405162461bcd60e51b8152602060048201526015602482015274506c6179657220646f65736e27742065786973742160581b6044820152606490fd5b60085490600160401b8210156105905761271760019260018101600855611e43565b92909261285b57815183546001600160a01b0319166001600160a01b039190911617835560018301906020808401518051926001600160401b0384116105905761276b846127658754611003565b876122e7565b602092601f85116001146127dc575050936004936127ab846127c9956080956106149a9960009261073d5750508160011b916000199060031b1c19161790565b90555b60408101516002860155606081015160038601550151151590565b91019060ff801983541691151516179055565b929190601f198516906127f487600052602060002090565b946000915b8383106128445750505084608094610614999894600498946127c9986001951061282b575b505050811b0190556127ae565b015160001960f88460031b161c1916905538808061281e565b8486015187559586019594810194918101916127f9565b611161565b906002811015610ffe5760051b0190565b608061287c33612658565b01516129d45761288e610ac133611f21565b612896611f47565b506128a03361356e565b6128a981612e56565b600660ff6128ed61188d60405160208101906128e381610af4334286909160349282526001600160601b03199060601b1660208201520190565b5190206064900690565b16069160ff83161561299f575b61296d7fca8ab07e9ed17d119729fc652dd24df9d8430ca862dda4631925b5b4b99da3629394612928610623565b90815260ff86169081602082015283604082015284606082015261294e60095491612ea0565b336000908152600c6020526040902055612966612fb8565b90336135b5565b61298061297b600754612fd7565b600755565b6040805160ff95909516855260208501919091528301523391606090a2565b61296d6129cc7fca8ab07e9ed17d119729fc652dd24df9d8430ca862dda4631925b5b4b99da36294612e8f565b9350506128fa565b60405162461bcd60e51b8152602060048201526015602482015274506c6179657220697320696e206120626174746c6560581b6044820152606490fd5b15612a1857565b60405162461bcd60e51b8152602060048201526017602482015276426174746c6520616c726561647920737461727465642160481b6044820152606490fd5b15612a5e57565b60405162461bcd60e51b815260206004820152602160248201527f4f6e6c7920706c617965722074776f2063616e206a6f696e206120626174746c6044820152606560f81b6064820152608490fd5b15612ab457565b60405162461bcd60e51b8152602060048201526011602482015270416c726561647920696e20626174746c6560781b6044820152606490fd5b15612af457565b60405162461bcd60e51b815260206004820152604160248201527f426174746c65206e6f7420737461727465642e20506c656173652074656c6c2060448201527f616e6f7468657220706c6179657220746f206a6f696e2074686520626174746c6064820152606560f81b608482015260a490fd5b15612b7057565b60405162461bcd60e51b815260206004820152601860248201527710985d1d1b19481a185cc8185b1c9958591e48195b99195960421b6044820152606490fd5b15612bb757565b60405162461bcd60e51b815260206004820152601a60248201527f596f7520617265206e6f7420696e207468697320626174746c650000000000006044820152606490fd5b15612c0357565b60405162461bcd60e51b815260206004820152601d60248201527f596f75206861766520616c7265616479206d6164652061206d6f7665210000006044820152606490fd5b60ff166002039060ff821161241657565b9060ff8091169116039060ff821161241657565b612c8590602060405192828480945193849201610378565b810103902090565b6001600160a01b03166000908152600c6020526040902054611f4257600090565b6003546001600160a01b03163303612cc257565b60405163118cdaa760e01b8152336004820152602490fd5b15612ce157565b60405162461bcd60e51b815260206004820152601460248201527310985d1d1b1948185b1c9958591e48195b99195960621b6044820152606490fd5b612d2561203b565b50612d4660028351612d368161094f565b612d3f8161094f565b1415612cda565b600282526001600160a01b03811660a08301526040820190612d69838351612fe6565b7fae6e5eafb6cd1cb4b139e7a0b9140aa182ee7d50e99f50d660156f79212acbc060608401612e116002612dfb612dab6115e4855160018060a01b0390511690565b54612e0383612dfb612dc46115e46114318a5160200190565b5493612de06004612dd483611e43565b5001805460ff19169055565b612df66003612dee83611e43565b500160199055565b611e43565b5001600a9055565b612de06004612dd483611e43565b5180516001600160a01b03938416939182918216858103612e4d57506020015116935b5193612e47604051928392169582610830565b0390a390565b91505093612e34565b600a0390600a821161241657565b60001981019190821161241657565b60021981019190821161241657565b9190820391821161241657565b60ff1660ff81146124165760010190565b60095490600160401b82101561059057612ec26001926001810160095561197e565b92909261285b578151908151916001600160401b03831161059057612eeb836127658754611003565b602091826001601f861114612f425750508260609360039593612f249360009261073d5750508160011b916000199060031b1c19161790565b84555b60208101516001850155604081015160028501550151910155565b929190601f19851690612f5a88600052602060002090565b946000915b838310612fa1575050509260019285926060966003989610612f89575b505050811b018455612f27565b015160001983881b60f8161c19169055388080612f7c565b848601518755958601959481019491810191612f5f565b60405190612fc5826105cb565b600382526203078360ec1b6020830152565b60001981146124165760010190565b612fef81612028565b156130905761219961300091612002565b61285b57815160038110156109595761306f60a06106149461302460069486612273565b6020810151600186015561303f604082015160028701612321565b61305060608201516003870161241b565b613061608082015160058701612449565b01516001600160a01b031690565b910180546001600160a01b0319166001600160a01b03909216919091179055565b60405162461bcd60e51b815260206004820152601460248201527310985d1d1b1948191bd95cdb89dd08195e1a5cdd60621b6044820152606490fd5b156130d357565b60405162461bcd60e51b815260206004820152602260248201527f4d616e61206e6f742073756666696369656e7420666f722061747461636b696e604482015261672160f01b6064820152608490fd5b9190916002831015610ffe57601f908360051c01921690565b9160ff82169260018414809481156131fd575b50156131b857600561318a61219961319194610614976000146131ae576131856003604061317c33612658565b015110156130cc565b612002565b5001613123565b908054909260ff60039390931b83811b199092169216901b179055565b61318560016130cc565b60405162461bcd60e51b815260206004820152601f60248201527f43686f6963652073686f756c64206265206569746865722031206f72203221006044820152606490fd5b60029150143861314f565b1561320f57565b60405162461bcd60e51b815260206004820152602160248201527f506c6179657273207374696c6c206e65656420746f206d616b652061206d6f766044820152606560f81b6064820152608490fd5b61326790612173565b60608101518051336001600160a01b0391821614918215613319575b5050156132c057806132aa608061061493015160ff815116151590816132af575b50613208565b6136f3565b6020015160ff1690501515386132a4565b60405162461bcd60e51b815260206004820152602b60248201527f4f6e6c7920706c617965727320696e207468697320626174746c652063616e2060448201526a6d616b652061206d6f766560a81b6064820152608490fd5b602091925001511633143880613283565b906133348261063d565b61334160405191826105e6565b8281528092613352601f199161063d565b0190602036910137565b60ff166030019060ff821161241657565b908151811015610ffe570160200190565b801561340f57806000826000935b6133fb57508161339b8461332a565b93905b6133a85750505090565b6133b190612e64565b916133e76133d76133d261188d600a8504946133cc86612400565b90612e82565b61335c565b60f81b6001600160f81b03191690565b821a6133f3848661336d565b53918261339e565b92613407600a91612fd7565b93048061338c565b5060405161341c816105cb565b60018152600360fc1b602082015290565b90939290916001600160a01b0385168061344a575b505050505050565b81516001036134735750936020806134689601519201519233613dd9565b388080808080613442565b8594919293943b61348a575b505050505050613468565b6134b39360006020946040519687958694859363bc197c8160e01b9b8c86523360048701613cb8565b03925af16000918161353d575b506134ff57826134ce613cea565b80519190826134f857604051632bfa23e760e11b81526001600160a01b0383166004820152602490fd5b9050602001fd5b6001600160e01b0319160361351a575038808080808061347f565b604051632bfa23e760e11b81526001600160a01b03919091166004820152602490fd5b61356091925060203d602011613567575b61355881836105e6565b810190613c58565b90386134c0565b503d61354e565b600a9060405160208101914483524260408301526001600160601b03199060601b166060820152605481526135a281610575565b5190200680156135af5790565b50600590565b6001600160a01b03811692918315611d57576135f0604051916001835260208301526040820190600182526001606084015260808301604052565b9093600185511460001461361257506020806106149501519101519133613d7e565b919392843b613623575b5050505050565b61364b92602092600060405180968195829463bc197c8160e01b9a8b85523360048601613c6d565b03925af160009181613680575b5061366657826134ce613cea565b6001600160e01b0319160361351a5750388080808061361c565b61369a91925060203d6020116135675761355881836105e6565b9038613658565b906003820180921161241657565b9190820180921161241657565b6040810192916000915b600283106136d357505050565b81516001600160a01b0316815260019290920191602091820191016136c6565b600361398b613923613909611431606061371a6115e48289015160018060a01b0390511690565b5460808801515160ff1688830151519091908390613740906001600160a01b0316612658565b0151898461377661091e82604061376461091e8388015160018060a01b0390511690565b0151940151516001600160a01b031690565b015191613781610616565b93845260ff602085019516855260408401528483015260808201526137af6115e4611431858c015160200190565b54906137c261183c60808c015160200190565b8a856137d7610ec86114318385015160200190565b015160ff8761380661091e6114318360406137fb61091e611431848c015160200190565b015197015160200190565b015193613811610616565b968752166020860152604085015285840152608083015283613831610630565b600081526000602082015280945160018114808091613c4a575b15613a46575050508101516040830151116139905750508188015151600080516020613e748339815191529161389d9161388f908b906001600160a01b0316612d1d565b505b604051918291826136bc565b0390a1600060808801515260006138b8608089015160200190565b526138c7876040810151612fe6565b613931818860026139296139236139096138f36138ee8787015160018060a01b0390511690565b61356e565b949095015151939485946001600160a01b031690565b6001600160a01b03166000908152600c6020526040902090565b5461197e565b500155612e56565b8782015151879061394e90613923906001600160a01b0316613909565b500155613982818860026139296139236139096114316139776138ee6114318989015160200190565b968796015160200190565b96015160200190565b500155565b81840151604082015181106139cf5750505061389d600080516020613e74833981519152916139c98a61143e6114318783015160200190565b50613891565b60029350613a118285926139f58d6139eb613a1d989751611e43565b5001918254612e82565b905586810151613a098d6139eb8751611e43565b905551611e43565b5001613a098154612e73565b5001613a298154612e73565b9055600080516020613e7483398151915261389d82890151613891565b9361389d959185600080516020613e74833981519152989690613c3c575b15613b2857508d613a7e60408401516080850151906136af565b8583015190929091838310613aac5795860151516139c99695506001600160a01b0316935061143e92505050565b600296613ae6968895613a11958060808a015111600014613af957505050505060408401515b8f613add8651611e43565b50015551611e43565b5001613af281546136a1565b9055613891565b613b2393613b0d61143192613b1694612e82565b95015160200190565b6001600160a01b03169052565b613ad2565b9350916002809414808091613c2e575b15613be857508d613b5260408501516080860151906136af565b838a015190949091858310613b7c579450505050506139c9915061143e6114318783015160200190565b613bb7958794613bab948d81608087015111600014613bc357505050505060408101515b8f613add8351611e43565b5001613a0981546136a1565b5001613af28154612e73565b613bd3613b1692613be395612e82565b940151516001600160a01b031690565b613ba0565b905080613c21575b613bfd575b505050613891565b82613bab613c0b9351611e43565b5001613c1781546136a1565b9055388080613bf5565b5082602082015114613bf0565b506001602084015114613b38565b506002602084015114613a64565b50600160208701511461384b565b908160209103126102fc57516106c9816104df565b92613c9c6106c99593613caa9360018060a01b031686526000602087015260a0604087015260a0860190610d16565b908482036060860152610d16565b91608081840391015261039b565b93906106c99593613c9c91613caa9460018060a01b03809216885216602087015260a0604087015260a0860190610d16565b3d15613d15573d90613cfb8261063d565b91613d0960405193846105e6565b82523d6000602084013e565b606090565b909260a0926106c99594600180861b031683526000602084015260408301526060820152816080820152019061039b565b91926106c995949160a094600180871b03809216855216602084015260408301526060820152816080820152019061039b565b9293919093843b613d90575050505050565b602091613db3604051948593849363f23a6e6160e01b9889865260048601613d1a565b038160006001600160a01b0388165af160009181613680575061366657826134ce613cea565b939290949194853b613ded57505050505050565b613e10602093604051958694859463f23a6e6160e01b998a875260048701613d4b565b038160006001600160a01b0388165af160009181613e52575b50613e3757826134ce613cea565b6001600160e01b0319160361351a5750388080808080613442565b613e6c91925060203d6020116135675761355881836105e6565b9038613e2956fec6bf860cbc15f7020f73993a671f01bbb1831a8a7a12c126ca735eb632e75775a264697066735822122054b1dd0e03812f38405536fe4dc73152b0929b6ed9cd0264aa74cff68c49d20f64736f6c63430008180033405787fa12a823e0f2b7631cc41b3ba8828b3321ca811111fa75cd3aa3bb5ace","opcodes":"PUSH1 0x80 PUSH1 0x40 MSTORE CALLVALUE PUSH3 0xAE7 JUMPI PUSH3 0x4A55 DUP1 CODESIZE SUB DUP1 PUSH3 0x1D DUP2 PUSH3 0xB2C JUMP JUMPDEST SWAP3 DUP4 CODECOPY DUP2 ADD SWAP1 PUSH1 0x20 DUP2 DUP4 SUB SLT PUSH3 0xAE7 JUMPI DUP1 MLOAD SWAP1 PUSH1 0x1 PUSH1 0x1 PUSH1 0x40 SHL SUB DUP3 GT PUSH3 0xAE7 JUMPI ADD DUP2 PUSH1 0x1F DUP3 ADD SLT ISZERO PUSH3 0xAE7 JUMPI DUP1 MLOAD SWAP1 PUSH1 0x1 PUSH1 0x1 PUSH1 0x40 SHL SUB DUP3 GT PUSH3 0x73A JUMPI PUSH3 0x74 PUSH1 0x1F DUP4 ADD PUSH1 0x1F NOT AND PUSH1 0x20 ADD PUSH3 0xB2C JUMP JUMPDEST SWAP3 DUP3 DUP5 MSTORE PUSH1 0x20 DUP4 DUP4 ADD ADD GT PUSH3 0xAE7 JUMPI PUSH1 0x0 JUMPDEST DUP3 DUP2 LT PUSH3 0xAD1 JUMPI PUSH1 0x0 DUP4 DUP6 ADD PUSH1 0x20 ADD MSTORE DUP4 MLOAD DUP5 SWAP1 PUSH1 0x1 PUSH1 0x1 PUSH1 0x40 SHL SUB DUP2 GT PUSH3 0x73A JUMPI PUSH1 0x2 SLOAD PUSH1 0x1 DUP2 DUP2 SHR SWAP2 AND DUP1 ISZERO PUSH3 0xAC6 JUMPI JUMPDEST PUSH1 0x20 DUP3 LT EQ PUSH3 0x719 JUMPI PUSH1 0x1F DUP2 GT PUSH3 0xA84 JUMPI JUMPDEST POP DUP1 PUSH1 0x20 PUSH1 0x1F DUP3 GT PUSH1 0x1 EQ PUSH3 0xA0C JUMPI PUSH1 0x0 SWAP2 PUSH3 0xA00 JUMPI JUMPDEST POP DUP2 PUSH1 0x1 SHL SWAP2 PUSH1 0x0 NOT SWAP1 PUSH1 0x3 SHL SHR NOT AND OR PUSH1 0x2 SSTORE JUMPDEST CALLER ISZERO PUSH3 0x9E7 JUMPI PUSH1 0x3 DUP1 SLOAD CALLER PUSH1 0x1 PUSH1 0x1 PUSH1 0xA0 SHL SUB NOT DUP3 AND DUP2 OR SWAP1 SWAP3 SSTORE PUSH1 0x1 PUSH1 0x1 PUSH1 0xA0 SHL SUB AND PUSH32 0x8BE0079C531659141344CD1FD0A4F28419497F9722A3DAAFE3B4186F6B6457E0 PUSH1 0x0 DUP1 LOG3 DUP1 MLOAD PUSH1 0x1 PUSH1 0x1 PUSH1 0x40 SHL SUB DUP2 GT PUSH3 0x73A JUMPI PUSH1 0x6 SLOAD PUSH1 0x1 DUP2 DUP2 SHR SWAP2 AND DUP1 ISZERO PUSH3 0x9DC JUMPI JUMPDEST PUSH1 0x20 DUP3 LT EQ PUSH3 0x719 JUMPI PUSH1 0x1F DUP2 GT PUSH3 0x989 JUMPI JUMPDEST POP PUSH1 0x20 SWAP2 PUSH1 0x1F DUP3 GT PUSH1 0x1 EQ PUSH3 0x91F JUMPI SWAP2 DUP2 SWAP3 PUSH1 0x0 SWAP3 PUSH3 0x913 JUMPI JUMPDEST POP POP DUP2 PUSH1 0x1 SHL SWAP2 PUSH1 0x0 NOT SWAP1 PUSH1 0x3 SHL SHR NOT AND OR PUSH1 0x6 SSTORE JUMPDEST PUSH1 0x40 MLOAD PUSH1 0x80 DUP2 ADD PUSH1 0x1 PUSH1 0x1 PUSH1 0x40 SHL SUB DUP2 GT DUP3 DUP3 LT OR PUSH3 0x73A JUMPI PUSH1 0x40 MSTORE PUSH3 0x1D9 PUSH3 0xB0C JUMP JUMPDEST PUSH1 0x0 DUP2 MSTORE DUP2 MSTORE PUSH1 0x20 DUP2 ADD SWAP1 PUSH1 0x0 DUP3 MSTORE PUSH1 0x40 DUP2 ADD PUSH1 0x0 DUP2 MSTORE PUSH1 0x60 DUP3 ADD SWAP1 PUSH1 0x0 DUP3 MSTORE PUSH1 0x9 SLOAD PUSH9 0x10000000000000000 DUP2 LT ISZERO PUSH3 0x73A JUMPI PUSH1 0x1 DUP2 ADD DUP1 PUSH1 0x9 SSTORE DUP2 LT ISZERO PUSH3 0x766 JUMPI PUSH1 0x9 PUSH1 0x0 MSTORE SWAP3 MLOAD DUP1 MLOAD SWAP5 PUSH1 0x2 SWAP5 SWAP1 SWAP5 SHL PUSH32 0x6E1540171B6C0C960B71A7020D9F60077F6AF931A8BBF590DA0223DACF75C7AF ADD SWAP4 SWAP1 PUSH1 0x1 PUSH1 0x1 PUSH1 0x40 SHL SUB DUP7 GT PUSH3 0x73A JUMPI DUP5 SLOAD PUSH1 0x1 DUP2 DUP2 SHR SWAP2 AND DUP1 ISZERO PUSH3 0x908 JUMPI JUMPDEST PUSH1 0x20 DUP3 LT EQ PUSH3 0x719 JUMPI PUSH1 0x1F DUP2 GT PUSH3 0x8D2 JUMPI JUMPDEST POP PUSH1 0x20 SWAP1 PUSH1 0x1F DUP8 GT PUSH1 0x1 EQ PUSH3 0x863 JUMPI SWAP6 DUP1 SWAP2 PUSH1 0x3 SWAP7 SWAP8 PUSH1 0x0 SWAP3 PUSH3 0x857 JUMPI JUMPDEST POP POP DUP2 PUSH1 0x1 SHL SWAP2 PUSH1 0x0 NOT SWAP1 DUP8 SHL SHR NOT AND OR DUP6 SSTORE JUMPDEST MLOAD PUSH1 0x1 DUP6 ADD SSTORE MLOAD PUSH1 0x2 DUP5 ADD SSTORE MLOAD SWAP2 ADD SSTORE PUSH1 0x40 MLOAD PUSH1 0xA0 DUP2 ADD PUSH1 0x1 PUSH1 0x1 PUSH1 0x40 SHL SUB DUP2 GT DUP3 DUP3 LT OR PUSH3 0x73A JUMPI PUSH1 0x40 MSTORE PUSH1 0x0 DUP2 MSTORE PUSH3 0x2F5 PUSH3 0xB0C JUMP JUMPDEST SWAP1 PUSH1 0x0 DUP3 MSTORE PUSH1 0x20 DUP2 ADD SWAP2 DUP3 MSTORE PUSH1 0x0 PUSH1 0x40 DUP3 ADD MSTORE PUSH1 0x0 PUSH1 0x60 DUP3 ADD MSTORE PUSH1 0x0 PUSH1 0x80 DUP3 ADD MSTORE PUSH1 0x8 SLOAD SWAP2 PUSH9 0x10000000000000000 DUP4 LT ISZERO PUSH3 0x73A JUMPI PUSH1 0x1 DUP4 ADD DUP1 PUSH1 0x8 SSTORE DUP4 LT ISZERO PUSH3 0x766 JUMPI PUSH1 0x8 PUSH1 0x0 MSTORE DUP2 MLOAD PUSH1 0x5 DUP5 MUL PUSH32 0xF3F7A9FE364FAAB93B216DA50A3214154F22A0A2B415B23A84C8169E8B636EE3 SWAP1 DUP2 ADD DUP1 SLOAD PUSH1 0x1 PUSH1 0x1 PUSH1 0xA0 SHL SUB NOT AND PUSH1 0x1 PUSH1 0x1 PUSH1 0xA0 SHL SUB SWAP4 SWAP1 SWAP4 AND SWAP3 SWAP1 SWAP3 OR SWAP1 SWAP2 SSTORE SWAP1 MLOAD DUP1 MLOAD SWAP1 SWAP4 SWAP1 PUSH1 0x1 PUSH1 0x1 PUSH1 0x40 SHL SUB DUP2 GT PUSH3 0x73A JUMPI PUSH1 0x1 PUSH1 0x5 DUP4 MUL DUP5 ADD ADD SLOAD PUSH1 0x1 DUP2 DUP2 SHR SWAP2 AND DUP1 ISZERO PUSH3 0x84C JUMPI JUMPDEST PUSH1 0x20 DUP3 LT EQ PUSH3 0x719 JUMPI PUSH1 0x1F DUP2 GT PUSH3 0x80E JUMPI JUMPDEST POP PUSH1 0x20 PUSH1 0x1F DUP3 GT PUSH1 0x1 EQ PUSH3 0x788 JUMPI SWAP2 DUP2 PUSH1 0x5 SWAP3 PUSH1 0x4 SWAP6 SWAP5 PUSH1 0x80 SWAP8 SWAP9 PUSH1 0x0 SWAP3 PUSH3 0x77C JUMPI JUMPDEST POP POP DUP2 PUSH1 0x1 SHL SWAP2 PUSH1 0x0 NOT SWAP1 PUSH1 0x3 SHL SHR NOT AND OR PUSH1 0x1 DUP4 DUP4 MUL DUP6 ADD ADD SSTORE JUMPDEST PUSH1 0x40 DUP7 ADD MLOAD PUSH1 0x2 DUP4 DUP4 MUL DUP6 ADD ADD SSTORE PUSH1 0x60 DUP7 ADD MLOAD PUSH1 0x3 DUP4 DUP4 MUL DUP6 ADD ADD SSTORE MUL ADD ADD SWAP2 ADD MLOAD ISZERO ISZERO PUSH1 0xFF DUP1 NOT DUP4 SLOAD AND SWAP2 AND OR SWAP1 SSTORE PUSH3 0x448 PUSH3 0xAEC JUMP JUMPDEST PUSH1 0x0 DUP2 MSTORE PUSH1 0x0 PUSH1 0x20 DUP3 ADD MSTORE PUSH3 0x45D PUSH3 0xAEC JUMP JUMPDEST PUSH1 0x0 DUP1 DUP3 MSTORE PUSH1 0x20 DUP3 ADD MSTORE PUSH1 0x40 MLOAD SWAP2 PUSH1 0x1 PUSH1 0x1 PUSH1 0x40 SHL SUB PUSH1 0xC0 DUP5 ADD SWAP1 DUP2 GT SWAP1 DUP5 GT OR PUSH3 0x73A JUMPI PUSH1 0xC0 DUP4 ADD PUSH1 0x40 MSTORE PUSH1 0x0 DUP4 MSTORE PUSH1 0x0 PUSH1 0x20 DUP5 ADD MSTORE PUSH3 0x49F PUSH3 0xB0C JUMP JUMPDEST PUSH1 0x0 DUP2 MSTORE PUSH1 0x40 DUP5 ADD MSTORE PUSH1 0x60 DUP4 ADD MSTORE PUSH1 0x80 DUP3 ADD MSTORE PUSH1 0x0 PUSH1 0xA0 DUP3 ADD MSTORE PUSH1 0xA SLOAD SWAP1 PUSH9 0x10000000000000000 DUP3 LT ISZERO PUSH3 0x73A JUMPI PUSH1 0x1 DUP3 ADD DUP1 PUSH1 0xA SSTORE DUP3 LT ISZERO PUSH3 0x766 JUMPI PUSH1 0xA PUSH1 0x0 MSTORE DUP1 MLOAD PUSH32 0xC65A7BB8D6351C1CF70C95A316CC6A92839C986682D98BC35F958F4883F9D2A8 SWAP1 PUSH1 0x3 DUP2 LT ISZERO PUSH3 0x750 JUMPI PUSH1 0x7 DUP5 MUL DUP3 ADD DUP1 SLOAD PUSH1 0xFF NOT AND PUSH1 0xFF SWAP3 SWAP1 SWAP3 AND SWAP2 SWAP1 SWAP2 OR DUP2 SSTORE PUSH1 0x20 DUP4 ADD MLOAD PUSH1 0x1 DUP3 ADD SSTORE PUSH1 0x40 DUP4 ADD MLOAD DUP1 MLOAD PUSH1 0x2 SWAP1 SWAP3 ADD SWAP2 SWAP1 PUSH1 0x1 PUSH1 0x1 PUSH1 0x40 SHL SUB DUP3 GT PUSH3 0x73A JUMPI DUP3 SLOAD SWAP1 PUSH1 0x1 DUP3 DUP2 SHR SWAP3 AND DUP1 ISZERO PUSH3 0x72F JUMPI JUMPDEST PUSH1 0x20 DUP4 LT EQ PUSH3 0x719 JUMPI DUP2 PUSH1 0x1F DUP5 SWAP4 GT PUSH3 0x6D7 JUMPI JUMPDEST POP PUSH1 0x20 SWAP1 PUSH1 0x1F DUP4 GT PUSH1 0x1 EQ PUSH3 0x66C JUMPI PUSH1 0x0 SWAP3 PUSH3 0x660 JUMPI JUMPDEST POP POP DUP2 PUSH1 0x1 SHL SWAP2 PUSH1 0x0 NOT SWAP1 PUSH1 0x3 SHL SHR NOT AND OR SWAP1 SSTORE JUMPDEST PUSH1 0x60 DUP3 ADD MLOAD PUSH1 0x0 JUMPDEST PUSH1 0x2 DUP2 LT PUSH3 0x63A JUMPI POP POP PUSH1 0x80 DUP3 ADD MLOAD SWAP3 PUSH1 0x0 SWAP4 PUSH1 0x0 JUMPDEST PUSH1 0x2 DUP2 LT PUSH3 0x615 JUMPI PUSH1 0x7 DUP4 MUL DUP5 ADD PUSH1 0x5 DUP2 ADD DUP8 SWAP1 SSTORE PUSH1 0xA0 DUP7 ADD MLOAD PUSH1 0x6 SWAP2 SWAP1 SWAP2 ADD DUP1 SLOAD PUSH1 0x1 PUSH1 0x1 PUSH1 0xA0 SHL SUB NOT AND PUSH1 0x1 PUSH1 0x1 PUSH1 0xA0 SHL SUB SWAP3 SWAP1 SWAP3 AND SWAP2 SWAP1 SWAP2 OR SWAP1 SSTORE PUSH1 0x40 MLOAD PUSH2 0x3EC9 SWAP1 DUP2 PUSH3 0xB6C DUP3 CODECOPY RETURN JUMPDEST SWAP1 SWAP5 PUSH1 0x20 PUSH1 0x1 SWAP2 PUSH1 0xFF DUP9 MLOAD AND SWAP1 PUSH1 0xFF DUP6 PUSH1 0x3 SHL SWAP3 DUP4 SHL SWAP3 SHL NOT AND OR SWAP7 ADD SWAP2 ADD PUSH3 0x5C6 JUMP JUMPDEST DUP2 MLOAD PUSH1 0x1 PUSH1 0x1 PUSH1 0xA0 SHL SUB AND PUSH1 0x3 PUSH1 0x7 DUP8 MUL DUP6 ADD DUP4 ADD ADD SSTORE PUSH1 0x20 SWAP1 SWAP2 ADD SWAP1 PUSH1 0x1 ADD PUSH3 0x5AF JUMP JUMPDEST ADD MLOAD SWAP1 POP DUP7 DUP1 PUSH3 0x592 JUMP JUMPDEST PUSH1 0x0 DUP6 DUP2 MSTORE PUSH1 0x20 DUP2 KECCAK256 SWAP4 POP PUSH1 0x1F NOT DUP6 AND SWAP1 JUMPDEST DUP2 DUP2 LT PUSH3 0x6BE JUMPI POP SWAP1 DUP5 PUSH1 0x1 SWAP6 SWAP5 SWAP4 SWAP3 LT PUSH3 0x6A4 JUMPI JUMPDEST POP POP POP DUP2 SHL ADD SWAP1 SSTORE PUSH3 0x5A7 JUMP JUMPDEST ADD MLOAD PUSH1 0x0 NOT PUSH1 0xF8 DUP5 PUSH1 0x3 SHL AND SHR NOT AND SWAP1 SSTORE DUP7 DUP1 DUP1 PUSH3 0x696 JUMP JUMPDEST SWAP3 SWAP4 PUSH1 0x20 PUSH1 0x1 DUP2 SWAP3 DUP8 DUP7 ADD MLOAD DUP2 SSTORE ADD SWAP6 ADD SWAP4 ADD PUSH3 0x67E JUMP JUMPDEST PUSH3 0x707 SWAP1 DUP6 PUSH1 0x0 MSTORE PUSH1 0x20 PUSH1 0x0 KECCAK256 PUSH1 0x1F DUP6 ADD PUSH1 0x5 SHR DUP2 ADD SWAP2 PUSH1 0x20 DUP7 LT PUSH3 0x70E JUMPI JUMPDEST PUSH1 0x1F ADD PUSH1 0x5 SHR ADD SWAP1 PUSH3 0xB52 JUMP JUMPDEST DUP8 PUSH3 0x579 JUMP JUMPDEST SWAP1 SWAP2 POP DUP2 SWAP1 PUSH3 0x6F9 JUMP JUMPDEST PUSH4 0x4E487B71 PUSH1 0xE0 SHL PUSH1 0x0 MSTORE PUSH1 0x22 PUSH1 0x4 MSTORE PUSH1 0x24 PUSH1 0x0 REVERT JUMPDEST SWAP2 PUSH1 0x7F AND SWAP2 PUSH3 0x563 JUMP JUMPDEST PUSH4 0x4E487B71 PUSH1 0xE0 SHL PUSH1 0x0 MSTORE PUSH1 0x41 PUSH1 0x4 MSTORE PUSH1 0x24 PUSH1 0x0 REVERT JUMPDEST PUSH4 0x4E487B71 PUSH1 0xE0 SHL PUSH1 0x0 MSTORE PUSH1 0x21 PUSH1 0x4 MSTORE PUSH1 0x24 PUSH1 0x0 REVERT JUMPDEST PUSH4 0x4E487B71 PUSH1 0xE0 SHL PUSH1 0x0 MSTORE PUSH1 0x32 PUSH1 0x4 MSTORE PUSH1 0x24 PUSH1 0x0 REVERT JUMPDEST ADD MLOAD SWAP1 POP DUP9 DUP1 PUSH3 0x3F2 JUMP JUMPDEST PUSH1 0x1 PUSH1 0x5 DUP5 MUL DUP6 ADD ADD PUSH1 0x0 MSTORE PUSH1 0x20 PUSH1 0x0 KECCAK256 SWAP6 PUSH1 0x0 JUMPDEST PUSH1 0x1F NOT DUP5 AND DUP2 LT PUSH3 0x7F5 JUMPI POP DUP3 PUSH1 0x80 SWAP7 SWAP8 PUSH1 0x4 SWAP7 SWAP6 SWAP4 PUSH1 0x1 SWAP4 PUSH1 0x5 SWAP7 PUSH1 0x1F NOT DUP2 AND LT PUSH3 0x7DB JUMPI JUMPDEST POP POP POP DUP2 SHL ADD PUSH1 0x1 DUP4 DUP4 MUL DUP6 ADD ADD SSTORE PUSH3 0x40E JUMP JUMPDEST ADD MLOAD PUSH1 0x0 NOT PUSH1 0xF8 DUP5 PUSH1 0x3 SHL AND SHR NOT AND SWAP1 SSTORE DUP9 DUP1 DUP1 PUSH3 0x7C6 JUMP JUMPDEST DUP3 DUP3 ADD MLOAD DUP9 SSTORE PUSH1 0x1 SWAP1 SWAP8 ADD SWAP7 PUSH1 0x20 SWAP3 DUP4 ADD SWAP3 ADD PUSH3 0x79D JUMP JUMPDEST PUSH3 0x845 SWAP1 PUSH1 0x1 PUSH1 0x5 DUP6 MUL DUP7 ADD ADD PUSH1 0x0 MSTORE PUSH1 0x20 PUSH1 0x0 KECCAK256 PUSH1 0x1F DUP5 ADD PUSH1 0x5 SHR DUP2 ADD SWAP2 PUSH1 0x20 DUP6 LT PUSH3 0x70E JUMPI PUSH1 0x1F ADD PUSH1 0x5 SHR ADD SWAP1 PUSH3 0xB52 JUMP JUMPDEST DUP6 PUSH3 0x3CD JUMP JUMPDEST SWAP1 PUSH1 0x7F AND SWAP1 PUSH3 0x3B9 JUMP JUMPDEST ADD MLOAD SWAP1 POP DUP8 DUP1 PUSH3 0x2A6 JUMP JUMPDEST SWAP1 PUSH1 0x1F NOT DUP8 AND SWAP2 DUP7 PUSH1 0x0 MSTORE PUSH1 0x20 PUSH1 0x0 KECCAK256 SWAP3 PUSH1 0x0 JUMPDEST DUP2 DUP2 LT PUSH3 0x8B9 JUMPI POP SWAP2 PUSH1 0x1 SWAP4 SWAP2 DUP10 PUSH1 0x3 SWAP10 SWAP11 SWAP5 LT PUSH3 0x8A0 JUMPI JUMPDEST POP POP POP DUP2 SHL ADD DUP6 SSTORE PUSH3 0x2BA JUMP JUMPDEST ADD MLOAD PUSH1 0x0 NOT DUP4 DUP10 SHL PUSH1 0xF8 AND SHR NOT AND SWAP1 SSTORE DUP8 DUP1 DUP1 PUSH3 0x892 JUMP JUMPDEST SWAP3 SWAP4 PUSH1 0x20 PUSH1 0x1 DUP2 SWAP3 DUP8 DUP7 ADD MLOAD DUP2 SSTORE ADD SWAP6 ADD SWAP4 ADD PUSH3 0x877 JUMP JUMPDEST PUSH3 0x901 SWAP1 DUP7 PUSH1 0x0 MSTORE PUSH1 0x20 PUSH1 0x0 KECCAK256 PUSH1 0x1F DUP10 ADD PUSH1 0x5 SHR DUP2 ADD SWAP2 PUSH1 0x20 DUP11 LT PUSH3 0x70E JUMPI PUSH1 0x1F ADD PUSH1 0x5 SHR ADD SWAP1 PUSH3 0xB52 JUMP JUMPDEST DUP7 PUSH3 0x286 JUMP JUMPDEST SWAP1 PUSH1 0x7F AND SWAP1 PUSH3 0x272 JUMP JUMPDEST ADD MLOAD SWAP1 POP DUP3 DUP1 PUSH3 0x19C JUMP JUMPDEST PUSH1 0x1F NOT DUP3 AND SWAP3 PUSH1 0x6 PUSH1 0x0 MSTORE PUSH1 0x20 PUSH1 0x0 KECCAK256 SWAP2 PUSH1 0x0 JUMPDEST DUP6 DUP2 LT PUSH3 0x970 JUMPI POP DUP4 PUSH1 0x1 SWAP6 LT PUSH3 0x956 JUMPI JUMPDEST POP POP POP DUP2 SHL ADD PUSH1 0x6 SSTORE PUSH3 0x1B2 JUMP JUMPDEST ADD MLOAD PUSH1 0x0 NOT PUSH1 0xF8 DUP5 PUSH1 0x3 SHL AND SHR NOT AND SWAP1 SSTORE DUP3 DUP1 DUP1 PUSH3 0x947 JUMP JUMPDEST SWAP2 SWAP3 PUSH1 0x20 PUSH1 0x1 DUP2 SWAP3 DUP7 DUP6 ADD MLOAD DUP2 SSTORE ADD SWAP5 ADD SWAP3 ADD PUSH3 0x933 JUMP JUMPDEST PUSH1 0x6 PUSH1 0x0 MSTORE PUSH3 0x9D5 SWAP1 PUSH32 0xF652222313E28459528D920B65115C16C04F3EFC82AAEDC97BE59F3F377C0D3F PUSH1 0x1F DUP5 ADD PUSH1 0x5 SHR DUP2 ADD SWAP2 PUSH1 0x20 DUP6 LT PUSH3 0x70E JUMPI PUSH1 0x1F ADD PUSH1 0x5 SHR ADD SWAP1 PUSH3 0xB52 JUMP JUMPDEST DUP3 PUSH3 0x180 JUMP JUMPDEST SWAP1 PUSH1 0x7F AND SWAP1 PUSH3 0x16C JUMP JUMPDEST PUSH1 0x40 MLOAD PUSH4 0x1E4FBDF7 PUSH1 0xE0 SHL DUP2 MSTORE PUSH1 0x0 PUSH1 0x4 DUP3 ADD MSTORE PUSH1 0x24 SWAP1 REVERT JUMPDEST SWAP1 POP DUP3 ADD MLOAD DUP4 PUSH3 0xEA JUMP JUMPDEST PUSH1 0x2 PUSH1 0x0 SWAP1 DUP2 MSTORE PUSH1 0x0 DUP1 MLOAD PUSH1 0x20 PUSH3 0x4A35 DUP4 CODECOPY DUP2 MLOAD SWAP2 MSTORE SWAP3 POP PUSH1 0x1F NOT DUP5 AND SWAP1 JUMPDEST DUP2 DUP2 LT PUSH3 0xA6B JUMPI POP SWAP1 DUP4 PUSH1 0x1 SWAP5 SWAP4 SWAP3 LT PUSH3 0xA51 JUMPI JUMPDEST POP POP DUP2 SHL ADD PUSH1 0x2 SSTORE PUSH3 0xFF JUMP JUMPDEST DUP5 ADD MLOAD PUSH1 0x0 NOT PUSH1 0xF8 DUP5 PUSH1 0x3 SHL AND SHR NOT AND SWAP1 SSTORE DUP4 DUP1 PUSH3 0xA43 JUMP JUMPDEST SWAP2 SWAP3 PUSH1 0x20 PUSH1 0x1 DUP2 SWAP3 DUP7 DUP10 ADD MLOAD DUP2 SSTORE ADD SWAP5 ADD SWAP3 ADD PUSH3 0xA2C JUMP JUMPDEST PUSH1 0x2 PUSH1 0x0 MSTORE PUSH3 0xABF SWAP1 PUSH1 0x0 DUP1 MLOAD PUSH1 0x20 PUSH3 0x4A35 DUP4 CODECOPY DUP2 MLOAD SWAP2 MSTORE PUSH1 0x1F DUP5 ADD PUSH1 0x5 SHR DUP2 ADD SWAP2 PUSH1 0x20 DUP6 LT PUSH3 0x70E JUMPI PUSH1 0x1F ADD PUSH1 0x5 SHR ADD SWAP1 PUSH3 0xB52 JUMP JUMPDEST DUP3 PUSH3 0xD1 JUMP JUMPDEST SWAP1 PUSH1 0x7F AND SWAP1 PUSH3 0xBD JUMP JUMPDEST DUP1 PUSH1 0x20 DUP1 SWAP3 DUP5 ADD ADD MLOAD DUP3 DUP3 DUP8 ADD ADD MSTORE ADD PUSH3 0x87 JUMP JUMPDEST PUSH1 0x0 DUP1 REVERT JUMPDEST PUSH1 0x40 DUP1 MLOAD SWAP2 SWAP1 DUP3 ADD PUSH1 0x1 PUSH1 0x1 PUSH1 0x40 SHL SUB DUP2 GT DUP4 DUP3 LT OR PUSH3 0x73A JUMPI PUSH1 0x40 MSTORE JUMP JUMPDEST PUSH1 0x40 MLOAD SWAP1 PUSH1 0x20 DUP3 ADD PUSH1 0x1 PUSH1 0x1 PUSH1 0x40 SHL SUB DUP2 GT DUP4 DUP3 LT OR PUSH3 0x73A JUMPI PUSH1 0x40 MSTORE JUMP JUMPDEST PUSH1 0x40 MLOAD SWAP2 SWAP1 PUSH1 0x1F ADD PUSH1 0x1F NOT AND DUP3 ADD PUSH1 0x1 PUSH1 0x1 PUSH1 0x40 SHL SUB DUP2 GT DUP4 DUP3 LT OR PUSH3 0x73A JUMPI PUSH1 0x40 MSTORE JUMP JUMPDEST DUP2 DUP2 LT PUSH3 0xB5E JUMPI POP POP JUMP JUMPDEST PUSH1 0x0 DUP2 SSTORE PUSH1 0x1 ADD PUSH3 0xB52 JUMP INVALID PUSH1 0x80 PUSH1 0x40 MSTORE PUSH1 0x4 CALLDATASIZE LT ISZERO PUSH2 0x12 JUMPI PUSH1 0x0 DUP1 REVERT JUMPDEST PUSH1 0x0 CALLDATALOAD PUSH1 0xE0 SHR DUP1 PUSH3 0xFDD58E EQ PUSH2 0x2E1 JUMPI DUP1 PUSH4 0x15A3792 EQ PUSH2 0x2DC JUMPI DUP1 PUSH4 0x1FFC9A7 EQ PUSH2 0x2D7 JUMPI DUP1 PUSH4 0x2FE5305 EQ PUSH2 0x2D2 JUMPI DUP1 PUSH4 0x677AA4E EQ PUSH2 0x2CD JUMPI DUP1 PUSH4 0x9C95E10 EQ PUSH2 0x2C8 JUMPI DUP1 PUSH4 0xDAEA2CD EQ PUSH2 0x2C3 JUMPI DUP1 PUSH4 0xE89341C EQ PUSH2 0x2BE JUMPI DUP1 PUSH4 0x10898E4C EQ PUSH2 0x2B9 JUMPI DUP1 PUSH4 0x1107AE3D EQ PUSH2 0x2B4 JUMPI DUP1 PUSH4 0x16801D17 EQ PUSH2 0x2AF JUMPI DUP1 PUSH4 0x18160DDD EQ PUSH2 0x2AA JUMPI DUP1 PUSH4 0x2CA04522 EQ PUSH2 0x2A5 JUMPI DUP1 PUSH4 0x2EB2C2D6 EQ PUSH2 0x2A0 JUMPI DUP1 PUSH4 0x4E1273F4 EQ PUSH2 0x29B JUMPI DUP1 PUSH4 0x4F558E79 EQ PUSH2 0x296 JUMPI DUP1 PUSH4 0x579B526D EQ PUSH2 0x237 JUMPI DUP1 PUSH4 0x5C12CD4B EQ PUSH2 0x291 JUMPI DUP1 PUSH4 0x5C93FC3D EQ PUSH2 0x28C JUMPI DUP1 PUSH4 0x606D2E96 EQ PUSH2 0x287 JUMPI DUP1 PUSH4 0x6C0360EB EQ PUSH2 0x282 JUMPI DUP1 PUSH4 0x703730A5 EQ PUSH2 0x27D JUMPI DUP1 PUSH4 0x715018A6 EQ PUSH2 0x278 JUMPI DUP1 PUSH4 0x845F433B EQ PUSH2 0x273 JUMPI DUP1 PUSH4 0x8DA5CB5B EQ PUSH2 0x26E JUMPI DUP1 PUSH4 0x996D7BEA EQ PUSH2 0x269 JUMPI DUP1 PUSH4 0x9B09CC87 EQ PUSH2 0x264 JUMPI DUP1 PUSH4 0x9E4ECD11 EQ PUSH2 0x25F JUMPI DUP1 PUSH4 0x9EC40AA3 EQ PUSH2 0x25A JUMPI DUP1 PUSH4 0xA1B4F57C EQ PUSH2 0x255 JUMPI DUP1 PUSH4 0xA22CB465 EQ PUSH2 0x250 JUMPI DUP1 PUSH4 0xBA274956 EQ PUSH2 0x24B JUMPI DUP1 PUSH4 0xBD85B039 EQ PUSH2 0x246 JUMPI DUP1 PUSH4 0xBF034B69 EQ PUSH2 0x241 JUMPI DUP1 PUSH4 0xBF103A4D EQ PUSH2 0x23C JUMPI DUP1 PUSH4 0xC4E41B22 EQ PUSH2 0x237 JUMPI DUP1 PUSH4 0xC87B56DD EQ PUSH2 0x232 JUMPI DUP1 PUSH4 0xD2198CC5 EQ PUSH2 0x22D JUMPI DUP1 PUSH4 0xDE96CEFC EQ PUSH2 0x228 JUMPI DUP1 PUSH4 0xE985E9C5 EQ PUSH2 0x223 JUMPI DUP1 PUSH4 0xEFA1C482 EQ PUSH2 0x21E JUMPI DUP1 PUSH4 0xF1DA7339 EQ PUSH2 0x219 JUMPI DUP1 PUSH4 0xF242432A EQ PUSH2 0x214 JUMPI DUP1 PUSH4 0xF2FDE38B EQ PUSH2 0x20F JUMPI PUSH4 0xF71D96CB EQ PUSH2 0x20A JUMPI PUSH1 0x0 DUP1 REVERT JUMPDEST PUSH2 0x1E62 JUMP JUMPDEST PUSH2 0x1DBB JUMP JUMPDEST PUSH2 0x1C9E JUMP JUMPDEST PUSH2 0x1C82 JUMP JUMPDEST PUSH2 0x1B9A JUMP JUMPDEST PUSH2 0x1B3D JUMP JUMPDEST PUSH2 0x1B21 JUMP JUMPDEST PUSH2 0x1B05 JUMP JUMPDEST PUSH2 0x1A2E JUMP JUMPDEST PUSH2 0xE43 JUMP JUMPDEST PUSH2 0x1A0B JUMP JUMPDEST PUSH2 0x199D JUMP JUMPDEST PUSH2 0x1952 JUMP JUMPDEST PUSH2 0x1749 JUMP JUMPDEST PUSH2 0x168D JUMP JUMPDEST PUSH2 0x1512 JUMP JUMPDEST PUSH2 0x14FC JUMP JUMPDEST PUSH2 0x14E0 JUMP JUMPDEST PUSH2 0x14A2 JUMP JUMPDEST PUSH2 0x13E0 JUMP JUMPDEST PUSH2 0x13B7 JUMP JUMPDEST PUSH2 0x12A0 JUMP JUMPDEST PUSH2 0x1242 JUMP JUMPDEST PUSH2 0x1226 JUMP JUMPDEST PUSH2 0x1177 JUMP JUMPDEST PUSH2 0x10E0 JUMP JUMPDEST PUSH2 0xEE1 JUMP JUMPDEST PUSH2 0xEA9 JUMP JUMPDEST PUSH2 0xE15 JUMP JUMPDEST PUSH2 0xD5B JUMP JUMPDEST PUSH2 0xBEE JUMP JUMPDEST PUSH2 0xA9B JUMP JUMPDEST PUSH2 0xA7D JUMP JUMPDEST PUSH2 0xA50 JUMP JUMPDEST PUSH2 0x937 JUMP JUMPDEST PUSH2 0x8FF JUMP JUMPDEST PUSH2 0x841 JUMP JUMPDEST PUSH2 0x814 JUMP JUMPDEST PUSH2 0x7E7 JUMP JUMPDEST PUSH2 0x7CB JUMP JUMPDEST PUSH2 0x6CC JUMP JUMPDEST PUSH2 0x4F1 JUMP JUMPDEST PUSH2 0x3F4 JUMP JUMPDEST PUSH2 0x32B JUMP JUMPDEST PUSH1 0x4 CALLDATALOAD SWAP1 PUSH1 0x1 PUSH1 0x1 PUSH1 0xA0 SHL SUB DUP3 AND DUP3 SUB PUSH2 0x2FC JUMPI JUMP JUMPDEST PUSH1 0x0 DUP1 REVERT JUMPDEST PUSH1 0x24 CALLDATALOAD SWAP1 PUSH1 0x1 PUSH1 0x1 PUSH1 0xA0 SHL SUB DUP3 AND DUP3 SUB PUSH2 0x2FC JUMPI JUMP JUMPDEST CALLDATALOAD SWAP1 PUSH1 0x1 PUSH1 0x1 PUSH1 0xA0 SHL SUB DUP3 AND DUP3 SUB PUSH2 0x2FC JUMPI JUMP JUMPDEST CALLVALUE PUSH2 0x2FC JUMPI PUSH1 0x40 CALLDATASIZE PUSH1 0x3 NOT ADD SLT PUSH2 0x2FC JUMPI PUSH1 0x20 PUSH2 0x36F PUSH2 0x349 PUSH2 0x2E6 JUMP JUMPDEST PUSH1 0x24 CALLDATALOAD PUSH1 0x0 MSTORE PUSH1 0x0 DUP4 MSTORE PUSH1 0x40 PUSH1 0x0 KECCAK256 SWAP1 PUSH1 0x1 DUP1 PUSH1 0xA0 SHL SUB AND PUSH1 0x0 MSTORE PUSH1 0x20 MSTORE PUSH1 0x40 PUSH1 0x0 KECCAK256 SWAP1 JUMP JUMPDEST SLOAD PUSH1 0x40 MLOAD SWAP1 DUP2 MSTORE RETURN JUMPDEST PUSH1 0x0 JUMPDEST DUP4 DUP2 LT PUSH2 0x38B JUMPI POP POP PUSH1 0x0 SWAP2 ADD MSTORE JUMP JUMPDEST DUP2 DUP2 ADD MLOAD DUP4 DUP3 ADD MSTORE PUSH1 0x20 ADD PUSH2 0x37B JUMP JUMPDEST SWAP1 PUSH1 0x20 SWAP2 PUSH2 0x3B4 DUP2 MLOAD DUP1 SWAP3 DUP2 DUP6 MSTORE DUP6 DUP1 DUP7 ADD SWAP2 ADD PUSH2 0x378 JUMP JUMPDEST PUSH1 0x1F ADD PUSH1 0x1F NOT AND ADD ADD SWAP1 JUMP JUMPDEST SWAP1 PUSH1 0x60 DUP1 PUSH2 0x3D7 DUP5 MLOAD PUSH1 0x80 DUP6 MSTORE PUSH1 0x80 DUP6 ADD SWAP1 PUSH2 0x39B JUMP JUMPDEST SWAP4 PUSH1 0x20 DUP2 ADD MLOAD PUSH1 0x20 DUP6 ADD MSTORE PUSH1 0x40 DUP2 ADD MLOAD PUSH1 0x40 DUP6 ADD MSTORE ADD MLOAD SWAP2 ADD MSTORE SWAP1 JUMP JUMPDEST CALLVALUE PUSH2 0x2FC JUMPI PUSH1 0x0 DUP1 PUSH1 0x3 NOT CALLDATASIZE ADD SLT PUSH2 0x4DC JUMPI PUSH1 0x9 SLOAD PUSH2 0x412 DUP2 PUSH2 0xB77 JUMP JUMPDEST SWAP1 PUSH2 0x420 PUSH1 0x40 MLOAD SWAP3 DUP4 PUSH2 0x5E6 JUMP JUMPDEST DUP1 DUP3 MSTORE PUSH1 0x9 DUP4 MSTORE PUSH1 0x20 SWAP3 DUP4 DUP4 ADD SWAP2 DUP2 PUSH32 0x6E1540171B6C0C960B71A7020D9F60077F6AF931A8BBF590DA0223DACF75C7AF DUP5 JUMPDEST DUP4 DUP4 LT PUSH2 0x4B7 JUMPI POP POP POP POP PUSH1 0x40 MLOAD SWAP3 DUP5 DUP5 ADD SWAP1 DUP6 DUP6 MSTORE MLOAD DUP1 SWAP2 MSTORE PUSH1 0x40 DUP5 ADD SWAP5 PUSH1 0x40 DUP3 PUSH1 0x5 SHL DUP7 ADD ADD SWAP4 SWAP3 SWAP6 JUMPDEST DUP3 DUP8 LT PUSH2 0x48B JUMPI DUP6 DUP6 SUB DUP7 RETURN JUMPDEST SWAP1 SWAP2 SWAP3 SWAP4 DUP3 DUP1 PUSH2 0x4A7 PUSH1 0x1 SWAP4 PUSH1 0x3F NOT DUP11 DUP3 SUB ADD DUP7 MSTORE DUP9 MLOAD PUSH2 0x3C0 JUMP JUMPDEST SWAP7 ADD SWAP3 ADD SWAP7 ADD SWAP6 SWAP3 SWAP2 SWAP1 SWAP3 PUSH2 0x47E JUMP JUMPDEST PUSH1 0x4 DUP9 PUSH1 0x1 SWAP3 PUSH2 0x4CA DUP6 SWAP12 SWAP11 SWAP9 SWAP12 PUSH2 0x1EE8 JUMP JUMPDEST DUP2 MSTORE ADD SWAP3 ADD SWAP3 ADD SWAP2 SWAP1 SWAP7 SWAP4 SWAP6 SWAP7 PUSH2 0x452 JUMP JUMPDEST DUP1 REVERT JUMPDEST PUSH1 0x1 PUSH1 0x1 PUSH1 0xE0 SHL SUB NOT DUP2 AND SUB PUSH2 0x2FC JUMPI JUMP JUMPDEST CALLVALUE PUSH2 0x2FC JUMPI PUSH1 0x20 CALLDATASIZE PUSH1 0x3 NOT ADD SLT PUSH2 0x2FC JUMPI PUSH1 0x20 PUSH1 0x4 CALLDATALOAD PUSH2 0x510 DUP2 PUSH2 0x4DF JUMP JUMPDEST PUSH4 0xFFFFFFFF PUSH1 0xE0 SHL AND PUSH4 0x6CDB3D13 PUSH1 0xE1 SHL DUP2 EQ SWAP1 DUP2 ISZERO PUSH2 0x54E JUMPI JUMPDEST DUP2 ISZERO PUSH2 0x53D JUMPI JUMPDEST POP PUSH1 0x40 MLOAD SWAP1 ISZERO ISZERO DUP2 MSTORE RETURN JUMPDEST PUSH4 0x1FFC9A7 PUSH1 0xE0 SHL EQ SWAP1 POP CODESIZE PUSH2 0x532 JUMP JUMPDEST PUSH4 0x3A24D07 PUSH1 0xE2 SHL DUP2 EQ SWAP2 POP PUSH2 0x52B JUMP JUMPDEST PUSH4 0x4E487B71 PUSH1 0xE0 SHL PUSH1 0x0 MSTORE PUSH1 0x41 PUSH1 0x4 MSTORE PUSH1 0x24 PUSH1 0x0 REVERT JUMPDEST PUSH1 0x80 DUP2 ADD SWAP1 DUP2 LT PUSH1 0x1 PUSH1 0x1 PUSH1 0x40 SHL SUB DUP3 GT OR PUSH2 0x590 JUMPI PUSH1 0x40 MSTORE JUMP JUMPDEST PUSH2 0x55F JUMP JUMPDEST PUSH1 0xC0 DUP2 ADD SWAP1 DUP2 LT PUSH1 0x1 PUSH1 0x1 PUSH1 0x40 SHL SUB DUP3 GT OR PUSH2 0x590 JUMPI PUSH1 0x40 MSTORE JUMP JUMPDEST PUSH1 0xA0 DUP2 ADD SWAP1 DUP2 LT PUSH1 0x1 PUSH1 0x1 PUSH1 0x40 SHL SUB DUP3 GT OR PUSH2 0x590 JUMPI PUSH1 0x40 MSTORE JUMP JUMPDEST PUSH1 0x40 DUP2 ADD SWAP1 DUP2 LT PUSH1 0x1 PUSH1 0x1 PUSH1 0x40 SHL SUB DUP3 GT OR PUSH2 0x590 JUMPI PUSH1 0x40 MSTORE JUMP JUMPDEST SWAP1 PUSH1 0x1F DUP1 NOT SWAP2 ADD AND DUP2 ADD SWAP1 DUP2 LT PUSH1 0x1 PUSH1 0x1 PUSH1 0x40 SHL SUB DUP3 GT OR PUSH2 0x590 JUMPI PUSH1 0x40 MSTORE JUMP JUMPDEST PUSH1 0x40 MLOAD SWAP1 PUSH2 0x614 DUP3 PUSH2 0x595 JUMP JUMPDEST JUMP JUMPDEST PUSH1 0x40 MLOAD SWAP1 PUSH2 0x614 DUP3 PUSH2 0x5B0 JUMP JUMPDEST PUSH1 0x40 MLOAD SWAP1 PUSH2 0x614 DUP3 PUSH2 0x575 JUMP JUMPDEST PUSH1 0x40 MLOAD SWAP1 PUSH2 0x614 DUP3 PUSH2 0x5CB JUMP JUMPDEST PUSH1 0x1 PUSH1 0x1 PUSH1 0x40 SHL SUB DUP2 GT PUSH2 0x590 JUMPI PUSH1 0x1F ADD PUSH1 0x1F NOT AND PUSH1 0x20 ADD SWAP1 JUMP JUMPDEST DUP2 PUSH1 0x1F DUP3 ADD SLT ISZERO PUSH2 0x2FC JUMPI DUP1 CALLDATALOAD SWAP1 PUSH2 0x66F DUP3 PUSH2 0x63D JUMP JUMPDEST SWAP3 PUSH2 0x67D PUSH1 0x40 MLOAD SWAP5 DUP6 PUSH2 0x5E6 JUMP JUMPDEST DUP3 DUP5 MSTORE PUSH1 0x20 DUP4 DUP4 ADD ADD GT PUSH2 0x2FC JUMPI DUP2 PUSH1 0x0 SWAP3 PUSH1 0x20 DUP1 SWAP4 ADD DUP4 DUP7 ADD CALLDATACOPY DUP4 ADD ADD MSTORE SWAP1 JUMP JUMPDEST PUSH1 0x20 PUSH1 0x3 NOT DUP3 ADD SLT PUSH2 0x2FC JUMPI PUSH1 0x4 CALLDATALOAD SWAP1 PUSH1 0x1 PUSH1 0x1 PUSH1 0x40 SHL SUB DUP3 GT PUSH2 0x2FC JUMPI PUSH2 0x6C9 SWAP2 PUSH1 0x4 ADD PUSH2 0x658 JUMP JUMPDEST SWAP1 JUMP JUMPDEST CALLVALUE PUSH2 0x2FC JUMPI PUSH2 0x6DA CALLDATASIZE PUSH2 0x69F JUMP JUMPDEST PUSH2 0x6E2 PUSH2 0x2CAE JUMP JUMPDEST DUP1 MLOAD PUSH1 0x1 PUSH1 0x1 PUSH1 0x40 SHL SUB DUP2 GT PUSH2 0x590 JUMPI PUSH2 0x706 DUP2 PUSH2 0x701 PUSH1 0x2 SLOAD PUSH2 0x1003 JUMP JUMPDEST PUSH2 0x22A2 JUMP JUMPDEST PUSH1 0x20 DUP1 PUSH1 0x1F DUP4 GT PUSH1 0x1 EQ PUSH2 0x748 JUMPI POP DUP2 SWAP1 PUSH2 0x738 SWAP4 PUSH1 0x0 SWAP3 PUSH2 0x73D JUMPI JUMPDEST POP POP DUP2 PUSH1 0x1 SHL SWAP2 PUSH1 0x0 NOT SWAP1 PUSH1 0x3 SHL SHR NOT AND OR SWAP1 JUMP JUMPDEST PUSH1 0x2 SSTORE STOP JUMPDEST ADD MLOAD SWAP1 POP CODESIZE DUP1 PUSH2 0x723 JUMP JUMPDEST PUSH1 0x2 PUSH1 0x0 MSTORE PUSH1 0x1F NOT DUP4 AND SWAP4 SWAP1 SWAP2 SWAP1 PUSH32 0x405787FA12A823E0F2B7631CC41B3BA8828B3321CA811111FA75CD3AA3BB5ACE SWAP3 PUSH1 0x0 SWAP1 JUMPDEST DUP7 DUP3 LT PUSH2 0x7B3 JUMPI POP POP DUP4 PUSH1 0x1 SWAP6 LT PUSH2 0x79A JUMPI JUMPDEST POP POP POP DUP2 SHL ADD PUSH1 0x2 SSTORE STOP JUMPDEST ADD MLOAD PUSH1 0x0 NOT PUSH1 0xF8 DUP5 PUSH1 0x3 SHL AND SHR NOT AND SWAP1 SSTORE CODESIZE DUP1 DUP1 PUSH2 0x78F JUMP JUMPDEST DUP1 PUSH1 0x1 DUP6 SWAP7 DUP3 SWAP5 SWAP7 DUP7 ADD MLOAD DUP2 SSTORE ADD SWAP6 ADD SWAP4 ADD SWAP1 PUSH2 0x77C JUMP JUMPDEST CALLVALUE PUSH2 0x2FC JUMPI PUSH1 0x0 CALLDATASIZE PUSH1 0x3 NOT ADD SLT PUSH2 0x2FC JUMPI PUSH1 0x20 PUSH1 0x40 MLOAD PUSH1 0x3 DUP2 MSTORE RETURN JUMPDEST CALLVALUE PUSH2 0x2FC JUMPI PUSH1 0x20 CALLDATASIZE PUSH1 0x3 NOT ADD SLT PUSH2 0x2FC JUMPI PUSH1 0x20 PUSH2 0x80A PUSH2 0x805 PUSH2 0x2E6 JUMP JUMPDEST PUSH2 0x1F21 JUMP JUMPDEST PUSH1 0x40 MLOAD SWAP1 ISZERO ISZERO DUP2 MSTORE RETURN JUMPDEST CALLVALUE PUSH2 0x2FC JUMPI PUSH1 0x0 CALLDATASIZE PUSH1 0x3 NOT ADD SLT PUSH2 0x2FC JUMPI PUSH1 0x20 PUSH1 0x40 MLOAD PUSH1 0xA DUP2 MSTORE RETURN JUMPDEST SWAP1 PUSH1 0x20 PUSH2 0x6C9 SWAP3 DUP2 DUP2 MSTORE ADD SWAP1 PUSH2 0x39B JUMP JUMPDEST CALLVALUE PUSH2 0x2FC JUMPI PUSH1 0x20 DUP1 PUSH1 0x3 NOT CALLDATASIZE ADD SLT PUSH2 0x2FC JUMPI PUSH1 0x40 MLOAD PUSH1 0x0 SWAP2 PUSH1 0x2 SLOAD PUSH2 0x865 DUP2 PUSH2 0x1003 JUMP JUMPDEST DUP1 DUP5 MSTORE SWAP1 PUSH1 0x1 SWAP1 DUP2 DUP2 AND SWAP1 DUP2 ISZERO PUSH2 0x8DF JUMPI POP PUSH1 0x1 EQ PUSH2 0x89F JUMPI JUMPDEST PUSH2 0x89B DUP5 PUSH2 0x88F DUP2 DUP9 SUB DUP3 PUSH2 0x5E6 JUMP JUMPDEST PUSH1 0x40 MLOAD SWAP2 DUP3 SWAP2 DUP3 PUSH2 0x830 JUMP JUMPDEST SUB SWAP1 RETURN JUMPDEST SWAP2 SWAP4 POP PUSH1 0x2 PUSH1 0x0 MSTORE DUP4 PUSH1 0x0 KECCAK256 SWAP2 PUSH1 0x0 SWAP3 JUMPDEST DUP3 DUP5 LT PUSH2 0x8CC JUMPI POP POP POP DUP2 PUSH2 0x89B SWAP4 PUSH2 0x88F SWAP3 DUP3 ADD ADD SWAP4 PUSH2 0x87F JUMP JUMPDEST DUP1 SLOAD DUP6 DUP6 ADD DUP8 ADD MSTORE SWAP3 DUP6 ADD SWAP3 DUP2 ADD PUSH2 0x8B0 JUMP JUMPDEST PUSH1 0xFF NOT AND DUP6 DUP6 ADD MSTORE POP POP ISZERO ISZERO PUSH1 0x5 SHL DUP3 ADD ADD SWAP2 POP PUSH2 0x88F DUP2 PUSH2 0x89B PUSH2 0x87F JUMP JUMPDEST CALLVALUE PUSH2 0x2FC JUMPI PUSH1 0x20 CALLDATASIZE PUSH1 0x3 NOT ADD SLT PUSH2 0x2FC JUMPI PUSH2 0x89B PUSH2 0x923 PUSH2 0x91E PUSH2 0x2E6 JUMP JUMPDEST PUSH2 0x1F6C JUMP JUMPDEST PUSH1 0x40 MLOAD SWAP2 DUP3 SWAP2 PUSH1 0x20 DUP4 MSTORE PUSH1 0x20 DUP4 ADD SWAP1 PUSH2 0x3C0 JUMP JUMPDEST CALLVALUE PUSH2 0x2FC JUMPI PUSH1 0x20 PUSH2 0x80A PUSH2 0x94A CALLDATASIZE PUSH2 0x69F JUMP JUMPDEST PUSH2 0x2028 JUMP JUMPDEST PUSH1 0x3 GT ISZERO PUSH2 0x959 JUMPI JUMP JUMPDEST PUSH4 0x4E487B71 PUSH1 0xE0 SHL PUSH1 0x0 MSTORE PUSH1 0x21 PUSH1 0x4 MSTORE PUSH1 0x24 PUSH1 0x0 REVERT JUMPDEST SWAP1 PUSH1 0x3 DUP3 LT ISZERO PUSH2 0x959 JUMPI MSTORE JUMP JUMPDEST PUSH1 0x0 SWAP2 JUMPDEST PUSH1 0x2 DUP4 LT PUSH2 0x98D JUMPI POP POP POP JUMP JUMPDEST PUSH1 0x1 SWAP1 PUSH1 0xFF DUP4 MLOAD AND DUP2 MSTORE PUSH1 0x20 DUP1 SWAP2 ADD SWAP3 ADD SWAP3 ADD SWAP2 SWAP1 PUSH2 0x980 JUMP JUMPDEST SWAP1 PUSH2 0x100 SWAP2 PUSH2 0x9B7 DUP3 DUP3 MLOAD PUSH2 0x96F JUMP JUMPDEST PUSH2 0x9DB PUSH1 0x20 SWAP4 PUSH1 0x20 DUP4 ADD MLOAD PUSH1 0x20 DUP6 ADD MSTORE PUSH1 0x40 DUP4 ADD MLOAD SWAP1 DUP1 PUSH1 0x40 DUP7 ADD MSTORE DUP5 ADD SWAP1 PUSH2 0x39B JUMP JUMPDEST SWAP3 PUSH1 0x60 DUP3 ADD MLOAD SWAP1 PUSH1 0x60 DUP5 ADD PUSH1 0x0 SWAP1 JUMPDEST PUSH1 0x2 DUP3 LT PUSH2 0xA20 JUMPI POP POP POP POP SWAP1 PUSH1 0xE0 PUSH1 0xA0 DUP4 PUSH2 0xA10 PUSH1 0x80 PUSH2 0x6C9 SWAP7 ADD MLOAD DUP4 DUP7 ADD SWAP1 PUSH2 0x97C JUMP JUMPDEST ADD MLOAD PUSH1 0x1 PUSH1 0x1 PUSH1 0xA0 SHL SUB AND SWAP2 ADD MSTORE JUMP JUMPDEST DUP4 MLOAD PUSH1 0x1 PUSH1 0x1 PUSH1 0xA0 SHL SUB AND DUP2 MSTORE SWAP3 DUP3 ADD SWAP3 PUSH1 0x1 SWAP2 SWAP1 SWAP2 ADD SWAP1 DUP3 ADD PUSH2 0x9EA JUMP JUMPDEST SWAP1 PUSH1 0x20 PUSH2 0x6C9 SWAP3 DUP2 DUP2 MSTORE ADD SWAP1 PUSH2 0x9A7 JUMP JUMPDEST CALLVALUE PUSH2 0x2FC JUMPI PUSH2 0x89B PUSH2 0xA69 PUSH2 0xA64 CALLDATASIZE PUSH2 0x69F JUMP JUMPDEST PUSH2 0x2173 JUMP JUMPDEST PUSH1 0x40 MLOAD SWAP2 DUP3 SWAP2 PUSH1 0x20 DUP4 MSTORE PUSH1 0x20 DUP4 ADD SWAP1 PUSH2 0x9A7 JUMP JUMPDEST CALLVALUE PUSH2 0x2FC JUMPI PUSH1 0x0 CALLDATASIZE PUSH1 0x3 NOT ADD SLT PUSH2 0x2FC JUMPI PUSH1 0x20 PUSH1 0x5 SLOAD PUSH1 0x40 MLOAD SWAP1 DUP2 MSTORE RETURN JUMPDEST CALLVALUE PUSH2 0x2FC JUMPI PUSH2 0x89B PUSH2 0xAAC CALLDATASIZE PUSH2 0x69F JUMP JUMPDEST PUSH2 0xAB4 PUSH2 0x203B JUMP JUMPDEST POP PUSH2 0xAC6 PUSH2 0xAC1 CALLER PUSH2 0x1F21 JUMP JUMPDEST PUSH2 0x21E2 JUMP JUMPDEST PUSH2 0xADE PUSH2 0xAD9 PUSH2 0xAD5 DUP4 PUSH2 0x2028 JUMP JUMPDEST ISZERO SWAP1 JUMP JUMPDEST PUSH2 0x222E JUMP JUMPDEST PUSH1 0x40 MLOAD PUSH1 0x20 DUP2 ADD SWAP1 PUSH2 0xB02 DUP2 PUSH2 0xAF4 DUP6 DUP6 PUSH2 0x830 JUMP JUMPDEST SUB PUSH1 0x1F NOT DUP2 ADD DUP4 MSTORE DUP3 PUSH2 0x5E6 JUMP JUMPDEST MLOAD SWAP1 KECCAK256 SWAP1 PUSH2 0xB0E PUSH2 0x630 JUMP JUMPDEST CALLER DUP2 MSTORE PUSH1 0x0 PUSH1 0x20 DUP3 ADD MSTORE PUSH2 0xB20 PUSH2 0x630 JUMP JUMPDEST SWAP1 PUSH1 0x0 DUP3 MSTORE PUSH1 0x0 PUSH1 0x20 DUP4 ADD MSTORE PUSH2 0xB34 PUSH2 0x607 JUMP JUMPDEST SWAP4 PUSH1 0x0 DUP6 MSTORE PUSH1 0x20 DUP6 ADD MSTORE DUP3 PUSH1 0x40 DUP6 ADD MSTORE PUSH1 0x60 DUP5 ADD MSTORE PUSH1 0x80 DUP4 ADD MSTORE PUSH1 0x0 PUSH1 0xA0 DUP4 ADD MSTORE PUSH2 0xB61 PUSH1 0xA SLOAD SWAP2 PUSH2 0x2002 JUMP JUMPDEST SSTORE PUSH2 0xB6B DUP2 PUSH2 0x248A JUMP JUMPDEST PUSH1 0x40 MLOAD SWAP2 DUP3 SWAP2 DUP3 PUSH2 0xA3F JUMP JUMPDEST PUSH1 0x1 PUSH1 0x1 PUSH1 0x40 SHL SUB DUP2 GT PUSH2 0x590 JUMPI PUSH1 0x5 SHL PUSH1 0x20 ADD SWAP1 JUMP JUMPDEST SWAP1 DUP1 PUSH1 0x1F DUP4 ADD SLT ISZERO PUSH2 0x2FC JUMPI PUSH1 0x20 SWAP1 DUP3 CALLDATALOAD PUSH2 0xBA8 DUP2 PUSH2 0xB77 JUMP JUMPDEST SWAP4 PUSH2 0xBB6 PUSH1 0x40 MLOAD SWAP6 DUP7 PUSH2 0x5E6 JUMP JUMPDEST DUP2 DUP6 MSTORE PUSH1 0x20 DUP1 DUP7 ADD SWAP3 PUSH1 0x5 SHL DUP3 ADD ADD SWAP3 DUP4 GT PUSH2 0x2FC JUMPI PUSH1 0x20 ADD SWAP1 JUMPDEST DUP3 DUP3 LT PUSH2 0xBDF JUMPI POP POP POP POP SWAP1 JUMP JUMPDEST DUP2 CALLDATALOAD DUP2 MSTORE SWAP1 DUP4 ADD SWAP1 DUP4 ADD PUSH2 0xBD1 JUMP JUMPDEST CALLVALUE PUSH2 0x2FC JUMPI PUSH1 0xA0 CALLDATASIZE PUSH1 0x3 NOT ADD SLT PUSH2 0x2FC JUMPI PUSH2 0xC07 PUSH2 0x2E6 JUMP JUMPDEST PUSH2 0xC0F PUSH2 0x301 JUMP JUMPDEST SWAP1 PUSH1 0x44 CALLDATALOAD SWAP2 PUSH1 0x1 PUSH1 0x1 PUSH1 0x40 SHL SUB SWAP1 DUP2 DUP5 GT PUSH2 0x2FC JUMPI PUSH2 0xC33 PUSH1 0x4 SWAP5 CALLDATASIZE SWAP1 DUP7 ADD PUSH2 0xB8E JUMP JUMPDEST SWAP1 PUSH1 0x64 CALLDATALOAD DUP4 DUP2 GT PUSH2 0x2FC JUMPI PUSH2 0xC4B SWAP1 CALLDATASIZE SWAP1 DUP8 ADD PUSH2 0xB8E JUMP JUMPDEST SWAP3 PUSH1 0x84 CALLDATALOAD SWAP1 DUP2 GT PUSH2 0x2FC JUMPI PUSH2 0xC63 SWAP1 CALLDATASIZE SWAP1 DUP8 ADD PUSH2 0x658 JUMP JUMPDEST SWAP4 PUSH1 0x1 PUSH1 0x1 PUSH1 0xA0 SHL SUB DUP1 DUP3 AND SWAP1 CALLER DUP3 EQ ISZERO DUP1 PUSH2 0xCF2 JUMPI JUMPDEST PUSH2 0xCC5 JUMPI DUP4 AND ISZERO PUSH2 0xCAD JUMPI ISZERO PUSH2 0xC96 JUMPI PUSH2 0xC94 SWAP6 POP PUSH2 0x342D JUMP JUMPDEST STOP JUMPDEST PUSH1 0x40 MLOAD PUSH3 0x6A0D45 PUSH1 0xE2 SHL DUP2 MSTORE PUSH1 0x0 DUP2 DUP9 ADD MSTORE PUSH1 0x24 SWAP1 REVERT JUMPDEST PUSH1 0x40 MLOAD PUSH4 0x2BFA23E7 PUSH1 0xE1 SHL DUP2 MSTORE PUSH1 0x0 DUP2 DUP10 ADD MSTORE PUSH1 0x24 SWAP1 REVERT JUMPDEST PUSH1 0x40 DUP1 MLOAD PUSH4 0x711BEC91 PUSH1 0xE1 SHL DUP2 MSTORE CALLER DUP2 DUP12 ADD SWAP1 DUP2 MSTORE PUSH1 0x1 PUSH1 0x1 PUSH1 0xA0 SHL SUB DUP7 AND PUSH1 0x20 DUP3 ADD MSTORE SWAP1 SWAP2 DUP3 SWAP2 ADD SUB SWAP1 REVERT JUMPDEST POP PUSH1 0x0 DUP3 DUP2 MSTORE PUSH1 0x1 PUSH1 0x20 SWAP1 DUP2 MSTORE PUSH1 0x40 DUP1 DUP4 KECCAK256 CALLER DUP5 MSTORE SWAP1 SWAP2 MSTORE SWAP1 KECCAK256 SLOAD PUSH1 0xFF AND ISZERO PUSH2 0xC7A JUMP JUMPDEST SWAP1 DUP2 MLOAD DUP1 DUP3 MSTORE PUSH1 0x20 DUP1 DUP1 SWAP4 ADD SWAP4 ADD SWAP2 PUSH1 0x0 JUMPDEST DUP3 DUP2 LT PUSH2 0xD36 JUMPI POP POP POP POP SWAP1 JUMP JUMPDEST DUP4 MLOAD DUP6 MSTORE SWAP4 DUP2 ADD SWAP4 SWAP3 DUP2 ADD SWAP3 PUSH1 0x1 ADD PUSH2 0xD28 JUMP JUMPDEST SWAP1 PUSH1 0x20 PUSH2 0x6C9 SWAP3 DUP2 DUP2 MSTORE ADD SWAP1 PUSH2 0xD16 JUMP JUMPDEST CALLVALUE PUSH2 0x2FC JUMPI PUSH1 0x40 CALLDATASIZE PUSH1 0x3 NOT ADD SLT PUSH2 0x2FC JUMPI PUSH1 0x4 CALLDATALOAD PUSH1 0x1 PUSH1 0x1 PUSH1 0x40 SHL SUB DUP1 DUP3 GT PUSH2 0x2FC JUMPI CALLDATASIZE PUSH1 0x23 DUP4 ADD SLT ISZERO PUSH2 0x2FC JUMPI DUP2 PUSH1 0x4 ADD CALLDATALOAD PUSH2 0xD97 DUP2 PUSH2 0xB77 JUMP JUMPDEST SWAP3 PUSH2 0xDA5 PUSH1 0x40 MLOAD SWAP5 DUP6 PUSH2 0x5E6 JUMP JUMPDEST DUP2 DUP5 MSTORE PUSH1 0x20 SWAP2 PUSH1 0x24 PUSH1 0x20 DUP7 ADD SWAP2 PUSH1 0x5 SHL DUP4 ADD ADD SWAP2 CALLDATASIZE DUP4 GT PUSH2 0x2FC JUMPI PUSH1 0x24 ADD SWAP1 JUMPDEST DUP3 DUP3 LT PUSH2 0xDFE JUMPI DUP6 PUSH1 0x24 CALLDATALOAD DUP7 DUP2 GT PUSH2 0x2FC JUMPI PUSH2 0x89B SWAP2 PUSH2 0xDEC PUSH2 0xDF2 SWAP3 CALLDATASIZE SWAP1 PUSH1 0x4 ADD PUSH2 0xB8E JUMP JUMPDEST SWAP1 PUSH2 0x2549 JUMP JUMPDEST PUSH1 0x40 MLOAD SWAP2 DUP3 SWAP2 DUP3 PUSH2 0xD4A JUMP JUMPDEST DUP4 DUP1 SWAP2 PUSH2 0xE0A DUP5 PUSH2 0x317 JUMP JUMPDEST DUP2 MSTORE ADD SWAP2 ADD SWAP1 PUSH2 0xDC5 JUMP JUMPDEST CALLVALUE PUSH2 0x2FC JUMPI PUSH1 0x20 CALLDATASIZE PUSH1 0x3 NOT ADD SLT PUSH2 0x2FC JUMPI PUSH1 0x4 CALLDATALOAD PUSH1 0x0 MSTORE PUSH1 0x4 PUSH1 0x20 MSTORE PUSH1 0x20 PUSH1 0x40 PUSH1 0x0 KECCAK256 SLOAD ISZERO ISZERO PUSH1 0x40 MLOAD SWAP1 DUP2 MSTORE RETURN JUMPDEST CALLVALUE PUSH2 0x2FC JUMPI PUSH1 0x0 CALLDATASIZE PUSH1 0x3 NOT ADD SLT PUSH2 0x2FC JUMPI PUSH1 0x20 PUSH1 0x7 SLOAD PUSH1 0x40 MLOAD SWAP1 DUP2 MSTORE RETURN JUMPDEST SWAP1 PUSH1 0x1 DUP1 PUSH1 0xA0 SHL SUB DUP3 MLOAD AND DUP2 MSTORE PUSH1 0x80 DUP1 PUSH2 0xE8A PUSH1 0x20 DUP6 ADD MLOAD PUSH1 0xA0 PUSH1 0x20 DUP7 ADD MSTORE PUSH1 0xA0 DUP6 ADD SWAP1 PUSH2 0x39B JUMP JUMPDEST SWAP4 PUSH1 0x40 DUP2 ADD MLOAD PUSH1 0x40 DUP6 ADD MSTORE PUSH1 0x60 DUP2 ADD MLOAD PUSH1 0x60 DUP6 ADD MSTORE ADD MLOAD ISZERO ISZERO SWAP2 ADD MSTORE SWAP1 JUMP JUMPDEST CALLVALUE PUSH2 0x2FC JUMPI PUSH1 0x20 CALLDATASIZE PUSH1 0x3 NOT ADD SLT PUSH2 0x2FC JUMPI PUSH2 0x89B PUSH2 0xECD PUSH2 0xEC8 PUSH2 0x2E6 JUMP JUMPDEST PUSH2 0x2658 JUMP JUMPDEST PUSH1 0x40 MLOAD SWAP2 DUP3 SWAP2 PUSH1 0x20 DUP4 MSTORE PUSH1 0x20 DUP4 ADD SWAP1 PUSH2 0xE61 JUMP JUMPDEST CALLVALUE PUSH2 0x2FC JUMPI PUSH1 0x0 DUP1 PUSH1 0x3 NOT CALLDATASIZE ADD SLT PUSH2 0x4DC JUMPI PUSH1 0xA SLOAD PUSH2 0xEFF DUP2 PUSH2 0xB77 JUMP JUMPDEST SWAP1 PUSH2 0xF0D PUSH1 0x40 MLOAD SWAP3 DUP4 PUSH2 0x5E6 JUMP JUMPDEST DUP1 DUP3 MSTORE PUSH1 0xA DUP4 MSTORE PUSH1 0x20 SWAP3 DUP4 DUP4 ADD SWAP2 DUP2 PUSH32 0xC65A7BB8D6351C1CF70C95A316CC6A92839C986682D98BC35F958F4883F9D2A8 DUP5 JUMPDEST DUP4 DUP4 LT PUSH2 0xFA4 JUMPI POP POP POP POP PUSH1 0x40 MLOAD SWAP3 DUP5 DUP5 ADD SWAP1 DUP6 DUP6 MSTORE MLOAD DUP1 SWAP2 MSTORE PUSH1 0x40 DUP5 ADD SWAP5 PUSH1 0x40 DUP3 PUSH1 0x5 SHL DUP7 ADD ADD SWAP4 SWAP3 SWAP6 JUMPDEST DUP3 DUP8 LT PUSH2 0xF78 JUMPI DUP6 DUP6 SUB DUP7 RETURN JUMPDEST SWAP1 SWAP2 SWAP3 SWAP4 DUP3 DUP1 PUSH2 0xF94 PUSH1 0x1 SWAP4 PUSH1 0x3F NOT DUP11 DUP3 SUB ADD DUP7 MSTORE DUP9 MLOAD PUSH2 0x9A7 JUMP JUMPDEST SWAP7 ADD SWAP3 ADD SWAP7 ADD SWAP6 SWAP3 SWAP2 SWAP1 SWAP3 PUSH2 0xF6B JUMP JUMPDEST PUSH1 0x7 DUP9 PUSH1 0x1 SWAP3 PUSH2 0xFB7 DUP6 SWAP12 SWAP11 SWAP9 SWAP12 PUSH2 0x20B5 JUMP JUMPDEST DUP2 MSTORE ADD SWAP3 ADD SWAP3 ADD SWAP2 SWAP1 SWAP7 SWAP4 SWAP6 SWAP7 PUSH2 0xF3F JUMP JUMPDEST PUSH4 0x4E487B71 PUSH1 0xE0 SHL PUSH1 0x0 MSTORE PUSH1 0x32 PUSH1 0x4 MSTORE PUSH1 0x24 PUSH1 0x0 REVERT JUMPDEST PUSH1 0xA SLOAD DUP2 LT ISZERO PUSH2 0xFFE JUMPI PUSH1 0xA PUSH1 0x0 MSTORE PUSH1 0x7 PUSH1 0x20 PUSH1 0x0 KECCAK256 SWAP2 MUL ADD SWAP1 PUSH1 0x0 SWAP1 JUMP JUMPDEST PUSH2 0xFC9 JUMP JUMPDEST SWAP1 PUSH1 0x1 DUP3 DUP2 SHR SWAP3 AND DUP1 ISZERO PUSH2 0x1033 JUMPI JUMPDEST PUSH1 0x20 DUP4 LT EQ PUSH2 0x101D JUMPI JUMP JUMPDEST PUSH4 0x4E487B71 PUSH1 0xE0 SHL PUSH1 0x0 MSTORE PUSH1 0x22 PUSH1 0x4 MSTORE PUSH1 0x24 PUSH1 0x0 REVERT JUMPDEST SWAP2 PUSH1 0x7F AND SWAP2 PUSH2 0x1012 JUMP JUMPDEST SWAP1 PUSH1 0x40 MLOAD SWAP2 DUP3 PUSH1 0x0 DUP3 SLOAD PUSH2 0x1050 DUP2 PUSH2 0x1003 JUMP JUMPDEST SWAP1 DUP2 DUP5 MSTORE PUSH1 0x20 SWAP5 PUSH1 0x1 SWAP2 PUSH1 0x1 DUP2 AND SWAP1 DUP2 PUSH1 0x0 EQ PUSH2 0x10BE JUMPI POP PUSH1 0x1 EQ PUSH2 0x107F JUMPI JUMPDEST POP POP POP PUSH2 0x614 SWAP3 POP SUB DUP4 PUSH2 0x5E6 JUMP JUMPDEST PUSH1 0x0 SWAP1 DUP2 MSTORE DUP6 DUP2 KECCAK256 SWAP6 SWAP4 POP SWAP2 SWAP1 JUMPDEST DUP2 DUP4 LT PUSH2 0x10A6 JUMPI POP POP PUSH2 0x614 SWAP4 POP DUP3 ADD ADD CODESIZE DUP1 DUP1 PUSH2 0x1070 JUMP JUMPDEST DUP6 SLOAD DUP9 DUP5 ADD DUP6 ADD MSTORE SWAP5 DUP6 ADD SWAP5 DUP8 SWAP5 POP SWAP2 DUP4 ADD SWAP2 PUSH2 0x108D JUMP JUMPDEST SWAP3 POP POP POP PUSH2 0x614 SWAP5 SWAP3 POP PUSH1 0xFF NOT AND DUP3 DUP5 ADD MSTORE ISZERO ISZERO PUSH1 0x5 SHL DUP3 ADD ADD CODESIZE DUP1 DUP1 PUSH2 0x1070 JUMP JUMPDEST CALLVALUE PUSH2 0x2FC JUMPI PUSH1 0x20 CALLDATASIZE PUSH1 0x3 NOT ADD SLT PUSH2 0x2FC JUMPI PUSH1 0x4 CALLDATALOAD PUSH1 0xA SLOAD DUP2 LT ISZERO PUSH2 0x2FC JUMPI PUSH2 0x110A PUSH2 0x1141 SWAP2 PUSH2 0xFDF JUMP JUMPDEST POP PUSH1 0xFF DUP2 SLOAD AND SWAP1 PUSH2 0x1157 PUSH1 0x1 DUP3 ADD SLOAD SWAP2 PUSH2 0x1126 PUSH1 0x2 DUP3 ADD PUSH2 0x103D JUMP JUMPDEST SWAP1 PUSH1 0x6 PUSH1 0x1 DUP1 PUSH1 0xA0 SHL SUB SWAP2 ADD SLOAD AND SWAP3 PUSH1 0x40 MLOAD SWAP6 DUP7 DUP1 SWAP7 PUSH2 0x96F JUMP JUMPDEST PUSH1 0x20 DUP6 ADD MSTORE PUSH1 0x80 PUSH1 0x40 DUP6 ADD MSTORE PUSH1 0x80 DUP5 ADD SWAP1 PUSH2 0x39B JUMP JUMPDEST SWAP1 PUSH1 0x60 DUP4 ADD MSTORE SUB SWAP1 RETURN JUMPDEST PUSH4 0x4E487B71 PUSH1 0xE0 SHL PUSH1 0x0 MSTORE PUSH1 0x0 PUSH1 0x4 MSTORE PUSH1 0x24 PUSH1 0x0 REVERT JUMPDEST CALLVALUE PUSH2 0x2FC JUMPI PUSH1 0x0 DUP1 PUSH1 0x3 NOT CALLDATASIZE ADD SLT PUSH2 0x4DC JUMPI PUSH1 0x40 MLOAD DUP2 PUSH1 0x6 SLOAD PUSH2 0x1199 DUP2 PUSH2 0x1003 JUMP JUMPDEST SWAP1 DUP2 DUP5 MSTORE PUSH1 0x20 SWAP3 PUSH1 0x1 SWAP2 PUSH1 0x1 DUP2 AND SWAP1 DUP2 PUSH1 0x0 EQ PUSH2 0x1204 JUMPI POP PUSH1 0x1 EQ PUSH2 0x11C9 JUMPI JUMPDEST PUSH2 0x89B DUP6 PUSH2 0x88F DUP2 DUP10 SUB DUP3 PUSH2 0x5E6 JUMP JUMPDEST SWAP3 SWAP5 POP PUSH1 0x6 DUP4 MSTORE DUP5 DUP4 KECCAK256 JUMPDEST DUP3 DUP5 LT PUSH2 0x11F1 JUMPI POP POP POP DUP2 PUSH2 0x89B SWAP4 PUSH2 0x88F SWAP3 DUP3 ADD ADD SWAP4 CODESIZE PUSH2 0x11B9 JUMP JUMPDEST DUP1 SLOAD DUP6 DUP6 ADD DUP8 ADD MSTORE SWAP3 DUP6 ADD SWAP3 DUP2 ADD PUSH2 0x11D4 JUMP JUMPDEST PUSH1 0xFF NOT AND DUP7 DUP7 ADD MSTORE POP POP POP ISZERO ISZERO PUSH1 0x5 SHL DUP3 ADD ADD SWAP2 POP PUSH2 0x88F DUP2 PUSH2 0x89B CODESIZE PUSH2 0x11B9 JUMP JUMPDEST CALLVALUE PUSH2 0x2FC JUMPI PUSH1 0x0 CALLDATASIZE PUSH1 0x3 NOT ADD SLT PUSH2 0x2FC JUMPI PUSH1 0x20 PUSH1 0x40 MLOAD PUSH1 0x2 DUP2 MSTORE RETURN JUMPDEST CALLVALUE PUSH2 0x2FC JUMPI PUSH1 0x0 DUP1 PUSH1 0x3 NOT CALLDATASIZE ADD SLT PUSH2 0x4DC JUMPI PUSH2 0x125C PUSH2 0x2CAE JUMP JUMPDEST PUSH1 0x3 DUP1 SLOAD PUSH1 0x1 PUSH1 0x1 PUSH1 0xA0 SHL SUB NOT DUP2 AND SWAP1 SWAP2 SSTORE DUP2 SWAP1 PUSH1 0x1 PUSH1 0x1 PUSH1 0xA0 SHL SUB AND PUSH32 0x8BE0079C531659141344CD1FD0A4F28419497F9722A3DAAFE3B4186F6B6457E0 DUP3 DUP1 LOG3 DUP1 RETURN JUMPDEST CALLVALUE PUSH2 0x2FC JUMPI PUSH1 0x40 CALLDATASIZE PUSH1 0x3 NOT ADD SLT PUSH2 0x2FC JUMPI PUSH1 0x1 PUSH1 0x1 PUSH1 0x40 SHL SUB PUSH1 0x4 CALLDATALOAD DUP2 DUP2 GT PUSH2 0x2FC JUMPI PUSH2 0x12D1 SWAP1 CALLDATASIZE SWAP1 PUSH1 0x4 ADD PUSH2 0x658 JUMP JUMPDEST SWAP1 PUSH1 0x24 CALLDATALOAD SWAP1 DUP2 GT PUSH2 0x2FC JUMPI PUSH2 0x12EA SWAP1 CALLDATASIZE SWAP1 PUSH1 0x4 ADD PUSH2 0x658 JUMP JUMPDEST PUSH2 0x12F3 CALLER PUSH2 0x1F21 JUMP JUMPDEST PUSH2 0x1376 JUMPI PUSH2 0x1341 SWAP1 PUSH1 0x8 SLOAD PUSH2 0x132C PUSH2 0x1309 PUSH2 0x616 JUMP JUMPDEST CALLER DUP2 MSTORE DUP6 PUSH1 0x20 DUP3 ADD MSTORE PUSH1 0xA PUSH1 0x40 DUP3 ADD MSTORE PUSH1 0x19 PUSH1 0x60 DUP3 ADD MSTORE PUSH1 0x0 PUSH1 0x80 DUP3 ADD MSTORE PUSH2 0x26F5 JUMP JUMPDEST CALLER PUSH1 0x0 SWAP1 DUP2 MSTORE PUSH1 0xB PUSH1 0x20 MSTORE PUSH1 0x40 SWAP1 KECCAK256 SSTORE PUSH2 0x2871 JUMP JUMPDEST PUSH32 0x81EF79D1CDA814A60C0FC60792E648A06D9C6BAE67176346D1CC8B63030BFCCD PUSH1 0x40 MLOAD DUP1 PUSH2 0x1371 CALLER SWAP5 DUP3 PUSH2 0x830 JUMP JUMPDEST SUB SWAP1 LOG2 STOP JUMPDEST PUSH1 0x40 MLOAD PUSH3 0x461BCD PUSH1 0xE5 SHL DUP2 MSTORE PUSH1 0x20 PUSH1 0x4 DUP3 ADD MSTORE PUSH1 0x19 PUSH1 0x24 DUP3 ADD MSTORE PUSH25 0x141B185E595C88185B1C9958591E481C9959DA5CDD195C9959 PUSH1 0x3A SHL PUSH1 0x44 DUP3 ADD MSTORE PUSH1 0x64 SWAP1 REVERT JUMPDEST CALLVALUE PUSH2 0x2FC JUMPI PUSH1 0x0 CALLDATASIZE PUSH1 0x3 NOT ADD SLT PUSH2 0x2FC JUMPI PUSH1 0x3 SLOAD PUSH1 0x40 MLOAD PUSH1 0x1 PUSH1 0x1 PUSH1 0xA0 SHL SUB SWAP1 SWAP2 AND DUP2 MSTORE PUSH1 0x20 SWAP1 RETURN JUMPDEST CALLVALUE PUSH2 0x2FC JUMPI PUSH2 0x13F1 PUSH2 0xA64 CALLDATASIZE PUSH2 0x69F JUMP JUMPDEST PUSH1 0x60 DUP2 ADD SWAP1 DUP2 MLOAD PUSH1 0x1 DUP1 PUSH1 0xA0 SHL SUB SWAP1 DUP2 DUP2 MLOAD AND CALLER EQ SWAP1 DUP2 ISZERO PUSH2 0x1492 JUMPI JUMPDEST POP ISZERO PUSH2 0x144D JUMPI DUP3 MLOAD MLOAD AND CALLER DUP2 SUB PUSH2 0x1443 JUMPI POP PUSH2 0x143E PUSH2 0x1431 PUSH2 0xC94 SWAP4 MLOAD PUSH1 0x20 ADD SWAP1 JUMP JUMPDEST MLOAD PUSH1 0x1 PUSH1 0x1 PUSH1 0xA0 SHL SUB AND SWAP1 JUMP JUMPDEST PUSH2 0x2D1D JUMP JUMPDEST PUSH2 0xC94 SWAP3 POP PUSH2 0x2D1D JUMP JUMPDEST PUSH1 0x40 MLOAD PUSH3 0x461BCD PUSH1 0xE5 SHL DUP2 MSTORE PUSH1 0x20 PUSH1 0x4 DUP3 ADD MSTORE PUSH1 0x1B PUSH1 0x24 DUP3 ADD MSTORE PUSH32 0x596F7520617265206E6F7420696E207468697320626174746C65210000000000 PUSH1 0x44 DUP3 ADD MSTORE PUSH1 0x64 SWAP1 REVERT JUMPDEST PUSH1 0x20 ADD MLOAD DUP3 AND CALLER EQ SWAP1 POP CODESIZE PUSH2 0x140E JUMP JUMPDEST CALLVALUE PUSH2 0x2FC JUMPI PUSH1 0x80 PUSH2 0x14B5 PUSH2 0xA64 CALLDATASIZE PUSH2 0x69F JUMP JUMPDEST ADD MLOAD PUSH1 0xFF PUSH1 0x20 DUP2 DUP4 MLOAD AND SWAP3 ADD MLOAD AND SWAP1 PUSH2 0x89B PUSH1 0x40 MLOAD SWAP3 DUP4 SWAP3 DUP4 PUSH1 0x20 SWAP1 SWAP4 SWAP3 SWAP2 SWAP4 PUSH1 0x40 DUP2 ADD SWAP5 DUP2 MSTORE ADD MSTORE JUMP JUMPDEST CALLVALUE PUSH2 0x2FC JUMPI PUSH1 0x0 CALLDATASIZE PUSH1 0x3 NOT ADD SLT PUSH2 0x2FC JUMPI PUSH1 0x20 PUSH1 0x40 MLOAD PUSH1 0x5 DUP2 MSTORE RETURN JUMPDEST CALLVALUE PUSH2 0x2FC JUMPI PUSH2 0xC94 PUSH2 0x150D CALLDATASIZE PUSH2 0x69F JUMP JUMPDEST PUSH2 0x2871 JUMP JUMPDEST CALLVALUE PUSH2 0x2FC JUMPI PUSH2 0x89B PUSH2 0x1523 CALLDATASIZE PUSH2 0x69F JUMP JUMPDEST PUSH2 0x152B PUSH2 0x203B JUMP JUMPDEST POP PUSH2 0x1535 DUP2 PUSH2 0x2173 JUMP JUMPDEST SWAP1 PUSH2 0x1553 DUP3 MLOAD PUSH2 0x1544 DUP2 PUSH2 0x94F JUMP JUMPDEST PUSH2 0x154D DUP2 PUSH2 0x94F JUMP JUMPDEST ISZERO PUSH2 0x2A11 JUMP JUMPDEST PUSH1 0x60 DUP3 ADD DUP1 MLOAD MLOAD SWAP1 SWAP2 PUSH2 0x15C8 SWAP2 DUP5 SWAP2 SWAP1 PUSH2 0x1581 SWAP1 PUSH1 0x1 PUSH1 0x1 PUSH1 0xA0 SHL SUB AND PUSH1 0x1 PUSH1 0x1 PUSH1 0xA0 SHL SUB AND CALLER EQ ISZERO PUSH2 0x2A57 JUMP JUMPDEST PUSH2 0x15A1 PUSH2 0x159C PUSH2 0xAD5 PUSH1 0x80 PUSH2 0x1595 CALLER PUSH2 0x2658 JUMP JUMPDEST ADD MLOAD ISZERO ISZERO SWAP1 JUMP JUMPDEST PUSH2 0x2AAD JUMP JUMPDEST PUSH1 0x1 DUP3 MSTORE PUSH2 0x15C3 CALLER PUSH2 0x15B4 DUP7 MLOAD PUSH1 0x20 ADD SWAP1 JUMP JUMPDEST PUSH1 0x1 PUSH1 0x1 PUSH1 0xA0 SHL SUB SWAP1 SWAP2 AND SWAP1 MSTORE JUMP JUMPDEST PUSH2 0x2FE6 JUMP JUMPDEST DUP1 MLOAD MLOAD PUSH2 0x1613 SWAP1 PUSH1 0x4 SWAP1 PUSH2 0x1604 SWAP1 PUSH2 0x15FE SWAP1 PUSH1 0x1 PUSH1 0x1 PUSH1 0xA0 SHL SUB AND JUMPDEST PUSH1 0x1 PUSH1 0x1 PUSH1 0xA0 SHL SUB AND PUSH1 0x0 SWAP1 DUP2 MSTORE PUSH1 0xB PUSH1 0x20 MSTORE PUSH1 0x40 SWAP1 KECCAK256 SWAP1 JUMP JUMPDEST SLOAD PUSH2 0x1E43 JUMP JUMPDEST POP ADD DUP1 SLOAD PUSH1 0xFF NOT AND PUSH1 0x1 OR SWAP1 SSTORE JUMP JUMPDEST PUSH2 0x162C PUSH1 0x4 PUSH2 0x1604 PUSH2 0x15FE PUSH2 0x15E4 PUSH2 0x1431 DUP7 MLOAD PUSH1 0x20 ADD SWAP1 JUMP JUMPDEST PUSH1 0x40 DUP3 ADD MLOAD SWAP1 MLOAD MLOAD PUSH2 0x164E SWAP1 PUSH1 0x1 PUSH1 0x1 PUSH1 0xA0 SHL SUB AND JUMPDEST PUSH1 0x1 PUSH1 0x1 PUSH1 0xA0 SHL SUB AND SWAP1 JUMP JUMPDEST PUSH32 0x24187B16C217A79F8D8E6252B542EC6E278FA91304ACD9CFD866F2BBF00BD08 PUSH1 0x40 MLOAD DUP1 PUSH2 0x167E CALLER SWAP6 DUP3 PUSH2 0x830 JUMP JUMPDEST SUB SWAP1 LOG3 PUSH1 0x40 MLOAD SWAP2 DUP3 SWAP2 DUP3 PUSH2 0xA3F JUMP JUMPDEST CALLVALUE PUSH2 0x2FC JUMPI PUSH1 0x40 CALLDATASIZE PUSH1 0x3 NOT ADD SLT PUSH2 0x2FC JUMPI PUSH2 0x16A6 PUSH2 0x2E6 JUMP JUMPDEST PUSH1 0x24 CALLDATALOAD SWAP1 DUP2 ISZERO ISZERO SWAP1 DUP2 DUP4 SUB PUSH2 0x2FC JUMPI PUSH1 0x1 PUSH1 0x1 PUSH1 0xA0 SHL SUB DUP2 AND SWAP3 DUP4 ISZERO PUSH2 0x1731 JUMPI PUSH2 0x16F2 PUSH2 0x1703 SWAP3 CALLER PUSH1 0x0 MSTORE PUSH1 0x1 PUSH1 0x20 MSTORE PUSH1 0x40 PUSH1 0x0 KECCAK256 SWAP1 PUSH1 0x1 DUP1 PUSH1 0xA0 SHL SUB AND PUSH1 0x0 MSTORE PUSH1 0x20 MSTORE PUSH1 0x40 PUSH1 0x0 KECCAK256 SWAP1 JUMP JUMPDEST SWAP1 PUSH1 0xFF DUP1 NOT DUP4 SLOAD AND SWAP2 ISZERO ISZERO AND OR SWAP1 SSTORE JUMP JUMPDEST PUSH1 0x40 MLOAD SWAP1 DUP2 MSTORE PUSH32 0x17307EAB39AB6107E8899845AD3D59BD9653F200F220920489CA2B5937696C31 PUSH1 0x20 CALLER SWAP3 LOG3 STOP JUMPDEST PUSH1 0x40 MLOAD PUSH3 0xCED3E1 PUSH1 0xE8 SHL DUP2 MSTORE PUSH1 0x0 PUSH1 0x4 DUP3 ADD MSTORE PUSH1 0x24 SWAP1 REVERT JUMPDEST CALLVALUE PUSH2 0x2FC JUMPI PUSH1 0x40 CALLDATASIZE PUSH1 0x3 NOT ADD SLT PUSH2 0x2FC JUMPI PUSH1 0x4 CALLDATALOAD PUSH1 0xFF DUP2 AND DUP2 SUB PUSH2 0x2FC JUMPI PUSH1 0x24 CALLDATALOAD PUSH1 0x1 PUSH1 0x1 PUSH1 0x40 SHL SUB DUP2 GT PUSH2 0x2FC JUMPI PUSH2 0x1786 SWAP1 CALLDATASIZE SWAP1 PUSH1 0x4 ADD PUSH2 0x658 JUMP JUMPDEST SWAP1 PUSH2 0x1870 DUP3 PUSH2 0x1794 DUP2 PUSH2 0x2173 JUMP JUMPDEST SWAP3 DUP4 MLOAD SWAP4 PUSH2 0x17A1 DUP6 PUSH2 0x94F JUMP JUMPDEST PUSH2 0x17AA DUP6 PUSH2 0x94F JUMP JUMPDEST PUSH2 0x17B7 PUSH1 0x1 DUP1 SWAP7 EQ PUSH2 0x2AED JUMP JUMPDEST PUSH2 0x17D7 PUSH1 0x2 DUP3 MLOAD PUSH2 0x17C7 DUP2 PUSH2 0x94F JUMP JUMPDEST PUSH2 0x17D0 DUP2 PUSH2 0x94F JUMP JUMPDEST EQ ISZERO PUSH2 0x2B69 JUMP JUMPDEST PUSH1 0x60 DUP2 ADD DUP1 MLOAD DUP1 MLOAD SWAP2 SWAP3 PUSH2 0x184A SWAP3 PUSH1 0xFF SWAP3 PUSH2 0x1843 SWAP3 PUSH2 0x183C SWAP3 PUSH1 0x80 SWAP3 PUSH2 0x1813 SWAP2 PUSH1 0x1 PUSH1 0x1 PUSH1 0xA0 SHL SUB SWAP1 DUP2 AND CALLER EQ SWAP2 DUP3 ISZERO PUSH2 0x1939 JUMPI JUMPDEST POP POP PUSH2 0x2BB0 JUMP JUMPDEST ADD MLOAD DUP6 MLOAD MLOAD CALLER SWAP1 PUSH2 0x182C SWAP1 PUSH1 0x1 PUSH1 0x1 PUSH1 0xA0 SHL SUB AND PUSH2 0x1642 JUMP JUMPDEST SUB PUSH2 0x1932 JUMPI DUP4 PUSH1 0x0 JUMPDEST AND SWAP1 PUSH2 0x2860 JUMP JUMPDEST MLOAD PUSH1 0xFF AND SWAP1 JUMP JUMPDEST AND ISZERO PUSH2 0x2BFC JUMP JUMPDEST MLOAD MLOAD CALLER SWAP1 PUSH2 0x1860 SWAP1 PUSH1 0x1 PUSH1 0x1 PUSH1 0xA0 SHL SUB AND PUSH2 0x1642 JUMP JUMPDEST SUB PUSH2 0x192A JUMPI PUSH1 0xFF PUSH1 0x0 JUMPDEST AND PUSH2 0x313C JUMP JUMPDEST PUSH2 0x18BE PUSH2 0x188D PUSH1 0x80 PUSH2 0x1881 DUP6 PUSH2 0x2173 JUMP JUMPDEST ADD DUP1 MLOAD MLOAD PUSH2 0x1893 SWAP1 PUSH1 0xFF AND JUMPDEST PUSH1 0xFF AND SWAP1 JUMP JUMPDEST PUSH2 0x1918 JUMPI PUSH2 0x18B2 PUSH2 0x188D PUSH2 0x183C PUSH2 0x18AA PUSH1 0x0 PUSH2 0x2C48 JUMP JUMPDEST SWAP4 MLOAD PUSH1 0x20 ADD SWAP1 JUMP JUMPDEST PUSH2 0x1911 JUMPI PUSH1 0x0 SWAP1 PUSH2 0x2C59 JUMP JUMPDEST SWAP1 DUP1 DUP3 SUB PUSH2 0x1909 JUMPI JUMPDEST PUSH2 0x18D0 DUP4 PUSH2 0x2C6D JUMP JUMPDEST SWAP1 ISZERO ISZERO SWAP1 PUSH32 0x54B82B77E7AE55A8E6C9E89DEBA70C7191DEA2A3B08AE647B380E9F981D6A0F8 PUSH1 0x0 DUP1 LOG3 ISZERO PUSH2 0x1900 JUMPI STOP JUMPDEST PUSH2 0xC94 SWAP1 PUSH2 0x325E JUMP JUMPDEST POP PUSH1 0x0 PUSH2 0x18C7 JUMP JUMPDEST DUP4 SWAP1 PUSH2 0x2C59 JUMP JUMPDEST PUSH2 0x18B2 PUSH2 0x188D PUSH2 0x183C PUSH2 0x18AA DUP8 PUSH2 0x2C48 JUMP JUMPDEST PUSH1 0xFF DUP5 PUSH2 0x186A JUMP JUMPDEST DUP4 DUP11 PUSH2 0x1835 JUMP JUMPDEST PUSH1 0x20 ADD MLOAD AND PUSH1 0x1 PUSH1 0x1 PUSH1 0xA0 SHL SUB AND SWAP1 POP CALLER EQ CODESIZE DUP1 PUSH2 0x180C JUMP JUMPDEST CALLVALUE PUSH2 0x2FC JUMPI PUSH1 0x20 CALLDATASIZE PUSH1 0x3 NOT ADD SLT PUSH2 0x2FC JUMPI PUSH1 0x4 CALLDATALOAD PUSH1 0x0 MSTORE PUSH1 0x4 PUSH1 0x20 MSTORE PUSH1 0x20 PUSH1 0x40 PUSH1 0x0 KECCAK256 SLOAD PUSH1 0x40 MLOAD SWAP1 DUP2 MSTORE RETURN JUMPDEST PUSH1 0x9 SLOAD DUP2 LT ISZERO PUSH2 0xFFE JUMPI PUSH1 0x9 PUSH1 0x0 MSTORE PUSH1 0x20 PUSH1 0x0 KECCAK256 SWAP1 PUSH1 0x2 SHL ADD SWAP1 PUSH1 0x0 SWAP1 JUMP JUMPDEST CALLVALUE PUSH2 0x2FC JUMPI PUSH1 0x20 CALLDATASIZE PUSH1 0x3 NOT ADD SLT PUSH2 0x2FC JUMPI PUSH1 0x4 CALLDATALOAD PUSH1 0x9 SLOAD DUP2 LT ISZERO PUSH2 0x2FC JUMPI PUSH2 0x19C7 PUSH2 0x19F7 SWAP2 PUSH2 0x197E JUMP JUMPDEST POP PUSH2 0x19D1 DUP2 PUSH2 0x103D JUMP JUMPDEST SWAP1 PUSH1 0x1 DUP2 ADD SLOAD SWAP1 PUSH1 0x3 PUSH1 0x2 DUP3 ADD SLOAD SWAP2 ADD SLOAD SWAP1 PUSH1 0x40 MLOAD SWAP5 DUP6 SWAP5 PUSH1 0x80 DUP7 MSTORE PUSH1 0x80 DUP7 ADD SWAP1 PUSH2 0x39B JUMP JUMPDEST SWAP3 PUSH1 0x20 DUP6 ADD MSTORE PUSH1 0x40 DUP5 ADD MSTORE PUSH1 0x60 DUP4 ADD MSTORE SUB SWAP1 RETURN JUMPDEST CALLVALUE PUSH2 0x2FC JUMPI PUSH1 0x20 CALLDATASIZE PUSH1 0x3 NOT ADD SLT PUSH2 0x2FC JUMPI PUSH1 0x20 PUSH2 0x80A PUSH2 0x1A29 PUSH2 0x2E6 JUMP JUMPDEST PUSH2 0x2C8D JUMP JUMPDEST CALLVALUE PUSH2 0x2FC JUMPI PUSH1 0x20 DUP1 PUSH1 0x3 NOT CALLDATASIZE ADD SLT PUSH2 0x2FC JUMPI PUSH2 0x1A4B PUSH1 0x4 CALLDATALOAD PUSH2 0x337E JUMP JUMPDEST PUSH1 0x40 MLOAD SWAP1 PUSH1 0x0 SWAP3 PUSH1 0x6 SLOAD PUSH2 0x1A5E DUP2 PUSH2 0x1003 JUMP JUMPDEST SWAP1 PUSH1 0x1 SWAP1 DUP2 DUP2 AND SWAP1 DUP2 ISZERO PUSH2 0x1AE6 JUMPI POP PUSH1 0x1 EQ PUSH2 0x1AA5 JUMPI JUMPDEST PUSH1 0x2F PUSH1 0xF8 SHL DUP7 MSTORE PUSH2 0x89B DUP6 PUSH2 0x88F DUP2 PUSH2 0xAF4 PUSH2 0x1A94 PUSH1 0x1 DUP13 ADD DUP11 PUSH2 0x1FEB JUMP JUMPDEST PUSH5 0x173539B7B7 PUSH1 0xD9 SHL DUP2 MSTORE PUSH1 0x5 ADD SWAP1 JUMP JUMPDEST SWAP1 SWAP2 SWAP5 POP PUSH1 0x6 PUSH1 0x0 MSTORE DUP5 PUSH1 0x0 KECCAK256 SWAP1 PUSH1 0x0 SWAP2 JUMPDEST DUP4 DUP4 LT PUSH2 0x1AD3 JUMPI POP POP POP DUP3 ADD SWAP1 SWAP3 ADD SWAP2 DUP2 PUSH2 0xAF4 PUSH2 0x1A94 PUSH2 0x1A75 JUMP JUMPDEST DUP1 SLOAD DUP7 DUP5 ADD DUP9 ADD MSTORE SWAP2 DUP7 ADD SWAP2 DUP2 ADD PUSH2 0x1AB7 JUMP JUMPDEST PUSH1 0xFF NOT AND DUP5 DUP8 ADD MSTORE POP POP DUP1 ISZERO ISZERO MUL DUP4 ADD ADD SWAP3 POP DUP2 PUSH2 0xAF4 PUSH2 0x1A94 PUSH2 0x1A75 JUMP JUMPDEST CALLVALUE PUSH2 0x2FC JUMPI PUSH1 0x0 CALLDATASIZE PUSH1 0x3 NOT ADD SLT PUSH2 0x2FC JUMPI PUSH1 0x20 PUSH1 0x40 MLOAD PUSH1 0x0 DUP2 MSTORE RETURN JUMPDEST CALLVALUE PUSH2 0x2FC JUMPI PUSH1 0x0 CALLDATASIZE PUSH1 0x3 NOT ADD SLT PUSH2 0x2FC JUMPI PUSH1 0x20 PUSH1 0x40 MLOAD PUSH1 0x1 DUP2 MSTORE RETURN JUMPDEST CALLVALUE PUSH2 0x2FC JUMPI PUSH1 0x40 CALLDATASIZE PUSH1 0x3 NOT ADD SLT PUSH2 0x2FC JUMPI PUSH1 0x20 PUSH1 0xFF PUSH2 0x1B8E PUSH2 0x1B5D PUSH2 0x2E6 JUMP JUMPDEST PUSH2 0x1B65 PUSH2 0x301 JUMP JUMPDEST PUSH1 0x1 PUSH1 0x1 PUSH1 0xA0 SHL SUB SWAP2 DUP3 AND PUSH1 0x0 SWAP1 DUP2 MSTORE PUSH1 0x1 DUP7 MSTORE PUSH1 0x40 DUP1 DUP3 KECCAK256 SWAP3 SWAP1 SWAP4 AND DUP2 MSTORE PUSH1 0x20 SWAP2 SWAP1 SWAP2 MSTORE KECCAK256 SWAP1 JUMP JUMPDEST SLOAD AND PUSH1 0x40 MLOAD SWAP1 ISZERO ISZERO DUP2 MSTORE RETURN JUMPDEST CALLVALUE PUSH2 0x2FC JUMPI PUSH1 0x0 DUP1 PUSH1 0x3 NOT CALLDATASIZE ADD SLT PUSH2 0x4DC JUMPI PUSH1 0x8 SLOAD PUSH2 0x1BB8 DUP2 PUSH2 0xB77 JUMP JUMPDEST SWAP1 PUSH2 0x1BC6 PUSH1 0x40 MLOAD SWAP3 DUP4 PUSH2 0x5E6 JUMP JUMPDEST DUP1 DUP3 MSTORE PUSH1 0x8 DUP4 MSTORE PUSH1 0x20 SWAP3 DUP4 DUP4 ADD SWAP2 DUP2 PUSH32 0xF3F7A9FE364FAAB93B216DA50A3214154F22A0A2B415B23A84C8169E8B636EE3 DUP5 JUMPDEST DUP4 DUP4 LT PUSH2 0x1C5D JUMPI POP POP POP POP PUSH1 0x40 MLOAD SWAP3 DUP5 DUP5 ADD SWAP1 DUP6 DUP6 MSTORE MLOAD DUP1 SWAP2 MSTORE PUSH1 0x40 DUP5 ADD SWAP5 PUSH1 0x40 DUP3 PUSH1 0x5 SHL DUP7 ADD ADD SWAP4 SWAP3 SWAP6 JUMPDEST DUP3 DUP8 LT PUSH2 0x1C31 JUMPI DUP6 DUP6 SUB DUP7 RETURN JUMPDEST SWAP1 SWAP2 SWAP3 SWAP4 DUP3 DUP1 PUSH2 0x1C4D PUSH1 0x1 SWAP4 PUSH1 0x3F NOT DUP11 DUP3 SUB ADD DUP7 MSTORE DUP9 MLOAD PUSH2 0xE61 JUMP JUMPDEST SWAP7 ADD SWAP3 ADD SWAP7 ADD SWAP6 SWAP3 SWAP2 SWAP1 SWAP3 PUSH2 0x1C24 JUMP JUMPDEST PUSH1 0x5 DUP9 PUSH1 0x1 SWAP3 PUSH2 0x1C70 DUP6 SWAP12 SWAP11 SWAP9 SWAP12 PUSH2 0x2608 JUMP JUMPDEST DUP2 MSTORE ADD SWAP3 ADD SWAP3 ADD SWAP2 SWAP1 SWAP7 SWAP4 SWAP6 SWAP7 PUSH2 0x1BF8 JUMP JUMPDEST CALLVALUE PUSH2 0x2FC JUMPI PUSH1 0x0 CALLDATASIZE PUSH1 0x3 NOT ADD SLT PUSH2 0x2FC JUMPI PUSH1 0x20 PUSH1 0x40 MLOAD PUSH1 0x4 DUP2 MSTORE RETURN JUMPDEST CALLVALUE PUSH2 0x2FC JUMPI PUSH1 0xA0 CALLDATASIZE PUSH1 0x3 NOT ADD SLT PUSH2 0x2FC JUMPI PUSH2 0x1CB7 PUSH2 0x2E6 JUMP JUMPDEST PUSH2 0x1CBF PUSH2 0x301 JUMP JUMPDEST PUSH1 0x84 CALLDATALOAD PUSH1 0x1 PUSH1 0x1 PUSH1 0x40 SHL SUB DUP2 GT PUSH2 0x2FC JUMPI PUSH2 0x1CDE SWAP1 CALLDATASIZE SWAP1 PUSH1 0x4 ADD PUSH2 0x658 JUMP JUMPDEST SWAP1 PUSH1 0x1 PUSH1 0x1 PUSH1 0xA0 SHL SUB DUP4 DUP2 AND SWAP1 CALLER DUP3 EQ ISZERO DUP1 PUSH2 0x1D97 JUMPI JUMPDEST PUSH2 0x1D70 JUMPI DUP3 AND ISZERO PUSH2 0x1D57 JUMPI ISZERO PUSH2 0x1D3F JUMPI PUSH2 0xC94 SWAP3 PUSH2 0x1D37 PUSH1 0x64 CALLDATALOAD PUSH1 0x44 CALLDATALOAD SWAP2 PUSH1 0x40 MLOAD SWAP3 PUSH1 0x1 DUP5 MSTORE PUSH1 0x20 DUP5 ADD MSTORE PUSH1 0x40 DUP4 ADD SWAP2 PUSH1 0x1 DUP4 MSTORE PUSH1 0x60 DUP5 ADD MSTORE PUSH1 0x80 DUP4 ADD PUSH1 0x40 MSTORE JUMP JUMPDEST SWAP3 SWAP1 SWAP2 PUSH2 0x342D JUMP JUMPDEST PUSH1 0x40 MLOAD PUSH3 0x6A0D45 PUSH1 0xE2 SHL DUP2 MSTORE PUSH1 0x0 PUSH1 0x4 DUP3 ADD MSTORE PUSH1 0x24 SWAP1 REVERT JUMPDEST PUSH1 0x40 MLOAD PUSH4 0x2BFA23E7 PUSH1 0xE1 SHL DUP2 MSTORE PUSH1 0x0 PUSH1 0x4 DUP3 ADD MSTORE PUSH1 0x24 SWAP1 REVERT JUMPDEST PUSH1 0x40 MLOAD PUSH4 0x711BEC91 PUSH1 0xE1 SHL DUP2 MSTORE CALLER PUSH1 0x4 DUP3 ADD MSTORE PUSH1 0x1 PUSH1 0x1 PUSH1 0xA0 SHL SUB DUP7 AND PUSH1 0x24 DUP3 ADD MSTORE PUSH1 0x44 SWAP1 REVERT JUMPDEST POP PUSH1 0x0 DUP3 DUP2 MSTORE PUSH1 0x1 PUSH1 0x20 SWAP1 DUP2 MSTORE PUSH1 0x40 DUP1 DUP4 KECCAK256 CALLER DUP5 MSTORE SWAP1 SWAP2 MSTORE SWAP1 KECCAK256 SLOAD PUSH1 0xFF AND ISZERO PUSH2 0x1CF5 JUMP JUMPDEST CALLVALUE PUSH2 0x2FC JUMPI PUSH1 0x20 CALLDATASIZE PUSH1 0x3 NOT ADD SLT PUSH2 0x2FC JUMPI PUSH2 0x1DD4 PUSH2 0x2E6 JUMP JUMPDEST PUSH2 0x1DDC PUSH2 0x2CAE JUMP JUMPDEST PUSH1 0x1 PUSH1 0x1 PUSH1 0xA0 SHL SUB SWAP1 DUP2 AND SWAP1 DUP2 ISZERO PUSH2 0x1E2A JUMPI PUSH1 0x3 DUP1 SLOAD PUSH1 0x1 PUSH1 0x1 PUSH1 0xA0 SHL SUB NOT DUP2 AND DUP5 OR SWAP1 SWAP2 SSTORE AND PUSH32 0x8BE0079C531659141344CD1FD0A4F28419497F9722A3DAAFE3B4186F6B6457E0 PUSH1 0x0 DUP1 LOG3 STOP JUMPDEST PUSH1 0x40 MLOAD PUSH4 0x1E4FBDF7 PUSH1 0xE0 SHL DUP2 MSTORE PUSH1 0x0 PUSH1 0x4 DUP3 ADD MSTORE PUSH1 0x24 SWAP1 REVERT JUMPDEST PUSH1 0x8 SLOAD DUP2 LT ISZERO PUSH2 0xFFE JUMPI PUSH1 0x8 PUSH1 0x0 MSTORE PUSH1 0x5 PUSH1 0x20 PUSH1 0x0 KECCAK256 SWAP2 MUL ADD SWAP1 PUSH1 0x0 SWAP1 JUMP JUMPDEST CALLVALUE PUSH2 0x2FC JUMPI PUSH1 0x20 CALLDATASIZE PUSH1 0x3 NOT ADD SLT PUSH2 0x2FC JUMPI PUSH1 0x4 CALLDATALOAD PUSH1 0x8 SLOAD DUP2 LT ISZERO PUSH2 0x2FC JUMPI PUSH2 0x1E89 SWAP1 PUSH2 0x1E43 JUMP JUMPDEST POP DUP1 SLOAD PUSH1 0x1 PUSH1 0x1 PUSH1 0xA0 SHL SUB AND PUSH2 0x1EA1 PUSH1 0x1 DUP4 ADD PUSH2 0x103D JUMP JUMPDEST SWAP2 PUSH1 0x2 DUP2 ADD SLOAD SWAP1 PUSH1 0xFF PUSH1 0x4 PUSH1 0x3 DUP4 ADD SLOAD SWAP3 ADD SLOAD AND SWAP1 PUSH2 0x1ED2 PUSH1 0x40 MLOAD SWAP6 DUP7 SWAP6 DUP7 MSTORE PUSH1 0xA0 PUSH1 0x20 DUP8 ADD MSTORE PUSH1 0xA0 DUP7 ADD SWAP1 PUSH2 0x39B JUMP JUMPDEST SWAP3 PUSH1 0x40 DUP6 ADD MSTORE PUSH1 0x60 DUP5 ADD MSTORE ISZERO ISZERO PUSH1 0x80 DUP4 ADD MSTORE SUB SWAP1 RETURN JUMPDEST SWAP1 PUSH1 0x40 MLOAD PUSH2 0x1EF5 DUP2 PUSH2 0x575 JUMP JUMPDEST PUSH1 0x60 PUSH1 0x3 DUP3 SWAP5 PUSH2 0x1F04 DUP2 PUSH2 0x103D JUMP JUMPDEST DUP5 MSTORE PUSH1 0x1 DUP2 ADD SLOAD PUSH1 0x20 DUP6 ADD MSTORE PUSH1 0x2 DUP2 ADD SLOAD PUSH1 0x40 DUP6 ADD MSTORE ADD SLOAD SWAP2 ADD MSTORE JUMP JUMPDEST PUSH1 0x1 PUSH1 0x1 PUSH1 0xA0 SHL SUB AND PUSH1 0x0 SWAP1 DUP2 MSTORE PUSH1 0xB PUSH1 0x20 MSTORE PUSH1 0x40 SWAP1 KECCAK256 SLOAD PUSH2 0x1F42 JUMPI PUSH1 0x0 SWAP1 JUMP JUMPDEST PUSH1 0x1 SWAP1 JUMP JUMPDEST PUSH1 0x40 MLOAD SWAP1 PUSH2 0x1F54 DUP3 PUSH2 0x575 JUMP JUMPDEST PUSH1 0x0 PUSH1 0x60 DUP4 DUP2 DUP2 MSTORE DUP3 PUSH1 0x20 DUP3 ADD MSTORE DUP3 PUSH1 0x40 DUP3 ADD MSTORE ADD MSTORE JUMP JUMPDEST PUSH2 0x1F74 PUSH2 0x1F47 JUMP JUMPDEST POP PUSH2 0x1F7E DUP2 PUSH2 0x2C8D JUMP JUMPDEST ISZERO PUSH2 0x1FAA JUMPI PUSH1 0x1 DUP1 PUSH1 0xA0 SHL SUB AND PUSH1 0x0 MSTORE PUSH1 0xC PUSH1 0x20 MSTORE PUSH2 0x6C9 PUSH2 0x1FA4 PUSH1 0x40 PUSH1 0x0 KECCAK256 SLOAD PUSH2 0x197E JUMP JUMPDEST POP PUSH2 0x1EE8 JUMP JUMPDEST PUSH1 0x40 MLOAD PUSH3 0x461BCD PUSH1 0xE5 SHL DUP2 MSTORE PUSH1 0x20 PUSH1 0x4 DUP3 ADD MSTORE PUSH1 0x19 PUSH1 0x24 DUP3 ADD MSTORE PUSH25 0x47616D6520746F6B656E20646F65736E277420657869737421 PUSH1 0x38 SHL PUSH1 0x44 DUP3 ADD MSTORE PUSH1 0x64 SWAP1 REVERT JUMPDEST SWAP1 PUSH2 0x1FFE PUSH1 0x20 SWAP3 DUP3 DUP2 MLOAD SWAP5 DUP6 SWAP3 ADD PUSH2 0x378 JUMP JUMPDEST ADD SWAP1 JUMP JUMPDEST PUSH1 0x20 PUSH2 0x201B SWAP2 DUP2 PUSH1 0x40 MLOAD SWAP4 DUP3 DUP6 DUP1 SWAP5 MLOAD SWAP4 DUP5 SWAP3 ADD PUSH2 0x378 JUMP JUMPDEST DUP2 ADD PUSH1 0xD DUP2 MSTORE SUB ADD SWAP1 KECCAK256 SWAP1 JUMP JUMPDEST PUSH2 0x2031 SWAP1 PUSH2 0x2002 JUMP JUMPDEST SLOAD PUSH2 0x1F42 JUMPI PUSH1 0x0 SWAP1 JUMP JUMPDEST PUSH1 0x40 SWAP1 PUSH1 0x0 PUSH1 0xA0 DUP4 MLOAD PUSH2 0x204D DUP2 PUSH2 0x595 JUMP JUMPDEST DUP1 SWAP5 DUP4 DUP3 MSTORE DUP4 PUSH1 0x20 DUP4 ADD MSTORE PUSH1 0x60 DUP2 DUP4 ADD MSTORE DUP1 MLOAD PUSH2 0x2069 DUP2 PUSH2 0x5CB JUMP JUMPDEST DUP2 CALLDATASIZE DUP3 CALLDATACOPY PUSH1 0x60 DUP4 ADD MSTORE DUP1 MLOAD SWAP1 PUSH2 0x207E DUP3 PUSH2 0x5CB JUMP JUMPDEST CALLDATASIZE DUP3 CALLDATACOPY PUSH1 0x80 DUP3 ADD MSTORE ADD MSTORE JUMP JUMPDEST PUSH1 0x3 DUP3 LT ISZERO PUSH2 0x959 JUMPI MSTORE JUMP JUMPDEST SWAP1 PUSH1 0xFF PUSH1 0x40 MLOAD SWAP3 SLOAD DUP2 DUP2 AND DUP5 MSTORE PUSH1 0x8 SHR AND PUSH1 0x20 DUP4 ADD MSTORE PUSH2 0x614 DUP3 PUSH2 0x5CB JUMP JUMPDEST SWAP1 PUSH1 0x40 MLOAD PUSH2 0x20C2 DUP2 PUSH2 0x595 JUMP JUMPDEST DUP1 SWAP3 PUSH2 0x20D2 PUSH1 0xFF DUP3 SLOAD AND DUP4 PUSH2 0x208A JUMP JUMPDEST PUSH1 0x1 DUP1 DUP3 ADD SLOAD SWAP1 PUSH1 0x20 SWAP2 PUSH1 0x20 DUP6 ADD MSTORE PUSH1 0x2 PUSH2 0x20EF PUSH1 0x2 DUP6 ADD PUSH2 0x103D JUMP JUMPDEST PUSH1 0x40 DUP7 ADD MSTORE PUSH1 0x40 MLOAD SWAP3 DUP4 SWAP1 PUSH1 0x3 DUP7 ADD PUSH1 0x0 SWAP3 JUMPDEST DUP5 DUP5 LT PUSH2 0x2157 JUMPI POP POP POP POP POP POP PUSH2 0x2149 PUSH1 0x6 PUSH2 0x614 SWAP5 SWAP4 DUP4 PUSH2 0x2125 PUSH1 0xA0 SWAP6 PUSH2 0x5CB JUMP JUMPDEST PUSH1 0x60 DUP7 ADD MSTORE PUSH2 0x2136 PUSH1 0x5 DUP3 ADD PUSH2 0x2096 JUMP JUMPDEST PUSH1 0x80 DUP7 ADD MSTORE ADD SLOAD PUSH1 0x1 PUSH1 0x1 PUSH1 0xA0 SHL SUB AND SWAP1 JUMP JUMPDEST PUSH1 0x1 PUSH1 0x1 PUSH1 0xA0 SHL SUB AND SWAP2 ADD MSTORE JUMP JUMPDEST DUP2 SLOAD PUSH1 0x1 PUSH1 0x1 PUSH1 0xA0 SHL SUB AND DUP2 MSTORE SWAP3 DUP6 ADD SWAP3 SWAP1 DUP6 ADD SWAP1 DUP3 ADD PUSH2 0x2102 JUMP JUMPDEST PUSH2 0x217B PUSH2 0x203B JUMP JUMPDEST POP PUSH2 0x2185 DUP2 PUSH2 0x2028 JUMP JUMPDEST ISZERO PUSH2 0x21A5 JUMPI PUSH2 0x219F PUSH2 0x2199 PUSH2 0x6C9 SWAP3 PUSH2 0x2002 JUMP JUMPDEST SLOAD PUSH2 0xFDF JUMP JUMPDEST POP PUSH2 0x20B5 JUMP JUMPDEST PUSH1 0x40 MLOAD PUSH3 0x461BCD PUSH1 0xE5 SHL DUP2 MSTORE PUSH1 0x20 PUSH1 0x4 DUP3 ADD MSTORE PUSH1 0x15 PUSH1 0x24 DUP3 ADD MSTORE PUSH21 0x426174746C6520646F65736E277420657869737421 PUSH1 0x58 SHL PUSH1 0x44 DUP3 ADD MSTORE PUSH1 0x64 SWAP1 REVERT JUMPDEST ISZERO PUSH2 0x21E9 JUMPI JUMP JUMPDEST PUSH1 0x40 MLOAD PUSH3 0x461BCD PUSH1 0xE5 SHL DUP2 MSTORE PUSH1 0x20 PUSH1 0x4 DUP3 ADD MSTORE PUSH1 0x1C PUSH1 0x24 DUP3 ADD MSTORE PUSH32 0x506C6561736520526567697374657220506C6179657220466972737400000000 PUSH1 0x44 DUP3 ADD MSTORE PUSH1 0x64 SWAP1 REVERT JUMPDEST ISZERO PUSH2 0x2235 JUMPI JUMP JUMPDEST PUSH1 0x40 MLOAD PUSH3 0x461BCD PUSH1 0xE5 SHL DUP2 MSTORE PUSH1 0x20 PUSH1 0x4 DUP3 ADD MSTORE PUSH1 0x16 PUSH1 0x24 DUP3 ADD MSTORE PUSH22 0x426174746C6520616C72656164792065786973747321 PUSH1 0x50 SHL PUSH1 0x44 DUP3 ADD MSTORE PUSH1 0x64 SWAP1 REVERT JUMPDEST SWAP1 PUSH1 0x3 DUP2 LT ISZERO PUSH2 0x959 JUMPI PUSH1 0xFF DUP1 NOT DUP4 SLOAD AND SWAP2 AND OR SWAP1 SSTORE JUMP JUMPDEST DUP2 DUP2 LT PUSH2 0x2296 JUMPI POP POP JUMP JUMPDEST PUSH1 0x0 DUP2 SSTORE PUSH1 0x1 ADD PUSH2 0x228B JUMP JUMPDEST SWAP1 PUSH1 0x1F DUP3 GT PUSH2 0x22AF JUMPI POP POP JUMP JUMPDEST PUSH2 0x614 SWAP2 PUSH1 0x2 PUSH1 0x0 MSTORE PUSH1 0x20 PUSH1 0x0 KECCAK256 SWAP1 PUSH1 0x20 PUSH1 0x1F DUP5 ADD PUSH1 0x5 SHR DUP4 ADD SWAP4 LT PUSH2 0x22DD JUMPI JUMPDEST PUSH1 0x1F ADD PUSH1 0x5 SHR ADD SWAP1 PUSH2 0x228B JUMP JUMPDEST SWAP1 SWAP2 POP DUP2 SWAP1 PUSH2 0x22D0 JUMP JUMPDEST SWAP2 SWAP1 PUSH1 0x1F DUP2 GT PUSH2 0x22F6 JUMPI POP POP POP JUMP JUMPDEST PUSH2 0x614 SWAP3 PUSH1 0x0 MSTORE PUSH1 0x20 PUSH1 0x0 KECCAK256 SWAP1 PUSH1 0x20 PUSH1 0x1F DUP5 ADD PUSH1 0x5 SHR DUP4 ADD SWAP4 LT PUSH2 0x22DD JUMPI PUSH1 0x1F ADD PUSH1 0x5 SHR ADD SWAP1 PUSH2 0x228B JUMP JUMPDEST SWAP2 SWAP1 SWAP2 DUP3 MLOAD PUSH1 0x1 PUSH1 0x1 PUSH1 0x40 SHL SUB DUP2 GT PUSH2 0x590 JUMPI PUSH2 0x2348 DUP2 PUSH2 0x2342 DUP5 SLOAD PUSH2 0x1003 JUMP JUMPDEST DUP5 PUSH2 0x22E7 JUMP JUMPDEST PUSH1 0x20 DUP1 PUSH1 0x1F DUP4 GT PUSH1 0x1 EQ PUSH2 0x237F JUMPI POP DUP2 SWAP1 PUSH2 0x237B SWAP4 SWAP5 SWAP6 PUSH1 0x0 SWAP3 PUSH2 0x73D JUMPI POP POP DUP2 PUSH1 0x1 SHL SWAP2 PUSH1 0x0 NOT SWAP1 PUSH1 0x3 SHL SHR NOT AND OR SWAP1 JUMP JUMPDEST SWAP1 SSTORE JUMP JUMPDEST SWAP1 PUSH1 0x1F NOT DUP4 AND SWAP6 PUSH2 0x2395 DUP6 PUSH1 0x0 MSTORE PUSH1 0x20 PUSH1 0x0 KECCAK256 SWAP1 JUMP JUMPDEST SWAP3 PUSH1 0x0 SWAP1 JUMPDEST DUP9 DUP3 LT PUSH2 0x23D2 JUMPI POP POP DUP4 PUSH1 0x1 SWAP6 SWAP7 SWAP8 LT PUSH2 0x23B9 JUMPI JUMPDEST POP POP POP DUP2 SHL ADD SWAP1 SSTORE JUMP JUMPDEST ADD MLOAD PUSH1 0x0 NOT PUSH1 0xF8 DUP5 PUSH1 0x3 SHL AND SHR NOT AND SWAP1 SSTORE CODESIZE DUP1 DUP1 PUSH2 0x23AF JUMP JUMPDEST DUP1 PUSH1 0x1 DUP6 SWAP7 DUP3 SWAP5 SWAP7 DUP7 ADD MLOAD DUP2 SSTORE ADD SWAP6 ADD SWAP4 ADD SWAP1 PUSH2 0x239A JUMP JUMPDEST PUSH4 0x4E487B71 PUSH1 0xE0 SHL PUSH1 0x0 MSTORE PUSH1 0x11 PUSH1 0x4 MSTORE PUSH1 0x24 PUSH1 0x0 REVERT JUMPDEST SWAP1 PUSH1 0xA DUP3 MUL SWAP2 DUP1 DUP4 DIV PUSH1 0xA EQ SWAP1 ISZERO OR ISZERO PUSH2 0x2416 JUMPI JUMP JUMPDEST PUSH2 0x23EA JUMP JUMPDEST SWAP1 PUSH1 0x0 JUMPDEST PUSH1 0x2 DUP2 LT PUSH2 0x242C JUMPI POP POP POP JUMP JUMPDEST DUP2 MLOAD PUSH1 0x1 PUSH1 0x1 PUSH1 0xA0 SHL SUB AND DUP2 DUP5 ADD SSTORE PUSH1 0x20 SWAP1 SWAP2 ADD SWAP1 PUSH1 0x1 ADD PUSH2 0x241F JUMP JUMPDEST PUSH1 0x0 SWAP2 PUSH1 0x0 JUMPDEST PUSH1 0x2 DUP2 LT PUSH2 0x245C JUMPI POP POP SSTORE JUMP JUMPDEST SWAP1 SWAP3 PUSH1 0x20 PUSH2 0x2481 PUSH1 0x1 SWAP3 DUP5 PUSH1 0xFF DUP9 MLOAD AND SWAP2 SWAP1 PUSH1 0xFF DUP1 SWAP2 PUSH1 0x3 SHL SWAP4 AND DUP4 SHL SWAP3 SHL NOT AND OR SWAP1 JUMP JUMPDEST SWAP5 ADD SWAP2 ADD PUSH2 0x244F JUMP JUMPDEST PUSH1 0xA SLOAD PUSH1 0x1 PUSH1 0x40 SHL DUP2 LT ISZERO PUSH2 0x590 JUMPI PUSH1 0x1 DUP2 ADD DUP1 PUSH1 0xA SSTORE DUP2 LT ISZERO PUSH2 0xFFE JUMPI PUSH1 0xA PUSH1 0x0 MSTORE PUSH1 0x7 PUSH1 0x20 PUSH1 0x0 KECCAK256 SWAP2 MUL ADD DUP2 MLOAD PUSH1 0x3 DUP2 LT ISZERO PUSH2 0x959 JUMPI PUSH2 0x614 SWAP3 PUSH2 0x24D2 PUSH1 0x6 SWAP3 DUP5 PUSH2 0x2273 JUMP JUMPDEST PUSH1 0x20 DUP2 ADD MLOAD PUSH1 0x1 DUP5 ADD SSTORE PUSH2 0x24ED PUSH1 0x40 DUP3 ADD MLOAD PUSH1 0x2 DUP6 ADD PUSH2 0x2321 JUMP JUMPDEST PUSH2 0x24FE PUSH1 0x60 DUP3 ADD MLOAD PUSH1 0x3 DUP6 ADD PUSH2 0x241B JUMP JUMPDEST PUSH2 0x250F PUSH1 0x80 DUP3 ADD MLOAD PUSH1 0x5 DUP6 ADD PUSH2 0x2449 JUMP JUMPDEST PUSH1 0xA0 ADD MLOAD SWAP2 ADD DUP1 SLOAD PUSH1 0x1 PUSH1 0x1 PUSH1 0xA0 SHL SUB NOT AND PUSH1 0x1 PUSH1 0x1 PUSH1 0xA0 SHL SUB SWAP3 SWAP1 SWAP3 AND SWAP2 SWAP1 SWAP2 OR SWAP1 SSTORE JUMP JUMPDEST DUP1 MLOAD DUP3 LT ISZERO PUSH2 0xFFE JUMPI PUSH1 0x20 SWAP2 PUSH1 0x5 SHL ADD ADD SWAP1 JUMP JUMPDEST SWAP2 SWAP1 SWAP2 DUP1 MLOAD DUP4 MLOAD DUP1 DUP3 SUB PUSH2 0x25E6 JUMPI POP POP DUP1 MLOAD SWAP1 PUSH2 0x257E PUSH2 0x2568 DUP4 PUSH2 0xB77 JUMP JUMPDEST SWAP3 PUSH2 0x2576 PUSH1 0x40 MLOAD SWAP5 DUP6 PUSH2 0x5E6 JUMP JUMPDEST DUP1 DUP5 MSTORE PUSH2 0xB77 JUMP JUMPDEST PUSH1 0x20 SWAP2 SWAP1 PUSH1 0x1F NOT ADD CALLDATASIZE DUP5 DUP5 ADD CALLDATACOPY PUSH1 0x0 JUMPDEST DUP2 MLOAD DUP2 LT ISZERO PUSH2 0x25DE JUMPI PUSH1 0x5 DUP2 SWAP1 SHL DUP3 DUP2 ADD DUP5 ADD MLOAD SWAP1 DUP8 ADD DUP5 ADD MLOAD PUSH1 0x0 SWAP1 DUP2 MSTORE PUSH1 0x20 DUP2 DUP2 MSTORE PUSH1 0x40 DUP1 DUP4 KECCAK256 PUSH1 0x1 PUSH1 0x1 PUSH1 0xA0 SHL SUB SWAP1 SWAP5 AND DUP4 MSTORE SWAP3 SWAP1 MSTORE KECCAK256 SLOAD PUSH1 0x1 SWAP2 SWAP1 PUSH2 0x25D7 DUP3 DUP8 PUSH2 0x2535 JUMP JUMPDEST MSTORE ADD PUSH2 0x258E JUMP JUMPDEST POP SWAP2 SWAP4 POP POP POP JUMP JUMPDEST PUSH1 0x40 MLOAD PUSH4 0x5B059991 PUSH1 0xE0 SHL DUP2 MSTORE PUSH1 0x4 DUP2 ADD SWAP2 SWAP1 SWAP2 MSTORE PUSH1 0x24 DUP2 ADD SWAP2 SWAP1 SWAP2 MSTORE PUSH1 0x44 SWAP1 REVERT JUMPDEST SWAP1 PUSH1 0x40 MLOAD PUSH2 0x2615 DUP2 PUSH2 0x5B0 JUMP JUMPDEST PUSH1 0x80 PUSH1 0xFF PUSH1 0x4 DUP4 SWAP6 PUSH1 0x1 DUP1 PUSH1 0xA0 SHL SUB DUP2 SLOAD AND DUP6 MSTORE PUSH2 0x2635 PUSH1 0x1 DUP3 ADD PUSH2 0x103D JUMP JUMPDEST PUSH1 0x20 DUP7 ADD MSTORE PUSH1 0x2 DUP2 ADD SLOAD PUSH1 0x40 DUP7 ADD MSTORE PUSH1 0x3 DUP2 ADD SLOAD PUSH1 0x60 DUP7 ADD MSTORE ADD SLOAD AND ISZERO ISZERO SWAP2 ADD MSTORE JUMP JUMPDEST PUSH1 0x0 PUSH1 0x80 PUSH1 0x40 MLOAD PUSH2 0x2668 DUP2 PUSH2 0x5B0 JUMP JUMPDEST DUP3 DUP2 MSTORE PUSH1 0x60 PUSH1 0x20 DUP3 ADD MSTORE DUP3 PUSH1 0x40 DUP3 ADD MSTORE DUP3 PUSH1 0x60 DUP3 ADD MSTORE ADD MSTORE PUSH2 0x2689 DUP2 PUSH2 0x1F21 JUMP JUMPDEST ISZERO PUSH2 0x26B8 JUMPI PUSH1 0x1 PUSH1 0x1 PUSH1 0xA0 SHL SUB AND PUSH1 0x0 SWAP1 DUP2 MSTORE PUSH1 0xB PUSH1 0x20 MSTORE PUSH1 0x40 SWAP1 KECCAK256 PUSH2 0x6C9 SWAP1 PUSH2 0x26B2 SWAP1 PUSH2 0x15FE JUMP JUMPDEST POP PUSH2 0x2608 JUMP JUMPDEST PUSH1 0x40 MLOAD PUSH3 0x461BCD PUSH1 0xE5 SHL DUP2 MSTORE PUSH1 0x20 PUSH1 0x4 DUP3 ADD MSTORE PUSH1 0x15 PUSH1 0x24 DUP3 ADD MSTORE PUSH21 0x506C6179657220646F65736E277420657869737421 PUSH1 0x58 SHL PUSH1 0x44 DUP3 ADD MSTORE PUSH1 0x64 SWAP1 REVERT JUMPDEST PUSH1 0x8 SLOAD SWAP1 PUSH1 0x1 PUSH1 0x40 SHL DUP3 LT ISZERO PUSH2 0x590 JUMPI PUSH2 0x2717 PUSH1 0x1 SWAP3 PUSH1 0x1 DUP2 ADD PUSH1 0x8 SSTORE PUSH2 0x1E43 JUMP JUMPDEST SWAP3 SWAP1 SWAP3 PUSH2 0x285B JUMPI DUP2 MLOAD DUP4 SLOAD PUSH1 0x1 PUSH1 0x1 PUSH1 0xA0 SHL SUB NOT AND PUSH1 0x1 PUSH1 0x1 PUSH1 0xA0 SHL SUB SWAP2 SWAP1 SWAP2 AND OR DUP4 SSTORE PUSH1 0x1 DUP4 ADD SWAP1 PUSH1 0x20 DUP1 DUP5 ADD MLOAD DUP1 MLOAD SWAP3 PUSH1 0x1 PUSH1 0x1 PUSH1 0x40 SHL SUB DUP5 GT PUSH2 0x590 JUMPI PUSH2 0x276B DUP5 PUSH2 0x2765 DUP8 SLOAD PUSH2 0x1003 JUMP JUMPDEST DUP8 PUSH2 0x22E7 JUMP JUMPDEST PUSH1 0x20 SWAP3 PUSH1 0x1F DUP6 GT PUSH1 0x1 EQ PUSH2 0x27DC JUMPI POP POP SWAP4 PUSH1 0x4 SWAP4 PUSH2 0x27AB DUP5 PUSH2 0x27C9 SWAP6 PUSH1 0x80 SWAP6 PUSH2 0x614 SWAP11 SWAP10 PUSH1 0x0 SWAP3 PUSH2 0x73D JUMPI POP POP DUP2 PUSH1 0x1 SHL SWAP2 PUSH1 0x0 NOT SWAP1 PUSH1 0x3 SHL SHR NOT AND OR SWAP1 JUMP JUMPDEST SWAP1 SSTORE JUMPDEST PUSH1 0x40 DUP2 ADD MLOAD PUSH1 0x2 DUP7 ADD SSTORE PUSH1 0x60 DUP2 ADD MLOAD PUSH1 0x3 DUP7 ADD SSTORE ADD MLOAD ISZERO ISZERO SWAP1 JUMP JUMPDEST SWAP2 ADD SWAP1 PUSH1 0xFF DUP1 NOT DUP4 SLOAD AND SWAP2 ISZERO ISZERO AND OR SWAP1 SSTORE JUMP JUMPDEST SWAP3 SWAP2 SWAP1 PUSH1 0x1F NOT DUP6 AND SWAP1 PUSH2 0x27F4 DUP8 PUSH1 0x0 MSTORE PUSH1 0x20 PUSH1 0x0 KECCAK256 SWAP1 JUMP JUMPDEST SWAP5 PUSH1 0x0 SWAP2 JUMPDEST DUP4 DUP4 LT PUSH2 0x2844 JUMPI POP POP POP DUP5 PUSH1 0x80 SWAP5 PUSH2 0x614 SWAP10 SWAP9 SWAP5 PUSH1 0x4 SWAP9 SWAP5 PUSH2 0x27C9 SWAP9 PUSH1 0x1 SWAP6 LT PUSH2 0x282B JUMPI JUMPDEST POP POP POP DUP2 SHL ADD SWAP1 SSTORE PUSH2 0x27AE JUMP JUMPDEST ADD MLOAD PUSH1 0x0 NOT PUSH1 0xF8 DUP5 PUSH1 0x3 SHL AND SHR NOT AND SWAP1 SSTORE CODESIZE DUP1 DUP1 PUSH2 0x281E JUMP JUMPDEST DUP5 DUP7 ADD MLOAD DUP8 SSTORE SWAP6 DUP7 ADD SWAP6 SWAP5 DUP2 ADD SWAP5 SWAP2 DUP2 ADD SWAP2 PUSH2 0x27F9 JUMP JUMPDEST PUSH2 0x1161 JUMP JUMPDEST SWAP1 PUSH1 0x2 DUP2 LT ISZERO PUSH2 0xFFE JUMPI PUSH1 0x5 SHL ADD SWAP1 JUMP JUMPDEST PUSH1 0x80 PUSH2 0x287C CALLER PUSH2 0x2658 JUMP JUMPDEST ADD MLOAD PUSH2 0x29D4 JUMPI PUSH2 0x288E PUSH2 0xAC1 CALLER PUSH2 0x1F21 JUMP JUMPDEST PUSH2 0x2896 PUSH2 0x1F47 JUMP JUMPDEST POP PUSH2 0x28A0 CALLER PUSH2 0x356E JUMP JUMPDEST PUSH2 0x28A9 DUP2 PUSH2 0x2E56 JUMP JUMPDEST PUSH1 0x6 PUSH1 0xFF PUSH2 0x28ED PUSH2 0x188D PUSH1 0x40 MLOAD PUSH1 0x20 DUP2 ADD SWAP1 PUSH2 0x28E3 DUP2 PUSH2 0xAF4 CALLER TIMESTAMP DUP7 SWAP1 SWAP2 PUSH1 0x34 SWAP3 DUP3 MSTORE PUSH1 0x1 PUSH1 0x1 PUSH1 0x60 SHL SUB NOT SWAP1 PUSH1 0x60 SHL AND PUSH1 0x20 DUP3 ADD MSTORE ADD SWAP1 JUMP JUMPDEST MLOAD SWAP1 KECCAK256 PUSH1 0x64 SWAP1 MOD SWAP1 JUMP JUMPDEST AND MOD SWAP2 PUSH1 0xFF DUP4 AND ISZERO PUSH2 0x299F JUMPI JUMPDEST PUSH2 0x296D PUSH32 0xCA8AB07E9ED17D119729FC652DD24DF9D8430CA862DDA4631925B5B4B99DA362 SWAP4 SWAP5 PUSH2 0x2928 PUSH2 0x623 JUMP JUMPDEST SWAP1 DUP2 MSTORE PUSH1 0xFF DUP7 AND SWAP1 DUP2 PUSH1 0x20 DUP3 ADD MSTORE DUP4 PUSH1 0x40 DUP3 ADD MSTORE DUP5 PUSH1 0x60 DUP3 ADD MSTORE PUSH2 0x294E PUSH1 0x9 SLOAD SWAP2 PUSH2 0x2EA0 JUMP JUMPDEST CALLER PUSH1 0x0 SWAP1 DUP2 MSTORE PUSH1 0xC PUSH1 0x20 MSTORE PUSH1 0x40 SWAP1 KECCAK256 SSTORE PUSH2 0x2966 PUSH2 0x2FB8 JUMP JUMPDEST SWAP1 CALLER PUSH2 0x35B5 JUMP JUMPDEST PUSH2 0x2980 PUSH2 0x297B PUSH1 0x7 SLOAD PUSH2 0x2FD7 JUMP JUMPDEST PUSH1 0x7 SSTORE JUMP JUMPDEST PUSH1 0x40 DUP1 MLOAD PUSH1 0xFF SWAP6 SWAP1 SWAP6 AND DUP6 MSTORE PUSH1 0x20 DUP6 ADD SWAP2 SWAP1 SWAP2 MSTORE DUP4 ADD MSTORE CALLER SWAP2 PUSH1 0x60 SWAP1 LOG2 JUMP JUMPDEST PUSH2 0x296D PUSH2 0x29CC PUSH32 0xCA8AB07E9ED17D119729FC652DD24DF9D8430CA862DDA4631925B5B4B99DA362 SWAP5 PUSH2 0x2E8F JUMP JUMPDEST SWAP4 POP POP PUSH2 0x28FA JUMP JUMPDEST PUSH1 0x40 MLOAD PUSH3 0x461BCD PUSH1 0xE5 SHL DUP2 MSTORE PUSH1 0x20 PUSH1 0x4 DUP3 ADD MSTORE PUSH1 0x15 PUSH1 0x24 DUP3 ADD MSTORE PUSH21 0x506C6179657220697320696E206120626174746C65 PUSH1 0x58 SHL PUSH1 0x44 DUP3 ADD MSTORE PUSH1 0x64 SWAP1 REVERT JUMPDEST ISZERO PUSH2 0x2A18 JUMPI JUMP JUMPDEST PUSH1 0x40 MLOAD PUSH3 0x461BCD PUSH1 0xE5 SHL DUP2 MSTORE PUSH1 0x20 PUSH1 0x4 DUP3 ADD MSTORE PUSH1 0x17 PUSH1 0x24 DUP3 ADD MSTORE PUSH23 0x426174746C6520616C7265616479207374617274656421 PUSH1 0x48 SHL PUSH1 0x44 DUP3 ADD MSTORE PUSH1 0x64 SWAP1 REVERT JUMPDEST ISZERO PUSH2 0x2A5E JUMPI JUMP JUMPDEST PUSH1 0x40 MLOAD PUSH3 0x461BCD PUSH1 0xE5 SHL DUP2 MSTORE PUSH1 0x20 PUSH1 0x4 DUP3 ADD MSTORE PUSH1 0x21 PUSH1 0x24 DUP3 ADD MSTORE PUSH32 0x4F6E6C7920706C617965722074776F2063616E206A6F696E206120626174746C PUSH1 0x44 DUP3 ADD MSTORE PUSH1 0x65 PUSH1 0xF8 SHL PUSH1 0x64 DUP3 ADD MSTORE PUSH1 0x84 SWAP1 REVERT JUMPDEST ISZERO PUSH2 0x2AB4 JUMPI JUMP JUMPDEST PUSH1 0x40 MLOAD PUSH3 0x461BCD PUSH1 0xE5 SHL DUP2 MSTORE PUSH1 0x20 PUSH1 0x4 DUP3 ADD MSTORE PUSH1 0x11 PUSH1 0x24 DUP3 ADD MSTORE PUSH17 0x416C726561647920696E20626174746C65 PUSH1 0x78 SHL PUSH1 0x44 DUP3 ADD MSTORE PUSH1 0x64 SWAP1 REVERT JUMPDEST ISZERO PUSH2 0x2AF4 JUMPI JUMP JUMPDEST PUSH1 0x40 MLOAD PUSH3 0x461BCD PUSH1 0xE5 SHL DUP2 MSTORE PUSH1 0x20 PUSH1 0x4 DUP3 ADD MSTORE PUSH1 0x41 PUSH1 0x24 DUP3 ADD MSTORE PUSH32 0x426174746C65206E6F7420737461727465642E20506C656173652074656C6C20 PUSH1 0x44 DUP3 ADD MSTORE PUSH32 0x616E6F7468657220706C6179657220746F206A6F696E2074686520626174746C PUSH1 0x64 DUP3 ADD MSTORE PUSH1 0x65 PUSH1 0xF8 SHL PUSH1 0x84 DUP3 ADD MSTORE PUSH1 0xA4 SWAP1 REVERT JUMPDEST ISZERO PUSH2 0x2B70 JUMPI JUMP JUMPDEST PUSH1 0x40 MLOAD PUSH3 0x461BCD PUSH1 0xE5 SHL DUP2 MSTORE PUSH1 0x20 PUSH1 0x4 DUP3 ADD MSTORE PUSH1 0x18 PUSH1 0x24 DUP3 ADD MSTORE PUSH24 0x10985D1D1B19481A185CC8185B1C9958591E48195B991959 PUSH1 0x42 SHL PUSH1 0x44 DUP3 ADD MSTORE PUSH1 0x64 SWAP1 REVERT JUMPDEST ISZERO PUSH2 0x2BB7 JUMPI JUMP JUMPDEST PUSH1 0x40 MLOAD PUSH3 0x461BCD PUSH1 0xE5 SHL DUP2 MSTORE PUSH1 0x20 PUSH1 0x4 DUP3 ADD MSTORE PUSH1 0x1A PUSH1 0x24 DUP3 ADD MSTORE PUSH32 0x596F7520617265206E6F7420696E207468697320626174746C65000000000000 PUSH1 0x44 DUP3 ADD MSTORE PUSH1 0x64 SWAP1 REVERT JUMPDEST ISZERO PUSH2 0x2C03 JUMPI JUMP JUMPDEST PUSH1 0x40 MLOAD PUSH3 0x461BCD PUSH1 0xE5 SHL DUP2 MSTORE PUSH1 0x20 PUSH1 0x4 DUP3 ADD MSTORE PUSH1 0x1D PUSH1 0x24 DUP3 ADD MSTORE PUSH32 0x596F75206861766520616C7265616479206D6164652061206D6F766521000000 PUSH1 0x44 DUP3 ADD MSTORE PUSH1 0x64 SWAP1 REVERT JUMPDEST PUSH1 0xFF AND PUSH1 0x2 SUB SWAP1 PUSH1 0xFF DUP3 GT PUSH2 0x2416 JUMPI JUMP JUMPDEST SWAP1 PUSH1 0xFF DUP1 SWAP2 AND SWAP2 AND SUB SWAP1 PUSH1 0xFF DUP3 GT PUSH2 0x2416 JUMPI JUMP JUMPDEST PUSH2 0x2C85 SWAP1 PUSH1 0x20 PUSH1 0x40 MLOAD SWAP3 DUP3 DUP5 DUP1 SWAP5 MLOAD SWAP4 DUP5 SWAP3 ADD PUSH2 0x378 JUMP JUMPDEST DUP2 ADD SUB SWAP1 KECCAK256 SWAP1 JUMP JUMPDEST PUSH1 0x1 PUSH1 0x1 PUSH1 0xA0 SHL SUB AND PUSH1 0x0 SWAP1 DUP2 MSTORE PUSH1 0xC PUSH1 0x20 MSTORE PUSH1 0x40 SWAP1 KECCAK256 SLOAD PUSH2 0x1F42 JUMPI PUSH1 0x0 SWAP1 JUMP JUMPDEST PUSH1 0x3 SLOAD PUSH1 0x1 PUSH1 0x1 PUSH1 0xA0 SHL SUB AND CALLER SUB PUSH2 0x2CC2 JUMPI JUMP JUMPDEST PUSH1 0x40 MLOAD PUSH4 0x118CDAA7 PUSH1 0xE0 SHL DUP2 MSTORE CALLER PUSH1 0x4 DUP3 ADD MSTORE PUSH1 0x24 SWAP1 REVERT JUMPDEST ISZERO PUSH2 0x2CE1 JUMPI JUMP JUMPDEST PUSH1 0x40 MLOAD PUSH3 0x461BCD PUSH1 0xE5 SHL DUP2 MSTORE PUSH1 0x20 PUSH1 0x4 DUP3 ADD MSTORE PUSH1 0x14 PUSH1 0x24 DUP3 ADD MSTORE PUSH20 0x10985D1D1B1948185B1C9958591E48195B991959 PUSH1 0x62 SHL PUSH1 0x44 DUP3 ADD MSTORE PUSH1 0x64 SWAP1 REVERT JUMPDEST PUSH2 0x2D25 PUSH2 0x203B JUMP JUMPDEST POP PUSH2 0x2D46 PUSH1 0x2 DUP4 MLOAD PUSH2 0x2D36 DUP2 PUSH2 0x94F JUMP JUMPDEST PUSH2 0x2D3F DUP2 PUSH2 0x94F JUMP JUMPDEST EQ ISZERO PUSH2 0x2CDA JUMP JUMPDEST PUSH1 0x2 DUP3 MSTORE PUSH1 0x1 PUSH1 0x1 PUSH1 0xA0 SHL SUB DUP2 AND PUSH1 0xA0 DUP4 ADD MSTORE PUSH1 0x40 DUP3 ADD SWAP1 PUSH2 0x2D69 DUP4 DUP4 MLOAD PUSH2 0x2FE6 JUMP JUMPDEST PUSH32 0xAE6E5EAFB6CD1CB4B139E7A0B9140AA182EE7D50E99F50D660156F79212ACBC0 PUSH1 0x60 DUP5 ADD PUSH2 0x2E11 PUSH1 0x2 PUSH2 0x2DFB PUSH2 0x2DAB PUSH2 0x15E4 DUP6 MLOAD PUSH1 0x1 DUP1 PUSH1 0xA0 SHL SUB SWAP1 MLOAD AND SWAP1 JUMP JUMPDEST SLOAD PUSH2 0x2E03 DUP4 PUSH2 0x2DFB PUSH2 0x2DC4 PUSH2 0x15E4 PUSH2 0x1431 DUP11 MLOAD PUSH1 0x20 ADD SWAP1 JUMP JUMPDEST SLOAD SWAP4 PUSH2 0x2DE0 PUSH1 0x4 PUSH2 0x2DD4 DUP4 PUSH2 0x1E43 JUMP JUMPDEST POP ADD DUP1 SLOAD PUSH1 0xFF NOT AND SWAP1 SSTORE JUMP JUMPDEST PUSH2 0x2DF6 PUSH1 0x3 PUSH2 0x2DEE DUP4 PUSH2 0x1E43 JUMP JUMPDEST POP ADD PUSH1 0x19 SWAP1 SSTORE JUMP JUMPDEST PUSH2 0x1E43 JUMP JUMPDEST POP ADD PUSH1 0xA SWAP1 SSTORE JUMP JUMPDEST PUSH2 0x2DE0 PUSH1 0x4 PUSH2 0x2DD4 DUP4 PUSH2 0x1E43 JUMP JUMPDEST MLOAD DUP1 MLOAD PUSH1 0x1 PUSH1 0x1 PUSH1 0xA0 SHL SUB SWAP4 DUP5 AND SWAP4 SWAP2 DUP3 SWAP2 DUP3 AND DUP6 DUP2 SUB PUSH2 0x2E4D JUMPI POP PUSH1 0x20 ADD MLOAD AND SWAP4 JUMPDEST MLOAD SWAP4 PUSH2 0x2E47 PUSH1 0x40 MLOAD SWAP3 DUP4 SWAP3 AND SWAP6 DUP3 PUSH2 0x830 JUMP JUMPDEST SUB SWAP1 LOG3 SWAP1 JUMP JUMPDEST SWAP2 POP POP SWAP4 PUSH2 0x2E34 JUMP JUMPDEST PUSH1 0xA SUB SWAP1 PUSH1 0xA DUP3 GT PUSH2 0x2416 JUMPI JUMP JUMPDEST PUSH1 0x0 NOT DUP2 ADD SWAP2 SWAP1 DUP3 GT PUSH2 0x2416 JUMPI JUMP JUMPDEST PUSH1 0x2 NOT DUP2 ADD SWAP2 SWAP1 DUP3 GT PUSH2 0x2416 JUMPI JUMP JUMPDEST SWAP2 SWAP1 DUP3 SUB SWAP2 DUP3 GT PUSH2 0x2416 JUMPI JUMP JUMPDEST PUSH1 0xFF AND PUSH1 0xFF DUP2 EQ PUSH2 0x2416 JUMPI PUSH1 0x1 ADD SWAP1 JUMP JUMPDEST PUSH1 0x9 SLOAD SWAP1 PUSH1 0x1 PUSH1 0x40 SHL DUP3 LT ISZERO PUSH2 0x590 JUMPI PUSH2 0x2EC2 PUSH1 0x1 SWAP3 PUSH1 0x1 DUP2 ADD PUSH1 0x9 SSTORE PUSH2 0x197E JUMP JUMPDEST SWAP3 SWAP1 SWAP3 PUSH2 0x285B JUMPI DUP2 MLOAD SWAP1 DUP2 MLOAD SWAP2 PUSH1 0x1 PUSH1 0x1 PUSH1 0x40 SHL SUB DUP4 GT PUSH2 0x590 JUMPI PUSH2 0x2EEB DUP4 PUSH2 0x2765 DUP8 SLOAD PUSH2 0x1003 JUMP JUMPDEST PUSH1 0x20 SWAP2 DUP3 PUSH1 0x1 PUSH1 0x1F DUP7 GT EQ PUSH2 0x2F42 JUMPI POP POP DUP3 PUSH1 0x60 SWAP4 PUSH1 0x3 SWAP6 SWAP4 PUSH2 0x2F24 SWAP4 PUSH1 0x0 SWAP3 PUSH2 0x73D JUMPI POP POP DUP2 PUSH1 0x1 SHL SWAP2 PUSH1 0x0 NOT SWAP1 PUSH1 0x3 SHL SHR NOT AND OR SWAP1 JUMP JUMPDEST DUP5 SSTORE JUMPDEST PUSH1 0x20 DUP2 ADD MLOAD PUSH1 0x1 DUP6 ADD SSTORE PUSH1 0x40 DUP2 ADD MLOAD PUSH1 0x2 DUP6 ADD SSTORE ADD MLOAD SWAP2 ADD SSTORE JUMP JUMPDEST SWAP3 SWAP2 SWAP1 PUSH1 0x1F NOT DUP6 AND SWAP1 PUSH2 0x2F5A DUP9 PUSH1 0x0 MSTORE PUSH1 0x20 PUSH1 0x0 KECCAK256 SWAP1 JUMP JUMPDEST SWAP5 PUSH1 0x0 SWAP2 JUMPDEST DUP4 DUP4 LT PUSH2 0x2FA1 JUMPI POP POP POP SWAP3 PUSH1 0x1 SWAP3 DUP6 SWAP3 PUSH1 0x60 SWAP7 PUSH1 0x3 SWAP9 SWAP7 LT PUSH2 0x2F89 JUMPI JUMPDEST POP POP POP DUP2 SHL ADD DUP5 SSTORE PUSH2 0x2F27 JUMP JUMPDEST ADD MLOAD PUSH1 0x0 NOT DUP4 DUP9 SHL PUSH1 0xF8 AND SHR NOT AND SWAP1 SSTORE CODESIZE DUP1 DUP1 PUSH2 0x2F7C JUMP JUMPDEST DUP5 DUP7 ADD MLOAD DUP8 SSTORE SWAP6 DUP7 ADD SWAP6 SWAP5 DUP2 ADD SWAP5 SWAP2 DUP2 ADD SWAP2 PUSH2 0x2F5F JUMP JUMPDEST PUSH1 0x40 MLOAD SWAP1 PUSH2 0x2FC5 DUP3 PUSH2 0x5CB JUMP JUMPDEST PUSH1 0x3 DUP3 MSTORE PUSH3 0x30783 PUSH1 0xEC SHL PUSH1 0x20 DUP4 ADD MSTORE JUMP JUMPDEST PUSH1 0x0 NOT DUP2 EQ PUSH2 0x2416 JUMPI PUSH1 0x1 ADD SWAP1 JUMP JUMPDEST PUSH2 0x2FEF DUP2 PUSH2 0x2028 JUMP JUMPDEST ISZERO PUSH2 0x3090 JUMPI PUSH2 0x2199 PUSH2 0x3000 SWAP2 PUSH2 0x2002 JUMP JUMPDEST PUSH2 0x285B JUMPI DUP2 MLOAD PUSH1 0x3 DUP2 LT ISZERO PUSH2 0x959 JUMPI PUSH2 0x306F PUSH1 0xA0 PUSH2 0x614 SWAP5 PUSH2 0x3024 PUSH1 0x6 SWAP5 DUP7 PUSH2 0x2273 JUMP JUMPDEST PUSH1 0x20 DUP2 ADD MLOAD PUSH1 0x1 DUP7 ADD SSTORE PUSH2 0x303F PUSH1 0x40 DUP3 ADD MLOAD PUSH1 0x2 DUP8 ADD PUSH2 0x2321 JUMP JUMPDEST PUSH2 0x3050 PUSH1 0x60 DUP3 ADD MLOAD PUSH1 0x3 DUP8 ADD PUSH2 0x241B JUMP JUMPDEST PUSH2 0x3061 PUSH1 0x80 DUP3 ADD MLOAD PUSH1 0x5 DUP8 ADD PUSH2 0x2449 JUMP JUMPDEST ADD MLOAD PUSH1 0x1 PUSH1 0x1 PUSH1 0xA0 SHL SUB AND SWAP1 JUMP JUMPDEST SWAP2 ADD DUP1 SLOAD PUSH1 0x1 PUSH1 0x1 PUSH1 0xA0 SHL SUB NOT AND PUSH1 0x1 PUSH1 0x1 PUSH1 0xA0 SHL SUB SWAP1 SWAP3 AND SWAP2 SWAP1 SWAP2 OR SWAP1 SSTORE JUMP JUMPDEST PUSH1 0x40 MLOAD PUSH3 0x461BCD PUSH1 0xE5 SHL DUP2 MSTORE PUSH1 0x20 PUSH1 0x4 DUP3 ADD MSTORE PUSH1 0x14 PUSH1 0x24 DUP3 ADD MSTORE PUSH20 0x10985D1D1B1948191BD95CDB89DD08195E1A5CDD PUSH1 0x62 SHL PUSH1 0x44 DUP3 ADD MSTORE PUSH1 0x64 SWAP1 REVERT JUMPDEST ISZERO PUSH2 0x30D3 JUMPI JUMP JUMPDEST PUSH1 0x40 MLOAD PUSH3 0x461BCD PUSH1 0xE5 SHL DUP2 MSTORE PUSH1 0x20 PUSH1 0x4 DUP3 ADD MSTORE PUSH1 0x22 PUSH1 0x24 DUP3 ADD MSTORE PUSH32 0x4D616E61206E6F742073756666696369656E7420666F722061747461636B696E PUSH1 0x44 DUP3 ADD MSTORE PUSH2 0x6721 PUSH1 0xF0 SHL PUSH1 0x64 DUP3 ADD MSTORE PUSH1 0x84 SWAP1 REVERT JUMPDEST SWAP2 SWAP1 SWAP2 PUSH1 0x2 DUP4 LT ISZERO PUSH2 0xFFE JUMPI PUSH1 0x1F SWAP1 DUP4 PUSH1 0x5 SHR ADD SWAP3 AND SWAP1 JUMP JUMPDEST SWAP2 PUSH1 0xFF DUP3 AND SWAP3 PUSH1 0x1 DUP5 EQ DUP1 SWAP5 DUP2 ISZERO PUSH2 0x31FD JUMPI JUMPDEST POP ISZERO PUSH2 0x31B8 JUMPI PUSH1 0x5 PUSH2 0x318A PUSH2 0x2199 PUSH2 0x3191 SWAP5 PUSH2 0x614 SWAP8 PUSH1 0x0 EQ PUSH2 0x31AE JUMPI PUSH2 0x3185 PUSH1 0x3 PUSH1 0x40 PUSH2 0x317C CALLER PUSH2 0x2658 JUMP JUMPDEST ADD MLOAD LT ISZERO PUSH2 0x30CC JUMP JUMPDEST PUSH2 0x2002 JUMP JUMPDEST POP ADD PUSH2 0x3123 JUMP JUMPDEST SWAP1 DUP1 SLOAD SWAP1 SWAP3 PUSH1 0xFF PUSH1 0x3 SWAP4 SWAP1 SWAP4 SHL DUP4 DUP2 SHL NOT SWAP1 SWAP3 AND SWAP3 AND SWAP1 SHL OR SWAP1 SSTORE JUMP JUMPDEST PUSH2 0x3185 PUSH1 0x1 PUSH2 0x30CC JUMP JUMPDEST PUSH1 0x40 MLOAD PUSH3 0x461BCD PUSH1 0xE5 SHL DUP2 MSTORE PUSH1 0x20 PUSH1 0x4 DUP3 ADD MSTORE PUSH1 0x1F PUSH1 0x24 DUP3 ADD MSTORE PUSH32 0x43686F6963652073686F756C64206265206569746865722031206F7220322100 PUSH1 0x44 DUP3 ADD MSTORE PUSH1 0x64 SWAP1 REVERT JUMPDEST PUSH1 0x2 SWAP2 POP EQ CODESIZE PUSH2 0x314F JUMP JUMPDEST ISZERO PUSH2 0x320F JUMPI JUMP JUMPDEST PUSH1 0x40 MLOAD PUSH3 0x461BCD PUSH1 0xE5 SHL DUP2 MSTORE PUSH1 0x20 PUSH1 0x4 DUP3 ADD MSTORE PUSH1 0x21 PUSH1 0x24 DUP3 ADD MSTORE PUSH32 0x506C6179657273207374696C6C206E65656420746F206D616B652061206D6F76 PUSH1 0x44 DUP3 ADD MSTORE PUSH1 0x65 PUSH1 0xF8 SHL PUSH1 0x64 DUP3 ADD MSTORE PUSH1 0x84 SWAP1 REVERT JUMPDEST PUSH2 0x3267 SWAP1 PUSH2 0x2173 JUMP JUMPDEST PUSH1 0x60 DUP2 ADD MLOAD DUP1 MLOAD CALLER PUSH1 0x1 PUSH1 0x1 PUSH1 0xA0 SHL SUB SWAP2 DUP3 AND EQ SWAP2 DUP3 ISZERO PUSH2 0x3319 JUMPI JUMPDEST POP POP ISZERO PUSH2 0x32C0 JUMPI DUP1 PUSH2 0x32AA PUSH1 0x80 PUSH2 0x614 SWAP4 ADD MLOAD PUSH1 0xFF DUP2 MLOAD AND ISZERO ISZERO SWAP1 DUP2 PUSH2 0x32AF JUMPI JUMPDEST POP PUSH2 0x3208 JUMP JUMPDEST PUSH2 0x36F3 JUMP JUMPDEST PUSH1 0x20 ADD MLOAD PUSH1 0xFF AND SWAP1 POP ISZERO ISZERO CODESIZE PUSH2 0x32A4 JUMP JUMPDEST PUSH1 0x40 MLOAD PUSH3 0x461BCD PUSH1 0xE5 SHL DUP2 MSTORE PUSH1 0x20 PUSH1 0x4 DUP3 ADD MSTORE PUSH1 0x2B PUSH1 0x24 DUP3 ADD MSTORE PUSH32 0x4F6E6C7920706C617965727320696E207468697320626174746C652063616E20 PUSH1 0x44 DUP3 ADD MSTORE PUSH11 0x6D616B652061206D6F7665 PUSH1 0xA8 SHL PUSH1 0x64 DUP3 ADD MSTORE PUSH1 0x84 SWAP1 REVERT JUMPDEST PUSH1 0x20 SWAP2 SWAP3 POP ADD MLOAD AND CALLER EQ CODESIZE DUP1 PUSH2 0x3283 JUMP JUMPDEST SWAP1 PUSH2 0x3334 DUP3 PUSH2 0x63D JUMP JUMPDEST PUSH2 0x3341 PUSH1 0x40 MLOAD SWAP2 DUP3 PUSH2 0x5E6 JUMP JUMPDEST DUP3 DUP2 MSTORE DUP1 SWAP3 PUSH2 0x3352 PUSH1 0x1F NOT SWAP2 PUSH2 0x63D JUMP JUMPDEST ADD SWAP1 PUSH1 0x20 CALLDATASIZE SWAP2 ADD CALLDATACOPY JUMP JUMPDEST PUSH1 0xFF AND PUSH1 0x30 ADD SWAP1 PUSH1 0xFF DUP3 GT PUSH2 0x2416 JUMPI JUMP JUMPDEST SWAP1 DUP2 MLOAD DUP2 LT ISZERO PUSH2 0xFFE JUMPI ADD PUSH1 0x20 ADD SWAP1 JUMP JUMPDEST DUP1 ISZERO PUSH2 0x340F JUMPI DUP1 PUSH1 0x0 DUP3 PUSH1 0x0 SWAP4 JUMPDEST PUSH2 0x33FB JUMPI POP DUP2 PUSH2 0x339B DUP5 PUSH2 0x332A JUMP JUMPDEST SWAP4 SWAP1 JUMPDEST PUSH2 0x33A8 JUMPI POP POP POP SWAP1 JUMP JUMPDEST PUSH2 0x33B1 SWAP1 PUSH2 0x2E64 JUMP JUMPDEST SWAP2 PUSH2 0x33E7 PUSH2 0x33D7 PUSH2 0x33D2 PUSH2 0x188D PUSH1 0xA DUP6 DIV SWAP5 PUSH2 0x33CC DUP7 PUSH2 0x2400 JUMP JUMPDEST SWAP1 PUSH2 0x2E82 JUMP JUMPDEST PUSH2 0x335C JUMP JUMPDEST PUSH1 0xF8 SHL PUSH1 0x1 PUSH1 0x1 PUSH1 0xF8 SHL SUB NOT AND SWAP1 JUMP JUMPDEST DUP3 BYTE PUSH2 0x33F3 DUP5 DUP7 PUSH2 0x336D JUMP JUMPDEST MSTORE8 SWAP2 DUP3 PUSH2 0x339E JUMP JUMPDEST SWAP3 PUSH2 0x3407 PUSH1 0xA SWAP2 PUSH2 0x2FD7 JUMP JUMPDEST SWAP4 DIV DUP1 PUSH2 0x338C JUMP JUMPDEST POP PUSH1 0x40 MLOAD PUSH2 0x341C DUP2 PUSH2 0x5CB JUMP JUMPDEST PUSH1 0x1 DUP2 MSTORE PUSH1 0x3 PUSH1 0xFC SHL PUSH1 0x20 DUP3 ADD MSTORE SWAP1 JUMP JUMPDEST SWAP1 SWAP4 SWAP3 SWAP1 SWAP2 PUSH1 0x1 PUSH1 0x1 PUSH1 0xA0 SHL SUB DUP6 AND DUP1 PUSH2 0x344A JUMPI JUMPDEST POP POP POP POP POP POP JUMP JUMPDEST DUP2 MLOAD PUSH1 0x1 SUB PUSH2 0x3473 JUMPI POP SWAP4 PUSH1 0x20 DUP1 PUSH2 0x3468 SWAP7 ADD MLOAD SWAP3 ADD MLOAD SWAP3 CALLER PUSH2 0x3DD9 JUMP JUMPDEST CODESIZE DUP1 DUP1 DUP1 DUP1 DUP1 PUSH2 0x3442 JUMP JUMPDEST DUP6 SWAP5 SWAP2 SWAP3 SWAP4 SWAP5 EXTCODESIZE PUSH2 0x348A JUMPI JUMPDEST POP POP POP POP POP POP PUSH2 0x3468 JUMP JUMPDEST PUSH2 0x34B3 SWAP4 PUSH1 0x0 PUSH1 0x20 SWAP5 PUSH1 0x40 MLOAD SWAP7 DUP8 SWAP6 DUP7 SWAP5 DUP6 SWAP4 PUSH4 0xBC197C81 PUSH1 0xE0 SHL SWAP12 DUP13 DUP7 MSTORE CALLER PUSH1 0x4 DUP8 ADD PUSH2 0x3CB8 JUMP JUMPDEST SUB SWAP3 GAS CALL PUSH1 0x0 SWAP2 DUP2 PUSH2 0x353D JUMPI JUMPDEST POP PUSH2 0x34FF JUMPI DUP3 PUSH2 0x34CE PUSH2 0x3CEA JUMP JUMPDEST DUP1 MLOAD SWAP2 SWAP1 DUP3 PUSH2 0x34F8 JUMPI PUSH1 0x40 MLOAD PUSH4 0x2BFA23E7 PUSH1 0xE1 SHL DUP2 MSTORE PUSH1 0x1 PUSH1 0x1 PUSH1 0xA0 SHL SUB DUP4 AND PUSH1 0x4 DUP3 ADD MSTORE PUSH1 0x24 SWAP1 REVERT JUMPDEST SWAP1 POP PUSH1 0x20 ADD REVERT JUMPDEST PUSH1 0x1 PUSH1 0x1 PUSH1 0xE0 SHL SUB NOT AND SUB PUSH2 0x351A JUMPI POP CODESIZE DUP1 DUP1 DUP1 DUP1 DUP1 PUSH2 0x347F JUMP JUMPDEST PUSH1 0x40 MLOAD PUSH4 0x2BFA23E7 PUSH1 0xE1 SHL DUP2 MSTORE PUSH1 0x1 PUSH1 0x1 PUSH1 0xA0 SHL SUB SWAP2 SWAP1 SWAP2 AND PUSH1 0x4 DUP3 ADD MSTORE PUSH1 0x24 SWAP1 REVERT JUMPDEST PUSH2 0x3560 SWAP2 SWAP3 POP PUSH1 0x20 RETURNDATASIZE PUSH1 0x20 GT PUSH2 0x3567 JUMPI JUMPDEST PUSH2 0x3558 DUP2 DUP4 PUSH2 0x5E6 JUMP JUMPDEST DUP2 ADD SWAP1 PUSH2 0x3C58 JUMP JUMPDEST SWAP1 CODESIZE PUSH2 0x34C0 JUMP JUMPDEST POP RETURNDATASIZE PUSH2 0x354E JUMP JUMPDEST PUSH1 0xA SWAP1 PUSH1 0x40 MLOAD PUSH1 0x20 DUP2 ADD SWAP2 PREVRANDAO DUP4 MSTORE TIMESTAMP PUSH1 0x40 DUP4 ADD MSTORE PUSH1 0x1 PUSH1 0x1 PUSH1 0x60 SHL SUB NOT SWAP1 PUSH1 0x60 SHL AND PUSH1 0x60 DUP3 ADD MSTORE PUSH1 0x54 DUP2 MSTORE PUSH2 0x35A2 DUP2 PUSH2 0x575 JUMP JUMPDEST MLOAD SWAP1 KECCAK256 MOD DUP1 ISZERO PUSH2 0x35AF JUMPI SWAP1 JUMP JUMPDEST POP PUSH1 0x5 SWAP1 JUMP JUMPDEST PUSH1 0x1 PUSH1 0x1 PUSH1 0xA0 SHL SUB DUP2 AND SWAP3 SWAP2 DUP4 ISZERO PUSH2 0x1D57 JUMPI PUSH2 0x35F0 PUSH1 0x40 MLOAD SWAP2 PUSH1 0x1 DUP4 MSTORE PUSH1 0x20 DUP4 ADD MSTORE PUSH1 0x40 DUP3 ADD SWAP1 PUSH1 0x1 DUP3 MSTORE PUSH1 0x1 PUSH1 0x60 DUP5 ADD MSTORE PUSH1 0x80 DUP4 ADD PUSH1 0x40 MSTORE JUMP JUMPDEST SWAP1 SWAP4 PUSH1 0x1 DUP6 MLOAD EQ PUSH1 0x0 EQ PUSH2 0x3612 JUMPI POP PUSH1 0x20 DUP1 PUSH2 0x614 SWAP6 ADD MLOAD SWAP2 ADD MLOAD SWAP2 CALLER PUSH2 0x3D7E JUMP JUMPDEST SWAP2 SWAP4 SWAP3 DUP5 EXTCODESIZE PUSH2 0x3623 JUMPI JUMPDEST POP POP POP POP POP JUMP JUMPDEST PUSH2 0x364B SWAP3 PUSH1 0x20 SWAP3 PUSH1 0x0 PUSH1 0x40 MLOAD DUP1 SWAP7 DUP2 SWAP6 DUP3 SWAP5 PUSH4 0xBC197C81 PUSH1 0xE0 SHL SWAP11 DUP12 DUP6 MSTORE CALLER PUSH1 0x4 DUP7 ADD PUSH2 0x3C6D JUMP JUMPDEST SUB SWAP3 GAS CALL PUSH1 0x0 SWAP2 DUP2 PUSH2 0x3680 JUMPI JUMPDEST POP PUSH2 0x3666 JUMPI DUP3 PUSH2 0x34CE PUSH2 0x3CEA JUMP JUMPDEST PUSH1 0x1 PUSH1 0x1 PUSH1 0xE0 SHL SUB NOT AND SUB PUSH2 0x351A JUMPI POP CODESIZE DUP1 DUP1 DUP1 DUP1 PUSH2 0x361C JUMP JUMPDEST PUSH2 0x369A SWAP2 SWAP3 POP PUSH1 0x20 RETURNDATASIZE PUSH1 0x20 GT PUSH2 0x3567 JUMPI PUSH2 0x3558 DUP2 DUP4 PUSH2 0x5E6 JUMP JUMPDEST SWAP1 CODESIZE PUSH2 0x3658 JUMP JUMPDEST SWAP1 PUSH1 0x3 DUP3 ADD DUP1 SWAP3 GT PUSH2 0x2416 JUMPI JUMP JUMPDEST SWAP2 SWAP1 DUP3 ADD DUP1 SWAP3 GT PUSH2 0x2416 JUMPI JUMP JUMPDEST PUSH1 0x40 DUP2 ADD SWAP3 SWAP2 PUSH1 0x0 SWAP2 JUMPDEST PUSH1 0x2 DUP4 LT PUSH2 0x36D3 JUMPI POP POP POP JUMP JUMPDEST DUP2 MLOAD PUSH1 0x1 PUSH1 0x1 PUSH1 0xA0 SHL SUB AND DUP2 MSTORE PUSH1 0x1 SWAP3 SWAP1 SWAP3 ADD SWAP2 PUSH1 0x20 SWAP2 DUP3 ADD SWAP2 ADD PUSH2 0x36C6 JUMP JUMPDEST PUSH1 0x3 PUSH2 0x398B PUSH2 0x3923 PUSH2 0x3909 PUSH2 0x1431 PUSH1 0x60 PUSH2 0x371A PUSH2 0x15E4 DUP3 DUP10 ADD MLOAD PUSH1 0x1 DUP1 PUSH1 0xA0 SHL SUB SWAP1 MLOAD AND SWAP1 JUMP JUMPDEST SLOAD PUSH1 0x80 DUP9 ADD MLOAD MLOAD PUSH1 0xFF AND DUP9 DUP4 ADD MLOAD MLOAD SWAP1 SWAP2 SWAP1 DUP4 SWAP1 PUSH2 0x3740 SWAP1 PUSH1 0x1 PUSH1 0x1 PUSH1 0xA0 SHL SUB AND PUSH2 0x2658 JUMP JUMPDEST ADD MLOAD DUP10 DUP5 PUSH2 0x3776 PUSH2 0x91E DUP3 PUSH1 0x40 PUSH2 0x3764 PUSH2 0x91E DUP4 DUP9 ADD MLOAD PUSH1 0x1 DUP1 PUSH1 0xA0 SHL SUB SWAP1 MLOAD AND SWAP1 JUMP JUMPDEST ADD MLOAD SWAP5 ADD MLOAD MLOAD PUSH1 0x1 PUSH1 0x1 PUSH1 0xA0 SHL SUB AND SWAP1 JUMP JUMPDEST ADD MLOAD SWAP2 PUSH2 0x3781 PUSH2 0x616 JUMP JUMPDEST SWAP4 DUP5 MSTORE PUSH1 0xFF PUSH1 0x20 DUP6 ADD SWAP6 AND DUP6 MSTORE PUSH1 0x40 DUP5 ADD MSTORE DUP5 DUP4 ADD MSTORE PUSH1 0x80 DUP3 ADD MSTORE PUSH2 0x37AF PUSH2 0x15E4 PUSH2 0x1431 DUP6 DUP13 ADD MLOAD PUSH1 0x20 ADD SWAP1 JUMP JUMPDEST SLOAD SWAP1 PUSH2 0x37C2 PUSH2 0x183C PUSH1 0x80 DUP13 ADD MLOAD PUSH1 0x20 ADD SWAP1 JUMP JUMPDEST DUP11 DUP6 PUSH2 0x37D7 PUSH2 0xEC8 PUSH2 0x1431 DUP4 DUP6 ADD MLOAD PUSH1 0x20 ADD SWAP1 JUMP JUMPDEST ADD MLOAD PUSH1 0xFF DUP8 PUSH2 0x3806 PUSH2 0x91E PUSH2 0x1431 DUP4 PUSH1 0x40 PUSH2 0x37FB PUSH2 0x91E PUSH2 0x1431 DUP5 DUP13 ADD MLOAD PUSH1 0x20 ADD SWAP1 JUMP JUMPDEST ADD MLOAD SWAP8 ADD MLOAD PUSH1 0x20 ADD SWAP1 JUMP JUMPDEST ADD MLOAD SWAP4 PUSH2 0x3811 PUSH2 0x616 JUMP JUMPDEST SWAP7 DUP8 MSTORE AND PUSH1 0x20 DUP7 ADD MSTORE PUSH1 0x40 DUP6 ADD MSTORE DUP6 DUP5 ADD MSTORE PUSH1 0x80 DUP4 ADD MSTORE DUP4 PUSH2 0x3831 PUSH2 0x630 JUMP JUMPDEST PUSH1 0x0 DUP2 MSTORE PUSH1 0x0 PUSH1 0x20 DUP3 ADD MSTORE DUP1 SWAP5 MLOAD PUSH1 0x1 DUP2 EQ DUP1 DUP1 SWAP2 PUSH2 0x3C4A JUMPI JUMPDEST ISZERO PUSH2 0x3A46 JUMPI POP POP POP DUP2 ADD MLOAD PUSH1 0x40 DUP4 ADD MLOAD GT PUSH2 0x3990 JUMPI POP POP DUP2 DUP9 ADD MLOAD MLOAD PUSH1 0x0 DUP1 MLOAD PUSH1 0x20 PUSH2 0x3E74 DUP4 CODECOPY DUP2 MLOAD SWAP2 MSTORE SWAP2 PUSH2 0x389D SWAP2 PUSH2 0x388F SWAP1 DUP12 SWAP1 PUSH1 0x1 PUSH1 0x1 PUSH1 0xA0 SHL SUB AND PUSH2 0x2D1D JUMP JUMPDEST POP JUMPDEST PUSH1 0x40 MLOAD SWAP2 DUP3 SWAP2 DUP3 PUSH2 0x36BC JUMP JUMPDEST SUB SWAP1 LOG1 PUSH1 0x0 PUSH1 0x80 DUP9 ADD MLOAD MSTORE PUSH1 0x0 PUSH2 0x38B8 PUSH1 0x80 DUP10 ADD MLOAD PUSH1 0x20 ADD SWAP1 JUMP JUMPDEST MSTORE PUSH2 0x38C7 DUP8 PUSH1 0x40 DUP2 ADD MLOAD PUSH2 0x2FE6 JUMP JUMPDEST PUSH2 0x3931 DUP2 DUP9 PUSH1 0x2 PUSH2 0x3929 PUSH2 0x3923 PUSH2 0x3909 PUSH2 0x38F3 PUSH2 0x38EE DUP8 DUP8 ADD MLOAD PUSH1 0x1 DUP1 PUSH1 0xA0 SHL SUB SWAP1 MLOAD AND SWAP1 JUMP JUMPDEST PUSH2 0x356E JUMP JUMPDEST SWAP5 SWAP1 SWAP6 ADD MLOAD MLOAD SWAP4 SWAP5 DUP6 SWAP5 PUSH1 0x1 PUSH1 0x1 PUSH1 0xA0 SHL SUB AND SWAP1 JUMP JUMPDEST PUSH1 0x1 PUSH1 0x1 PUSH1 0xA0 SHL SUB AND PUSH1 0x0 SWAP1 DUP2 MSTORE PUSH1 0xC PUSH1 0x20 MSTORE PUSH1 0x40 SWAP1 KECCAK256 SWAP1 JUMP JUMPDEST SLOAD PUSH2 0x197E JUMP JUMPDEST POP ADD SSTORE PUSH2 0x2E56 JUMP JUMPDEST DUP8 DUP3 ADD MLOAD MLOAD DUP8 SWAP1 PUSH2 0x394E SWAP1 PUSH2 0x3923 SWAP1 PUSH1 0x1 PUSH1 0x1 PUSH1 0xA0 SHL SUB AND PUSH2 0x3909 JUMP JUMPDEST POP ADD SSTORE PUSH2 0x3982 DUP2 DUP9 PUSH1 0x2 PUSH2 0x3929 PUSH2 0x3923 PUSH2 0x3909 PUSH2 0x1431 PUSH2 0x3977 PUSH2 0x38EE PUSH2 0x1431 DUP10 DUP10 ADD MLOAD PUSH1 0x20 ADD SWAP1 JUMP JUMPDEST SWAP7 DUP8 SWAP7 ADD MLOAD PUSH1 0x20 ADD SWAP1 JUMP JUMPDEST SWAP7 ADD MLOAD PUSH1 0x20 ADD SWAP1 JUMP JUMPDEST POP ADD SSTORE JUMP JUMPDEST DUP2 DUP5 ADD MLOAD PUSH1 0x40 DUP3 ADD MLOAD DUP2 LT PUSH2 0x39CF JUMPI POP POP POP PUSH2 0x389D PUSH1 0x0 DUP1 MLOAD PUSH1 0x20 PUSH2 0x3E74 DUP4 CODECOPY DUP2 MLOAD SWAP2 MSTORE SWAP2 PUSH2 0x39C9 DUP11 PUSH2 0x143E PUSH2 0x1431 DUP8 DUP4 ADD MLOAD PUSH1 0x20 ADD SWAP1 JUMP JUMPDEST POP PUSH2 0x3891 JUMP JUMPDEST PUSH1 0x2 SWAP4 POP PUSH2 0x3A11 DUP3 DUP6 SWAP3 PUSH2 0x39F5 DUP14 PUSH2 0x39EB PUSH2 0x3A1D SWAP9 SWAP8 MLOAD PUSH2 0x1E43 JUMP JUMPDEST POP ADD SWAP2 DUP3 SLOAD PUSH2 0x2E82 JUMP JUMPDEST SWAP1 SSTORE DUP7 DUP2 ADD MLOAD PUSH2 0x3A09 DUP14 PUSH2 0x39EB DUP8 MLOAD PUSH2 0x1E43 JUMP JUMPDEST SWAP1 SSTORE MLOAD PUSH2 0x1E43 JUMP JUMPDEST POP ADD PUSH2 0x3A09 DUP2 SLOAD PUSH2 0x2E73 JUMP JUMPDEST POP ADD PUSH2 0x3A29 DUP2 SLOAD PUSH2 0x2E73 JUMP JUMPDEST SWAP1 SSTORE PUSH1 0x0 DUP1 MLOAD PUSH1 0x20 PUSH2 0x3E74 DUP4 CODECOPY DUP2 MLOAD SWAP2 MSTORE PUSH2 0x389D DUP3 DUP10 ADD MLOAD PUSH2 0x3891 JUMP JUMPDEST SWAP4 PUSH2 0x389D SWAP6 SWAP2 DUP6 PUSH1 0x0 DUP1 MLOAD PUSH1 0x20 PUSH2 0x3E74 DUP4 CODECOPY DUP2 MLOAD SWAP2 MSTORE SWAP9 SWAP7 SWAP1 PUSH2 0x3C3C JUMPI JUMPDEST ISZERO PUSH2 0x3B28 JUMPI POP DUP14 PUSH2 0x3A7E PUSH1 0x40 DUP5 ADD MLOAD PUSH1 0x80 DUP6 ADD MLOAD SWAP1 PUSH2 0x36AF JUMP JUMPDEST DUP6 DUP4 ADD MLOAD SWAP1 SWAP3 SWAP1 SWAP2 DUP4 DUP4 LT PUSH2 0x3AAC JUMPI SWAP6 DUP7 ADD MLOAD MLOAD PUSH2 0x39C9 SWAP7 SWAP6 POP PUSH1 0x1 PUSH1 0x1 PUSH1 0xA0 SHL SUB AND SWAP4 POP PUSH2 0x143E SWAP3 POP POP POP JUMP JUMPDEST PUSH1 0x2 SWAP7 PUSH2 0x3AE6 SWAP7 DUP9 SWAP6 PUSH2 0x3A11 SWAP6 DUP1 PUSH1 0x80 DUP11 ADD MLOAD GT PUSH1 0x0 EQ PUSH2 0x3AF9 JUMPI POP POP POP POP POP PUSH1 0x40 DUP5 ADD MLOAD JUMPDEST DUP16 PUSH2 0x3ADD DUP7 MLOAD PUSH2 0x1E43 JUMP JUMPDEST POP ADD SSTORE MLOAD PUSH2 0x1E43 JUMP JUMPDEST POP ADD PUSH2 0x3AF2 DUP2 SLOAD PUSH2 0x36A1 JUMP JUMPDEST SWAP1 SSTORE PUSH2 0x3891 JUMP JUMPDEST PUSH2 0x3B23 SWAP4 PUSH2 0x3B0D PUSH2 0x1431 SWAP3 PUSH2 0x3B16 SWAP5 PUSH2 0x2E82 JUMP JUMPDEST SWAP6 ADD MLOAD PUSH1 0x20 ADD SWAP1 JUMP JUMPDEST PUSH1 0x1 PUSH1 0x1 PUSH1 0xA0 SHL SUB AND SWAP1 MSTORE JUMP JUMPDEST PUSH2 0x3AD2 JUMP JUMPDEST SWAP4 POP SWAP2 PUSH1 0x2 DUP1 SWAP5 EQ DUP1 DUP1 SWAP2 PUSH2 0x3C2E JUMPI JUMPDEST ISZERO PUSH2 0x3BE8 JUMPI POP DUP14 PUSH2 0x3B52 PUSH1 0x40 DUP6 ADD MLOAD PUSH1 0x80 DUP7 ADD MLOAD SWAP1 PUSH2 0x36AF JUMP JUMPDEST DUP4 DUP11 ADD MLOAD SWAP1 SWAP5 SWAP1 SWAP2 DUP6 DUP4 LT PUSH2 0x3B7C JUMPI SWAP5 POP POP POP POP POP PUSH2 0x39C9 SWAP2 POP PUSH2 0x143E PUSH2 0x1431 DUP8 DUP4 ADD MLOAD PUSH1 0x20 ADD SWAP1 JUMP JUMPDEST PUSH2 0x3BB7 SWAP6 DUP8 SWAP5 PUSH2 0x3BAB SWAP5 DUP14 DUP2 PUSH1 0x80 DUP8 ADD MLOAD GT PUSH1 0x0 EQ PUSH2 0x3BC3 JUMPI POP POP POP POP POP PUSH1 0x40 DUP2 ADD MLOAD JUMPDEST DUP16 PUSH2 0x3ADD DUP4 MLOAD PUSH2 0x1E43 JUMP JUMPDEST POP ADD PUSH2 0x3A09 DUP2 SLOAD PUSH2 0x36A1 JUMP JUMPDEST POP ADD PUSH2 0x3AF2 DUP2 SLOAD PUSH2 0x2E73 JUMP JUMPDEST PUSH2 0x3BD3 PUSH2 0x3B16 SWAP3 PUSH2 0x3BE3 SWAP6 PUSH2 0x2E82 JUMP JUMPDEST SWAP5 ADD MLOAD MLOAD PUSH1 0x1 PUSH1 0x1 PUSH1 0xA0 SHL SUB AND SWAP1 JUMP JUMPDEST PUSH2 0x3BA0 JUMP JUMPDEST SWAP1 POP DUP1 PUSH2 0x3C21 JUMPI JUMPDEST PUSH2 0x3BFD JUMPI JUMPDEST POP POP POP PUSH2 0x3891 JUMP JUMPDEST DUP3 PUSH2 0x3BAB PUSH2 0x3C0B SWAP4 MLOAD PUSH2 0x1E43 JUMP JUMPDEST POP ADD PUSH2 0x3C17 DUP2 SLOAD PUSH2 0x36A1 JUMP JUMPDEST SWAP1 SSTORE CODESIZE DUP1 DUP1 PUSH2 0x3BF5 JUMP JUMPDEST POP DUP3 PUSH1 0x20 DUP3 ADD MLOAD EQ PUSH2 0x3BF0 JUMP JUMPDEST POP PUSH1 0x1 PUSH1 0x20 DUP5 ADD MLOAD EQ PUSH2 0x3B38 JUMP JUMPDEST POP PUSH1 0x2 PUSH1 0x20 DUP5 ADD MLOAD EQ PUSH2 0x3A64 JUMP JUMPDEST POP PUSH1 0x1 PUSH1 0x20 DUP8 ADD MLOAD EQ PUSH2 0x384B JUMP JUMPDEST SWAP1 DUP2 PUSH1 0x20 SWAP2 SUB SLT PUSH2 0x2FC JUMPI MLOAD PUSH2 0x6C9 DUP2 PUSH2 0x4DF JUMP JUMPDEST SWAP3 PUSH2 0x3C9C PUSH2 0x6C9 SWAP6 SWAP4 PUSH2 0x3CAA SWAP4 PUSH1 0x1 DUP1 PUSH1 0xA0 SHL SUB AND DUP7 MSTORE PUSH1 0x0 PUSH1 0x20 DUP8 ADD MSTORE PUSH1 0xA0 PUSH1 0x40 DUP8 ADD MSTORE PUSH1 0xA0 DUP7 ADD SWAP1 PUSH2 0xD16 JUMP JUMPDEST SWAP1 DUP5 DUP3 SUB PUSH1 0x60 DUP7 ADD MSTORE PUSH2 0xD16 JUMP JUMPDEST SWAP2 PUSH1 0x80 DUP2 DUP5 SUB SWAP2 ADD MSTORE PUSH2 0x39B JUMP JUMPDEST SWAP4 SWAP1 PUSH2 0x6C9 SWAP6 SWAP4 PUSH2 0x3C9C SWAP2 PUSH2 0x3CAA SWAP5 PUSH1 0x1 DUP1 PUSH1 0xA0 SHL SUB DUP1 SWAP3 AND DUP9 MSTORE AND PUSH1 0x20 DUP8 ADD MSTORE PUSH1 0xA0 PUSH1 0x40 DUP8 ADD MSTORE PUSH1 0xA0 DUP7 ADD SWAP1 PUSH2 0xD16 JUMP JUMPDEST RETURNDATASIZE ISZERO PUSH2 0x3D15 JUMPI RETURNDATASIZE SWAP1 PUSH2 0x3CFB DUP3 PUSH2 0x63D JUMP JUMPDEST SWAP2 PUSH2 0x3D09 PUSH1 0x40 MLOAD SWAP4 DUP5 PUSH2 0x5E6 JUMP JUMPDEST DUP3 MSTORE RETURNDATASIZE PUSH1 0x0 PUSH1 0x20 DUP5 ADD RETURNDATACOPY JUMP JUMPDEST PUSH1 0x60 SWAP1 JUMP JUMPDEST SWAP1 SWAP3 PUSH1 0xA0 SWAP3 PUSH2 0x6C9 SWAP6 SWAP5 PUSH1 0x1 DUP1 DUP7 SHL SUB AND DUP4 MSTORE PUSH1 0x0 PUSH1 0x20 DUP5 ADD MSTORE PUSH1 0x40 DUP4 ADD MSTORE PUSH1 0x60 DUP3 ADD MSTORE DUP2 PUSH1 0x80 DUP3 ADD MSTORE ADD SWAP1 PUSH2 0x39B JUMP JUMPDEST SWAP2 SWAP3 PUSH2 0x6C9 SWAP6 SWAP5 SWAP2 PUSH1 0xA0 SWAP5 PUSH1 0x1 DUP1 DUP8 SHL SUB DUP1 SWAP3 AND DUP6 MSTORE AND PUSH1 0x20 DUP5 ADD MSTORE PUSH1 0x40 DUP4 ADD MSTORE PUSH1 0x60 DUP3 ADD MSTORE DUP2 PUSH1 0x80 DUP3 ADD MSTORE ADD SWAP1 PUSH2 0x39B JUMP JUMPDEST SWAP3 SWAP4 SWAP2 SWAP1 SWAP4 DUP5 EXTCODESIZE PUSH2 0x3D90 JUMPI POP POP POP POP POP JUMP JUMPDEST PUSH1 0x20 SWAP2 PUSH2 0x3DB3 PUSH1 0x40 MLOAD SWAP5 DUP6 SWAP4 DUP5 SWAP4 PUSH4 0xF23A6E61 PUSH1 0xE0 SHL SWAP9 DUP10 DUP7 MSTORE PUSH1 0x4 DUP7 ADD PUSH2 0x3D1A JUMP JUMPDEST SUB DUP2 PUSH1 0x0 PUSH1 0x1 PUSH1 0x1 PUSH1 0xA0 SHL SUB DUP9 AND GAS CALL PUSH1 0x0 SWAP2 DUP2 PUSH2 0x3680 JUMPI POP PUSH2 0x3666 JUMPI DUP3 PUSH2 0x34CE PUSH2 0x3CEA JUMP JUMPDEST SWAP4 SWAP3 SWAP1 SWAP5 SWAP2 SWAP5 DUP6 EXTCODESIZE PUSH2 0x3DED JUMPI POP POP POP POP POP POP JUMP JUMPDEST PUSH2 0x3E10 PUSH1 0x20 SWAP4 PUSH1 0x40 MLOAD SWAP6 DUP7 SWAP5 DUP6 SWAP5 PUSH4 0xF23A6E61 PUSH1 0xE0 SHL SWAP10 DUP11 DUP8 MSTORE PUSH1 0x4 DUP8 ADD PUSH2 0x3D4B JUMP JUMPDEST SUB DUP2 PUSH1 0x0 PUSH1 0x1 PUSH1 0x1 PUSH1 0xA0 SHL SUB DUP9 AND GAS CALL PUSH1 0x0 SWAP2 DUP2 PUSH2 0x3E52 JUMPI JUMPDEST POP PUSH2 0x3E37 JUMPI DUP3 PUSH2 0x34CE PUSH2 0x3CEA JUMP JUMPDEST PUSH1 0x1 PUSH1 0x1 PUSH1 0xE0 SHL SUB NOT AND SUB PUSH2 0x351A JUMPI POP CODESIZE DUP1 DUP1 DUP1 DUP1 DUP1 PUSH2 0x3442 JUMP JUMPDEST PUSH2 0x3E6C SWAP2 SWAP3 POP PUSH1 0x20 RETURNDATASIZE PUSH1 0x20 GT PUSH2 0x3567 JUMPI PUSH2 0x3558 DUP2 DUP4 PUSH2 0x5E6 JUMP JUMPDEST SWAP1 CODESIZE PUSH2 0x3E29 JUMP INVALID 0xC6 0xBF DUP7 0xC 0xBC ISZERO 0xF7 MUL 0xF PUSH20 0x993A671F01BBB1831A8A7A12C126CA735EB632E7 JUMPI PUSH22 0xA264697066735822122054B1DD0E03812F38405536FE 0x4D 0xC7 BALANCE MSTORE 0xB0 SWAP3 SWAP12 PUSH15 0xD9CD0264AA74CFF68C49D20F64736F PUSH13 0x63430008180033405787FA12A8 0x23 0xE0 CALLCODE 0xB7 PUSH4 0x1CC41B3B 0xA8 DUP3 DUP12 CALLER 0x21 0xCA DUP2 GT GT STATICCALL PUSH22 0xCD3AA3BB5ACE00000000000000000000000000000000 "},"methodIdentifiers":{"CELESTION()":"9e4ecd11","DEVIL()":"d2198cc5","FIREBIRD()":"703730a5","GRIFFIN()":"de96cefc","KAMO()":"0677aa4e","KUKULKAN()":"f1da7339","MAX_ATTACK_DEFEND_STRENGTH()":"0daea2cd","attackOrDefendChoice(uint8,string)":"ba274956","balanceOf(address,uint256)":"00fdd58e","balanceOfBatch(address[],uint256[])":"4e1273f4","baseURI()":"6c0360eb","battles(uint256)":"606d2e96","createBattle(string)":"2ca04522","createRandomGameToken(string)":"9ec40aa3","exists(uint256)":"4f558e79","gameTokens(uint256)":"bf034b69","getAllBattles()":"5c93fc3d","getAllPlayerTokens()":"015a3792","getAllPlayers()":"efa1c482","getBattle(string)":"16801d17","getBattleMoves(string)":"9b09cc87","getPlayer(address)":"5c12cd4b","getPlayerToken(address)":"10898e4c","getTotalSupply()":"c4e41b22","isApprovedForAll(address,address)":"e985e9c5","isBattle(string)":"1107ae3d","isPlayer(address)":"09c95e10","isPlayerToken(address)":"bf103a4d","joinBattle(string)":"a1b4f57c","owner()":"8da5cb5b","players(uint256)":"f71d96cb","quitBattle(string)":"996d7bea","registerPlayer(string,string)":"845f433b","renounceOwnership()":"715018a6","safeBatchTransferFrom(address,address,uint256[],uint256[],bytes)":"2eb2c2d6","safeTransferFrom(address,address,uint256,uint256,bytes)":"f242432a","setApprovalForAll(address,bool)":"a22cb465","setURI(string)":"02fe5305","supportsInterface(bytes4)":"01ffc9a7","tokenURI(uint256)":"c87b56dd","totalSupply()":"18160ddd","totalSupply(uint256)":"bd85b039","totalTokenMinted()":"579b526d","transferOwnership(address)":"f2fde38b","uri(uint256)":"0e89341c"}}}}}